{
	"contracts/4_Voting.sol": {
		"Voting": {
			"abi": [
				{
					"inputs": [
						{
							"internalType": "string",
							"name": "_title",
							"type": "string"
						},
						{
							"internalType": "uint256",
							"name": "_start_time",
							"type": "uint256"
						},
						{
							"internalType": "uint256",
							"name": "_end_time",
							"type": "uint256"
						},
						{
							"internalType": "uint256",
							"name": "_max_voters",
							"type": "uint256"
						},
						{
							"internalType": "string[]",
							"name": "_candids",
							"type": "string[]"
						}
					],
					"stateMutability": "nonpayable",
					"type": "constructor"
				},
				{
					"inputs": [
						{
							"internalType": "uint256",
							"name": "",
							"type": "uint256"
						}
					],
					"name": "candids",
					"outputs": [
						{
							"internalType": "string",
							"name": "",
							"type": "string"
						}
					],
					"stateMutability": "view",
					"type": "function"
				},
				{
					"inputs": [],
					"name": "chairman",
					"outputs": [
						{
							"internalType": "address",
							"name": "",
							"type": "address"
						}
					],
					"stateMutability": "view",
					"type": "function"
				},
				{
					"inputs": [
						{
							"internalType": "address[]",
							"name": "_voters",
							"type": "address[]"
						}
					],
					"name": "enter_voters",
					"outputs": [],
					"stateMutability": "nonpayable",
					"type": "function"
				},
				{
					"inputs": [
						{
							"internalType": "uint256",
							"name": "_end_time",
							"type": "uint256"
						}
					],
					"name": "extend",
					"outputs": [],
					"stateMutability": "nonpayable",
					"type": "function"
				},
				{
					"inputs": [
						{
							"internalType": "address",
							"name": "voter",
							"type": "address"
						}
					],
					"name": "give_voter_right",
					"outputs": [],
					"stateMutability": "nonpayable",
					"type": "function"
				},
				{
					"inputs": [],
					"name": "is_cancelled",
					"outputs": [
						{
							"internalType": "bool",
							"name": "",
							"type": "bool"
						}
					],
					"stateMutability": "view",
					"type": "function"
				},
				{
					"inputs": [
						{
							"internalType": "address[]",
							"name": "_voters",
							"type": "address[]"
						}
					],
					"name": "is_repeated",
					"outputs": [
						{
							"internalType": "bool",
							"name": "",
							"type": "bool"
						}
					],
					"stateMutability": "view",
					"type": "function"
				},
				{
					"inputs": [
						{
							"internalType": "address[]",
							"name": "_voters",
							"type": "address[]"
						}
					],
					"name": "larger_than_max",
					"outputs": [
						{
							"internalType": "bool",
							"name": "",
							"type": "bool"
						}
					],
					"stateMutability": "view",
					"type": "function"
				},
				{
					"inputs": [],
					"name": "max_voters",
					"outputs": [
						{
							"internalType": "uint256",
							"name": "",
							"type": "uint256"
						}
					],
					"stateMutability": "view",
					"type": "function"
				},
				{
					"inputs": [],
					"name": "no_winner",
					"outputs": [
						{
							"internalType": "bool",
							"name": "",
							"type": "bool"
						}
					],
					"stateMutability": "view",
					"type": "function"
				},
				{
					"inputs": [],
					"name": "result",
					"outputs": [
						{
							"internalType": "string",
							"name": "",
							"type": "string"
						}
					],
					"stateMutability": "nonpayable",
					"type": "function"
				},
				{
					"inputs": [],
					"name": "title",
					"outputs": [
						{
							"internalType": "string",
							"name": "",
							"type": "string"
						}
					],
					"stateMutability": "view",
					"type": "function"
				},
				{
					"inputs": [
						{
							"internalType": "string",
							"name": "_vote",
							"type": "string"
						}
					],
					"name": "vote",
					"outputs": [],
					"stateMutability": "nonpayable",
					"type": "function"
				},
				{
					"inputs": [
						{
							"internalType": "uint256",
							"name": "",
							"type": "uint256"
						}
					],
					"name": "voters_array",
					"outputs": [
						{
							"internalType": "address",
							"name": "",
							"type": "address"
						}
					],
					"stateMutability": "view",
					"type": "function"
				}
			],
			"devdoc": {
				"kind": "dev",
				"methods": {},
				"version": 1
			},
			"evm": {
				"assembly": "    /* \"contracts/4_Voting.sol\":25:5145  contract Voting {... */\n  mstore(0x40, 0x80)\n    /* \"contracts/4_Voting.sol\":355:356  0 */\n  0x00\n    /* \"contracts/4_Voting.sol\":329:356  uint256 max_candid_vote = 0 */\n  0x0a\n  sstore\n    /* \"contracts/4_Voting.sol\":555:1053  constructor(... */\n  callvalue\n  dup1\n  iszero\n  tag_1\n  jumpi\n  0x00\n  dup1\n  revert\ntag_1:\n  pop\n  mload(0x40)\n  sub(codesize, bytecodeSize)\n  dup1\n  bytecodeSize\n  dup4\n  codecopy\n  dup2\n  dup2\n  add\n  0x40\n  mstore\n  dup2\n  add\n  swap1\n  tag_2\n  swap2\n  swap1\n  tag_3\n  jump\t// in\ntag_2:\n    /* \"contracts/4_Voting.sol\":737:746  uint256 j */\n  0x00\n    /* \"contracts/4_Voting.sol\":732:840  for (uint256 j = 0; j < _candids.length; j++) {... */\ntag_6:\n    /* \"contracts/4_Voting.sol\":756:764  _candids */\n  dup2\n    /* \"contracts/4_Voting.sol\":756:771  _candids.length */\n  mload\n    /* \"contracts/4_Voting.sol\":752:753  j */\n  dup2\n    /* \"contracts/4_Voting.sol\":752:771  j < _candids.length */\n  lt\n    /* \"contracts/4_Voting.sol\":732:840  for (uint256 j = 0; j < _candids.length; j++) {... */\n  iszero\n  tag_7\n  jumpi\n    /* \"contracts/4_Voting.sol\":828:829  0 */\n  0x00\n    /* \"contracts/4_Voting.sol\":792:812  votes_num_of_candids */\n  0x0c\n    /* \"contracts/4_Voting.sol\":813:821  _candids */\n  dup4\n    /* \"contracts/4_Voting.sol\":822:823  j */\n  dup4\n    /* \"contracts/4_Voting.sol\":813:824  _candids[j] */\n  dup2\n  mload\n  dup2\n  lt\n  tag_9\n  jumpi\n  tag_10\n  tag_11\n  jump\t// in\ntag_10:\ntag_9:\n  0x20\n  mul\n  0x20\n  add\n  add\n  mload\n    /* \"contracts/4_Voting.sol\":792:825  votes_num_of_candids[_candids[j]] */\n  mload(0x40)\n  tag_12\n  swap2\n  swap1\n  tag_13\n  jump\t// in\ntag_12:\n  swap1\n  dup2\n  mstore\n  0x20\n  add\n  mload(0x40)\n  dup1\n  swap2\n  sub\n  swap1\n  keccak256\n    /* \"contracts/4_Voting.sol\":792:829  votes_num_of_candids[_candids[j]] = 0 */\n  dup2\n  swap1\n  sstore\n  pop\n    /* \"contracts/4_Voting.sol\":773:776  j++ */\n  dup1\n  dup1\n  tag_14\n  swap1\n  tag_15\n  jump\t// in\ntag_14:\n  swap2\n  pop\n  pop\n    /* \"contracts/4_Voting.sol\":732:840  for (uint256 j = 0; j < _candids.length; j++) {... */\n  jump(tag_6)\ntag_7:\n  pop\n    /* \"contracts/4_Voting.sol\":862:873  _start_time */\n  dup4\n    /* \"contracts/4_Voting.sol\":849:859  start_time */\n  0x07\n    /* \"contracts/4_Voting.sol\":849:873  start_time = _start_time */\n  dup2\n  swap1\n  sstore\n  pop\n    /* \"contracts/4_Voting.sol\":894:903  _end_time */\n  dup3\n    /* \"contracts/4_Voting.sol\":883:891  end_time */\n  0x08\n    /* \"contracts/4_Voting.sol\":883:903  end_time = _end_time */\n  dup2\n  swap1\n  sstore\n  pop\n    /* \"contracts/4_Voting.sol\":926:937  _max_voters */\n  dup2\n    /* \"contracts/4_Voting.sol\":913:923  max_voters */\n  0x09\n    /* \"contracts/4_Voting.sol\":913:937  max_voters = _max_voters */\n  dup2\n  swap1\n  sstore\n  pop\n    /* \"contracts/4_Voting.sol\":957:965  _candids */\n  dup1\n    /* \"contracts/4_Voting.sol\":947:954  candids */\n  0x0d\n    /* \"contracts/4_Voting.sol\":947:965  candids = _candids */\n  swap1\n  dup1\n  mload\n  swap1\n  0x20\n  add\n  swap1\n  tag_16\n  swap3\n  swap2\n  swap1\n  tag_17\n  jump\t// in\ntag_16:\n  pop\n    /* \"contracts/4_Voting.sol\":986:996  msg.sender */\n  caller\n    /* \"contracts/4_Voting.sol\":975:983  chairman */\n  0x00\n  dup1\n    /* \"contracts/4_Voting.sol\":975:996  chairman = msg.sender */\n  0x0100\n  exp\n  dup2\n  sload\n  dup2\n  0xffffffffffffffffffffffffffffffffffffffff\n  mul\n  not\n  and\n  swap1\n  dup4\n  0xffffffffffffffffffffffffffffffffffffffff\n  and\n  mul\n  or\n  swap1\n  sstore\n  pop\n    /* \"contracts/4_Voting.sol\":1014:1020  _title */\n  dup5\n    /* \"contracts/4_Voting.sol\":1006:1011  title */\n  0x01\n    /* \"contracts/4_Voting.sol\":1006:1020  title = _title */\n  swap1\n  dup1\n  mload\n  swap1\n  0x20\n  add\n  swap1\n  tag_18\n  swap3\n  swap2\n  swap1\n  tag_19\n  jump\t// in\ntag_18:\n  pop\n    /* \"contracts/4_Voting.sol\":1041:1046  false */\n  0x00\n    /* \"contracts/4_Voting.sol\":1030:1038  is_ended */\n  0x04\n  0x00\n    /* \"contracts/4_Voting.sol\":1030:1046  is_ended = false */\n  0x0100\n  exp\n  dup2\n  sload\n  dup2\n  0xff\n  mul\n  not\n  and\n  swap1\n  dup4\n  iszero\n  iszero\n  mul\n  or\n  swap1\n  sstore\n  pop\n    /* \"contracts/4_Voting.sol\":555:1053  constructor(... */\n  pop\n  pop\n  pop\n  pop\n  pop\n    /* \"contracts/4_Voting.sol\":25:5145  contract Voting {... */\n  jump(tag_20)\ntag_17:\n  dup3\n  dup1\n  sload\n  dup3\n  dup3\n  sstore\n  swap1\n  0x00\n  mstore\n  keccak256(0x00, 0x20)\n  swap1\n  dup2\n  add\n  swap3\n  dup3\n  iszero\n  tag_21\n  jumpi\n  swap2\n  0x20\n  mul\n  dup3\n  add\ntag_22:\n  dup3\n  dup2\n  gt\n  iszero\n  tag_23\n  jumpi\n  dup3\n  mload\n  dup3\n  swap1\n  dup1\n  mload\n  swap1\n  0x20\n  add\n  swap1\n  tag_24\n  swap3\n  swap2\n  swap1\n  tag_19\n  jump\t// in\ntag_24:\n  pop\n  swap2\n  0x20\n  add\n  swap2\n  swap1\n  0x01\n  add\n  swap1\n  jump(tag_22)\ntag_23:\ntag_21:\n  pop\n  swap1\n  pop\n  tag_25\n  swap2\n  swap1\n  tag_26\n  jump\t// in\ntag_25:\n  pop\n  swap1\n  jump\t// out\ntag_19:\n  dup3\n  dup1\n  sload\n  tag_27\n  swap1\n  tag_28\n  jump\t// in\ntag_27:\n  swap1\n  0x00\n  mstore\n  keccak256(0x00, 0x20)\n  swap1\n  0x1f\n  add\n  0x20\n  swap1\n  div\n  dup2\n  add\n  swap3\n  dup3\n  tag_30\n  jumpi\n  0x00\n  dup6\n  sstore\n  jump(tag_29)\ntag_30:\n  dup3\n  0x1f\n  lt\n  tag_31\n  jumpi\n  dup1\n  mload\n  not(0xff)\n  and\n  dup4\n  dup1\n  add\n  or\n  dup6\n  sstore\n  jump(tag_29)\ntag_31:\n  dup3\n  dup1\n  add\n  0x01\n  add\n  dup6\n  sstore\n  dup3\n  iszero\n  tag_29\n  jumpi\n  swap2\n  dup3\n  add\ntag_32:\n  dup3\n  dup2\n  gt\n  iszero\n  tag_33\n  jumpi\n  dup3\n  mload\n  dup3\n  sstore\n  swap2\n  0x20\n  add\n  swap2\n  swap1\n  0x01\n  add\n  swap1\n  jump(tag_32)\ntag_33:\ntag_29:\n  pop\n  swap1\n  pop\n  tag_34\n  swap2\n  swap1\n  tag_35\n  jump\t// in\ntag_34:\n  pop\n  swap1\n  jump\t// out\ntag_26:\ntag_36:\n  dup1\n  dup3\n  gt\n  iszero\n  tag_37\n  jumpi\n  0x00\n  dup2\n  dup2\n  tag_38\n  swap2\n  swap1\n  tag_39\n  jump\t// in\ntag_38:\n  pop\n  0x01\n  add\n  jump(tag_36)\ntag_37:\n  pop\n  swap1\n  jump\t// out\ntag_35:\ntag_40:\n  dup1\n  dup3\n  gt\n  iszero\n  tag_41\n  jumpi\n  0x00\n  dup2\n  0x00\n  swap1\n  sstore\n  pop\n  0x01\n  add\n  jump(tag_40)\ntag_41:\n  pop\n  swap1\n  jump\t// out\ntag_39:\n  pop\n  dup1\n  sload\n  tag_42\n  swap1\n  tag_28\n  jump\t// in\ntag_42:\n  0x00\n  dup3\n  sstore\n  dup1\n  0x1f\n  lt\n  tag_44\n  jumpi\n  pop\n  jump(tag_43)\ntag_44:\n  0x1f\n  add\n  0x20\n  swap1\n  div\n  swap1\n  0x00\n  mstore\n  keccak256(0x00, 0x20)\n  swap1\n  dup2\n  add\n  swap1\n  tag_45\n  swap2\n  swap1\n  tag_35\n  jump\t// in\ntag_45:\ntag_43:\n  pop\n  jump\t// out\n    /* \"#utility.yul\":23:995   */\ntag_47:\n    /* \"#utility.yul\":140:145   */\n  0x00\n    /* \"#utility.yul\":165:256   */\n  tag_49\n    /* \"#utility.yul\":181:255   */\n  tag_50\n    /* \"#utility.yul\":248:254   */\n  dup5\n    /* \"#utility.yul\":181:255   */\n  tag_51\n  jump\t// in\ntag_50:\n    /* \"#utility.yul\":165:256   */\n  tag_52\n  jump\t// in\ntag_49:\n    /* \"#utility.yul\":156:256   */\n  swap1\n  pop\n    /* \"#utility.yul\":276:281   */\n  dup1\n    /* \"#utility.yul\":305:311   */\n  dup4\n    /* \"#utility.yul\":298:303   */\n  dup3\n    /* \"#utility.yul\":291:312   */\n  mstore\n    /* \"#utility.yul\":339:343   */\n  0x20\n    /* \"#utility.yul\":332:337   */\n  dup3\n    /* \"#utility.yul\":328:344   */\n  add\n    /* \"#utility.yul\":321:344   */\n  swap1\n  pop\n    /* \"#utility.yul\":365:371   */\n  dup3\n    /* \"#utility.yul\":415:418   */\n  dup6\n    /* \"#utility.yul\":407:411   */\n  0x20\n    /* \"#utility.yul\":399:405   */\n  dup7\n    /* \"#utility.yul\":395:412   */\n  mul\n    /* \"#utility.yul\":390:393   */\n  dup3\n    /* \"#utility.yul\":386:413   */\n  add\n    /* \"#utility.yul\":383:419   */\n  gt\n    /* \"#utility.yul\":380:523   */\n  iszero\n  tag_53\n  jumpi\n    /* \"#utility.yul\":434:513   */\n  tag_54\n  tag_55\n  jump\t// in\ntag_54:\n    /* \"#utility.yul\":380:523   */\ntag_53:\n    /* \"#utility.yul\":547:548   */\n  0x00\n    /* \"#utility.yul\":532:989   */\ntag_56:\n    /* \"#utility.yul\":557:563   */\n  dup6\n    /* \"#utility.yul\":554:555   */\n  dup2\n    /* \"#utility.yul\":551:564   */\n  lt\n    /* \"#utility.yul\":532:989   */\n  iszero\n  tag_58\n  jumpi\n    /* \"#utility.yul\":632:635   */\n  dup2\n    /* \"#utility.yul\":626:636   */\n  mload\n    /* \"#utility.yul\":668:686   */\n  0xffffffffffffffff\n    /* \"#utility.yul\":655:666   */\n  dup2\n    /* \"#utility.yul\":652:687   */\n  gt\n    /* \"#utility.yul\":649:771   */\n  iszero\n  tag_59\n  jumpi\n    /* \"#utility.yul\":690:769   */\n  tag_60\n  tag_61\n  jump\t// in\ntag_60:\n    /* \"#utility.yul\":649:771   */\ntag_59:\n    /* \"#utility.yul\":814:825   */\n  dup1\n    /* \"#utility.yul\":806:812   */\n  dup7\n    /* \"#utility.yul\":802:826   */\n  add\n    /* \"#utility.yul\":852:910   */\n  tag_62\n    /* \"#utility.yul\":906:909   */\n  dup10\n    /* \"#utility.yul\":894:904   */\n  dup3\n    /* \"#utility.yul\":852:910   */\n  tag_63\n  jump\t// in\ntag_62:\n    /* \"#utility.yul\":847:850   */\n  dup6\n    /* \"#utility.yul\":840:911   */\n  mstore\n    /* \"#utility.yul\":940:944   */\n  0x20\n    /* \"#utility.yul\":935:938   */\n  dup6\n    /* \"#utility.yul\":931:945   */\n  add\n    /* \"#utility.yul\":924:945   */\n  swap5\n  pop\n    /* \"#utility.yul\":974:978   */\n  0x20\n    /* \"#utility.yul\":969:972   */\n  dup5\n    /* \"#utility.yul\":965:979   */\n  add\n    /* \"#utility.yul\":958:979   */\n  swap4\n  pop\n    /* \"#utility.yul\":592:989   */\n  pop\n  pop\n    /* \"#utility.yul\":579:580   */\n  0x01\n    /* \"#utility.yul\":576:577   */\n  dup2\n    /* \"#utility.yul\":572:581   */\n  add\n    /* \"#utility.yul\":567:581   */\n  swap1\n  pop\n    /* \"#utility.yul\":532:989   */\n  jump(tag_56)\ntag_58:\n    /* \"#utility.yul\":536:550   */\n  pop\n    /* \"#utility.yul\":146:995   */\n  pop\n  pop\n    /* \"#utility.yul\":23:995   */\n  swap4\n  swap3\n  pop\n  pop\n  pop\n  jump\t// out\n    /* \"#utility.yul\":1001:1422   */\ntag_64:\n    /* \"#utility.yul\":1090:1095   */\n  0x00\n    /* \"#utility.yul\":1115:1181   */\n  tag_66\n    /* \"#utility.yul\":1131:1180   */\n  tag_67\n    /* \"#utility.yul\":1173:1179   */\n  dup5\n    /* \"#utility.yul\":1131:1180   */\n  tag_68\n  jump\t// in\ntag_67:\n    /* \"#utility.yul\":1115:1181   */\n  tag_52\n  jump\t// in\ntag_66:\n    /* \"#utility.yul\":1106:1181   */\n  swap1\n  pop\n    /* \"#utility.yul\":1204:1210   */\n  dup3\n    /* \"#utility.yul\":1197:1202   */\n  dup2\n    /* \"#utility.yul\":1190:1211   */\n  mstore\n    /* \"#utility.yul\":1242:1246   */\n  0x20\n    /* \"#utility.yul\":1235:1240   */\n  dup2\n    /* \"#utility.yul\":1231:1247   */\n  add\n    /* \"#utility.yul\":1280:1283   */\n  dup5\n    /* \"#utility.yul\":1271:1277   */\n  dup5\n    /* \"#utility.yul\":1266:1269   */\n  dup5\n    /* \"#utility.yul\":1262:1278   */\n  add\n    /* \"#utility.yul\":1259:1284   */\n  gt\n    /* \"#utility.yul\":1256:1368   */\n  iszero\n  tag_69\n  jumpi\n    /* \"#utility.yul\":1287:1366   */\n  tag_70\n  tag_71\n  jump\t// in\ntag_70:\n    /* \"#utility.yul\":1256:1368   */\ntag_69:\n    /* \"#utility.yul\":1377:1416   */\n  tag_72\n    /* \"#utility.yul\":1409:1415   */\n  dup5\n    /* \"#utility.yul\":1404:1407   */\n  dup3\n    /* \"#utility.yul\":1399:1402   */\n  dup6\n    /* \"#utility.yul\":1377:1416   */\n  tag_73\n  jump\t// in\ntag_72:\n    /* \"#utility.yul\":1096:1422   */\n  pop\n    /* \"#utility.yul\":1001:1422   */\n  swap4\n  swap3\n  pop\n  pop\n  pop\n  jump\t// out\n    /* \"#utility.yul\":1444:1849   */\ntag_74:\n    /* \"#utility.yul\":1536:1541   */\n  0x00\n    /* \"#utility.yul\":1585:1588   */\n  dup3\n    /* \"#utility.yul\":1578:1582   */\n  0x1f\n    /* \"#utility.yul\":1570:1576   */\n  dup4\n    /* \"#utility.yul\":1566:1583   */\n  add\n    /* \"#utility.yul\":1562:1589   */\n  slt\n    /* \"#utility.yul\":1552:1674   */\n  tag_76\n  jumpi\n    /* \"#utility.yul\":1593:1672   */\n  tag_77\n  tag_61\n  jump\t// in\ntag_77:\n    /* \"#utility.yul\":1552:1674   */\ntag_76:\n    /* \"#utility.yul\":1703:1709   */\n  dup2\n    /* \"#utility.yul\":1697:1710   */\n  mload\n    /* \"#utility.yul\":1728:1843   */\n  tag_78\n    /* \"#utility.yul\":1839:1842   */\n  dup5\n    /* \"#utility.yul\":1831:1837   */\n  dup3\n    /* \"#utility.yul\":1824:1828   */\n  0x20\n    /* \"#utility.yul\":1816:1822   */\n  dup7\n    /* \"#utility.yul\":1812:1829   */\n  add\n    /* \"#utility.yul\":1728:1843   */\n  tag_47\n  jump\t// in\ntag_78:\n    /* \"#utility.yul\":1719:1843   */\n  swap2\n  pop\n    /* \"#utility.yul\":1542:1849   */\n  pop\n    /* \"#utility.yul\":1444:1849   */\n  swap3\n  swap2\n  pop\n  pop\n  jump\t// out\n    /* \"#utility.yul\":1869:2224   */\ntag_63:\n    /* \"#utility.yul\":1936:1941   */\n  0x00\n    /* \"#utility.yul\":1985:1988   */\n  dup3\n    /* \"#utility.yul\":1978:1982   */\n  0x1f\n    /* \"#utility.yul\":1970:1976   */\n  dup4\n    /* \"#utility.yul\":1966:1983   */\n  add\n    /* \"#utility.yul\":1962:1989   */\n  slt\n    /* \"#utility.yul\":1952:2074   */\n  tag_80\n  jumpi\n    /* \"#utility.yul\":1993:2072   */\n  tag_81\n  tag_61\n  jump\t// in\ntag_81:\n    /* \"#utility.yul\":1952:2074   */\ntag_80:\n    /* \"#utility.yul\":2103:2109   */\n  dup2\n    /* \"#utility.yul\":2097:2110   */\n  mload\n    /* \"#utility.yul\":2128:2218   */\n  tag_82\n    /* \"#utility.yul\":2214:2217   */\n  dup5\n    /* \"#utility.yul\":2206:2212   */\n  dup3\n    /* \"#utility.yul\":2199:2203   */\n  0x20\n    /* \"#utility.yul\":2191:2197   */\n  dup7\n    /* \"#utility.yul\":2187:2204   */\n  add\n    /* \"#utility.yul\":2128:2218   */\n  tag_64\n  jump\t// in\ntag_82:\n    /* \"#utility.yul\":2119:2218   */\n  swap2\n  pop\n    /* \"#utility.yul\":1942:2224   */\n  pop\n    /* \"#utility.yul\":1869:2224   */\n  swap3\n  swap2\n  pop\n  pop\n  jump\t// out\n    /* \"#utility.yul\":2230:2373   */\ntag_83:\n    /* \"#utility.yul\":2287:2292   */\n  0x00\n    /* \"#utility.yul\":2318:2324   */\n  dup2\n    /* \"#utility.yul\":2312:2325   */\n  mload\n    /* \"#utility.yul\":2303:2325   */\n  swap1\n  pop\n    /* \"#utility.yul\":2334:2367   */\n  tag_85\n    /* \"#utility.yul\":2361:2366   */\n  dup2\n    /* \"#utility.yul\":2334:2367   */\n  tag_86\n  jump\t// in\ntag_85:\n    /* \"#utility.yul\":2230:2373   */\n  swap3\n  swap2\n  pop\n  pop\n  jump\t// out\n    /* \"#utility.yul\":2379:3752   */\ntag_3:\n    /* \"#utility.yul\":2530:2536   */\n  0x00\n    /* \"#utility.yul\":2538:2544   */\n  dup1\n    /* \"#utility.yul\":2546:2552   */\n  0x00\n    /* \"#utility.yul\":2554:2560   */\n  dup1\n    /* \"#utility.yul\":2562:2568   */\n  0x00\n    /* \"#utility.yul\":2611:2614   */\n  0xa0\n    /* \"#utility.yul\":2599:2608   */\n  dup7\n    /* \"#utility.yul\":2590:2597   */\n  dup9\n    /* \"#utility.yul\":2586:2609   */\n  sub\n    /* \"#utility.yul\":2582:2615   */\n  slt\n    /* \"#utility.yul\":2579:2699   */\n  iszero\n  tag_88\n  jumpi\n    /* \"#utility.yul\":2618:2697   */\n  tag_89\n  tag_90\n  jump\t// in\ntag_89:\n    /* \"#utility.yul\":2579:2699   */\ntag_88:\n    /* \"#utility.yul\":2759:2760   */\n  0x00\n    /* \"#utility.yul\":2748:2757   */\n  dup7\n    /* \"#utility.yul\":2744:2761   */\n  add\n    /* \"#utility.yul\":2738:2762   */\n  mload\n    /* \"#utility.yul\":2789:2807   */\n  0xffffffffffffffff\n    /* \"#utility.yul\":2781:2787   */\n  dup2\n    /* \"#utility.yul\":2778:2808   */\n  gt\n    /* \"#utility.yul\":2775:2892   */\n  iszero\n  tag_91\n  jumpi\n    /* \"#utility.yul\":2811:2890   */\n  tag_92\n  tag_93\n  jump\t// in\ntag_92:\n    /* \"#utility.yul\":2775:2892   */\ntag_91:\n    /* \"#utility.yul\":2916:2990   */\n  tag_94\n    /* \"#utility.yul\":2982:2989   */\n  dup9\n    /* \"#utility.yul\":2973:2979   */\n  dup3\n    /* \"#utility.yul\":2962:2971   */\n  dup10\n    /* \"#utility.yul\":2958:2980   */\n  add\n    /* \"#utility.yul\":2916:2990   */\n  tag_63\n  jump\t// in\ntag_94:\n    /* \"#utility.yul\":2906:2990   */\n  swap6\n  pop\n    /* \"#utility.yul\":2709:3000   */\n  pop\n    /* \"#utility.yul\":3039:3041   */\n  0x20\n    /* \"#utility.yul\":3065:3129   */\n  tag_95\n    /* \"#utility.yul\":3121:3128   */\n  dup9\n    /* \"#utility.yul\":3112:3118   */\n  dup3\n    /* \"#utility.yul\":3101:3110   */\n  dup10\n    /* \"#utility.yul\":3097:3119   */\n  add\n    /* \"#utility.yul\":3065:3129   */\n  tag_83\n  jump\t// in\ntag_95:\n    /* \"#utility.yul\":3055:3129   */\n  swap5\n  pop\n    /* \"#utility.yul\":3010:3139   */\n  pop\n    /* \"#utility.yul\":3178:3180   */\n  0x40\n    /* \"#utility.yul\":3204:3268   */\n  tag_96\n    /* \"#utility.yul\":3260:3267   */\n  dup9\n    /* \"#utility.yul\":3251:3257   */\n  dup3\n    /* \"#utility.yul\":3240:3249   */\n  dup10\n    /* \"#utility.yul\":3236:3258   */\n  add\n    /* \"#utility.yul\":3204:3268   */\n  tag_83\n  jump\t// in\ntag_96:\n    /* \"#utility.yul\":3194:3268   */\n  swap4\n  pop\n    /* \"#utility.yul\":3149:3278   */\n  pop\n    /* \"#utility.yul\":3317:3319   */\n  0x60\n    /* \"#utility.yul\":3343:3407   */\n  tag_97\n    /* \"#utility.yul\":3399:3406   */\n  dup9\n    /* \"#utility.yul\":3390:3396   */\n  dup3\n    /* \"#utility.yul\":3379:3388   */\n  dup10\n    /* \"#utility.yul\":3375:3397   */\n  add\n    /* \"#utility.yul\":3343:3407   */\n  tag_83\n  jump\t// in\ntag_97:\n    /* \"#utility.yul\":3333:3407   */\n  swap3\n  pop\n    /* \"#utility.yul\":3288:3417   */\n  pop\n    /* \"#utility.yul\":3477:3480   */\n  0x80\n    /* \"#utility.yul\":3466:3475   */\n  dup7\n    /* \"#utility.yul\":3462:3481   */\n  add\n    /* \"#utility.yul\":3456:3482   */\n  mload\n    /* \"#utility.yul\":3509:3527   */\n  0xffffffffffffffff\n    /* \"#utility.yul\":3501:3507   */\n  dup2\n    /* \"#utility.yul\":3498:3528   */\n  gt\n    /* \"#utility.yul\":3495:3612   */\n  iszero\n  tag_98\n  jumpi\n    /* \"#utility.yul\":3531:3610   */\n  tag_99\n  tag_93\n  jump\t// in\ntag_99:\n    /* \"#utility.yul\":3495:3612   */\ntag_98:\n    /* \"#utility.yul\":3636:3735   */\n  tag_100\n    /* \"#utility.yul\":3727:3734   */\n  dup9\n    /* \"#utility.yul\":3718:3724   */\n  dup3\n    /* \"#utility.yul\":3707:3716   */\n  dup10\n    /* \"#utility.yul\":3703:3725   */\n  add\n    /* \"#utility.yul\":3636:3735   */\n  tag_74\n  jump\t// in\ntag_100:\n    /* \"#utility.yul\":3626:3735   */\n  swap2\n  pop\n    /* \"#utility.yul\":3427:3745   */\n  pop\n    /* \"#utility.yul\":2379:3752   */\n  swap3\n  swap6\n  pop\n  swap3\n  swap6\n  swap1\n  swap4\n  pop\n  jump\t// out\n    /* \"#utility.yul\":3758:4135   */\ntag_101:\n    /* \"#utility.yul\":3864:3867   */\n  0x00\n    /* \"#utility.yul\":3892:3931   */\n  tag_103\n    /* \"#utility.yul\":3925:3930   */\n  dup3\n    /* \"#utility.yul\":3892:3931   */\n  tag_104\n  jump\t// in\ntag_103:\n    /* \"#utility.yul\":3947:4036   */\n  tag_105\n    /* \"#utility.yul\":4029:4035   */\n  dup2\n    /* \"#utility.yul\":4024:4027   */\n  dup6\n    /* \"#utility.yul\":3947:4036   */\n  tag_106\n  jump\t// in\ntag_105:\n    /* \"#utility.yul\":3940:4036   */\n  swap4\n  pop\n    /* \"#utility.yul\":4045:4097   */\n  tag_107\n    /* \"#utility.yul\":4090:4096   */\n  dup2\n    /* \"#utility.yul\":4085:4088   */\n  dup6\n    /* \"#utility.yul\":4078:4082   */\n  0x20\n    /* \"#utility.yul\":4071:4076   */\n  dup7\n    /* \"#utility.yul\":4067:4083   */\n  add\n    /* \"#utility.yul\":4045:4097   */\n  tag_73\n  jump\t// in\ntag_107:\n    /* \"#utility.yul\":4122:4128   */\n  dup1\n    /* \"#utility.yul\":4117:4120   */\n  dup5\n    /* \"#utility.yul\":4113:4129   */\n  add\n    /* \"#utility.yul\":4106:4129   */\n  swap2\n  pop\n    /* \"#utility.yul\":3868:4135   */\n  pop\n    /* \"#utility.yul\":3758:4135   */\n  swap3\n  swap2\n  pop\n  pop\n  jump\t// out\n    /* \"#utility.yul\":4141:4416   */\ntag_13:\n    /* \"#utility.yul\":4273:4276   */\n  0x00\n    /* \"#utility.yul\":4295:4390   */\n  tag_109\n    /* \"#utility.yul\":4386:4389   */\n  dup3\n    /* \"#utility.yul\":4377:4383   */\n  dup5\n    /* \"#utility.yul\":4295:4390   */\n  tag_101\n  jump\t// in\ntag_109:\n    /* \"#utility.yul\":4288:4390   */\n  swap2\n  pop\n    /* \"#utility.yul\":4407:4410   */\n  dup2\n    /* \"#utility.yul\":4400:4410   */\n  swap1\n  pop\n    /* \"#utility.yul\":4141:4416   */\n  swap3\n  swap2\n  pop\n  pop\n  jump\t// out\n    /* \"#utility.yul\":4422:4551   */\ntag_52:\n    /* \"#utility.yul\":4456:4462   */\n  0x00\n    /* \"#utility.yul\":4483:4503   */\n  tag_111\n  tag_112\n  jump\t// in\ntag_111:\n    /* \"#utility.yul\":4473:4503   */\n  swap1\n  pop\n    /* \"#utility.yul\":4512:4545   */\n  tag_113\n    /* \"#utility.yul\":4540:4544   */\n  dup3\n    /* \"#utility.yul\":4532:4538   */\n  dup3\n    /* \"#utility.yul\":4512:4545   */\n  tag_114\n  jump\t// in\ntag_113:\n    /* \"#utility.yul\":4422:4551   */\n  swap2\n  swap1\n  pop\n  jump\t// out\n    /* \"#utility.yul\":4557:4632   */\ntag_112:\n    /* \"#utility.yul\":4590:4596   */\n  0x00\n    /* \"#utility.yul\":4623:4625   */\n  0x40\n    /* \"#utility.yul\":4617:4626   */\n  mload\n    /* \"#utility.yul\":4607:4626   */\n  swap1\n  pop\n    /* \"#utility.yul\":4557:4632   */\n  swap1\n  jump\t// out\n    /* \"#utility.yul\":4638:4959   */\ntag_51:\n    /* \"#utility.yul\":4725:4729   */\n  0x00\n    /* \"#utility.yul\":4815:4833   */\n  0xffffffffffffffff\n    /* \"#utility.yul\":4807:4813   */\n  dup3\n    /* \"#utility.yul\":4804:4834   */\n  gt\n    /* \"#utility.yul\":4801:4857   */\n  iszero\n  tag_117\n  jumpi\n    /* \"#utility.yul\":4837:4855   */\n  tag_118\n  tag_119\n  jump\t// in\ntag_118:\n    /* \"#utility.yul\":4801:4857   */\ntag_117:\n    /* \"#utility.yul\":4887:4891   */\n  0x20\n    /* \"#utility.yul\":4879:4885   */\n  dup3\n    /* \"#utility.yul\":4875:4892   */\n  mul\n    /* \"#utility.yul\":4867:4892   */\n  swap1\n  pop\n    /* \"#utility.yul\":4947:4951   */\n  0x20\n    /* \"#utility.yul\":4941:4945   */\n  dup2\n    /* \"#utility.yul\":4937:4952   */\n  add\n    /* \"#utility.yul\":4929:4952   */\n  swap1\n  pop\n    /* \"#utility.yul\":4638:4959   */\n  swap2\n  swap1\n  pop\n  jump\t// out\n    /* \"#utility.yul\":4965:5273   */\ntag_68:\n    /* \"#utility.yul\":5027:5031   */\n  0x00\n    /* \"#utility.yul\":5117:5135   */\n  0xffffffffffffffff\n    /* \"#utility.yul\":5109:5115   */\n  dup3\n    /* \"#utility.yul\":5106:5136   */\n  gt\n    /* \"#utility.yul\":5103:5159   */\n  iszero\n  tag_121\n  jumpi\n    /* \"#utility.yul\":5139:5157   */\n  tag_122\n  tag_119\n  jump\t// in\ntag_122:\n    /* \"#utility.yul\":5103:5159   */\ntag_121:\n    /* \"#utility.yul\":5177:5206   */\n  tag_123\n    /* \"#utility.yul\":5199:5205   */\n  dup3\n    /* \"#utility.yul\":5177:5206   */\n  tag_124\n  jump\t// in\ntag_123:\n    /* \"#utility.yul\":5169:5206   */\n  swap1\n  pop\n    /* \"#utility.yul\":5261:5265   */\n  0x20\n    /* \"#utility.yul\":5255:5259   */\n  dup2\n    /* \"#utility.yul\":5251:5266   */\n  add\n    /* \"#utility.yul\":5243:5266   */\n  swap1\n  pop\n    /* \"#utility.yul\":4965:5273   */\n  swap2\n  swap1\n  pop\n  jump\t// out\n    /* \"#utility.yul\":5279:5378   */\ntag_104:\n    /* \"#utility.yul\":5331:5337   */\n  0x00\n    /* \"#utility.yul\":5365:5370   */\n  dup2\n    /* \"#utility.yul\":5359:5371   */\n  mload\n    /* \"#utility.yul\":5349:5371   */\n  swap1\n  pop\n    /* \"#utility.yul\":5279:5378   */\n  swap2\n  swap1\n  pop\n  jump\t// out\n    /* \"#utility.yul\":5384:5532   */\ntag_106:\n    /* \"#utility.yul\":5486:5497   */\n  0x00\n    /* \"#utility.yul\":5523:5526   */\n  dup2\n    /* \"#utility.yul\":5508:5526   */\n  swap1\n  pop\n    /* \"#utility.yul\":5384:5532   */\n  swap3\n  swap2\n  pop\n  pop\n  jump\t// out\n    /* \"#utility.yul\":5538:5615   */\ntag_127:\n    /* \"#utility.yul\":5575:5582   */\n  0x00\n    /* \"#utility.yul\":5604:5609   */\n  dup2\n    /* \"#utility.yul\":5593:5609   */\n  swap1\n  pop\n    /* \"#utility.yul\":5538:5615   */\n  swap2\n  swap1\n  pop\n  jump\t// out\n    /* \"#utility.yul\":5621:5928   */\ntag_73:\n    /* \"#utility.yul\":5689:5690   */\n  0x00\n    /* \"#utility.yul\":5699:5812   */\ntag_130:\n    /* \"#utility.yul\":5713:5719   */\n  dup4\n    /* \"#utility.yul\":5710:5711   */\n  dup2\n    /* \"#utility.yul\":5707:5720   */\n  lt\n    /* \"#utility.yul\":5699:5812   */\n  iszero\n  tag_132\n  jumpi\n    /* \"#utility.yul\":5798:5799   */\n  dup1\n    /* \"#utility.yul\":5793:5796   */\n  dup3\n    /* \"#utility.yul\":5789:5800   */\n  add\n    /* \"#utility.yul\":5783:5801   */\n  mload\n    /* \"#utility.yul\":5779:5780   */\n  dup2\n    /* \"#utility.yul\":5774:5777   */\n  dup5\n    /* \"#utility.yul\":5770:5781   */\n  add\n    /* \"#utility.yul\":5763:5802   */\n  mstore\n    /* \"#utility.yul\":5735:5737   */\n  0x20\n    /* \"#utility.yul\":5732:5733   */\n  dup2\n    /* \"#utility.yul\":5728:5738   */\n  add\n    /* \"#utility.yul\":5723:5738   */\n  swap1\n  pop\n    /* \"#utility.yul\":5699:5812   */\n  jump(tag_130)\ntag_132:\n    /* \"#utility.yul\":5830:5836   */\n  dup4\n    /* \"#utility.yul\":5827:5828   */\n  dup2\n    /* \"#utility.yul\":5824:5837   */\n  gt\n    /* \"#utility.yul\":5821:5922   */\n  iszero\n  tag_133\n  jumpi\n    /* \"#utility.yul\":5910:5911   */\n  0x00\n    /* \"#utility.yul\":5901:5907   */\n  dup5\n    /* \"#utility.yul\":5896:5899   */\n  dup5\n    /* \"#utility.yul\":5892:5908   */\n  add\n    /* \"#utility.yul\":5885:5912   */\n  mstore\n    /* \"#utility.yul\":5821:5922   */\ntag_133:\n    /* \"#utility.yul\":5670:5928   */\n  pop\n    /* \"#utility.yul\":5621:5928   */\n  pop\n  pop\n  pop\n  jump\t// out\n    /* \"#utility.yul\":5934:6254   */\ntag_28:\n    /* \"#utility.yul\":5978:5984   */\n  0x00\n    /* \"#utility.yul\":6015:6016   */\n  0x02\n    /* \"#utility.yul\":6009:6013   */\n  dup3\n    /* \"#utility.yul\":6005:6017   */\n  div\n    /* \"#utility.yul\":5995:6017   */\n  swap1\n  pop\n    /* \"#utility.yul\":6062:6063   */\n  0x01\n    /* \"#utility.yul\":6056:6060   */\n  dup3\n    /* \"#utility.yul\":6052:6064   */\n  and\n    /* \"#utility.yul\":6083:6101   */\n  dup1\n    /* \"#utility.yul\":6073:6154   */\n  tag_135\n  jumpi\n    /* \"#utility.yul\":6139:6143   */\n  0x7f\n    /* \"#utility.yul\":6131:6137   */\n  dup3\n    /* \"#utility.yul\":6127:6144   */\n  and\n    /* \"#utility.yul\":6117:6144   */\n  swap2\n  pop\n    /* \"#utility.yul\":6073:6154   */\ntag_135:\n    /* \"#utility.yul\":6201:6203   */\n  0x20\n    /* \"#utility.yul\":6193:6199   */\n  dup3\n    /* \"#utility.yul\":6190:6204   */\n  lt\n    /* \"#utility.yul\":6170:6188   */\n  dup2\n    /* \"#utility.yul\":6167:6205   */\n  eq\n    /* \"#utility.yul\":6164:6248   */\n  iszero\n  tag_136\n  jumpi\n    /* \"#utility.yul\":6220:6238   */\n  tag_137\n  tag_138\n  jump\t// in\ntag_137:\n    /* \"#utility.yul\":6164:6248   */\ntag_136:\n    /* \"#utility.yul\":5985:6254   */\n  pop\n    /* \"#utility.yul\":5934:6254   */\n  swap2\n  swap1\n  pop\n  jump\t// out\n    /* \"#utility.yul\":6260:6541   */\ntag_114:\n    /* \"#utility.yul\":6343:6370   */\n  tag_140\n    /* \"#utility.yul\":6365:6369   */\n  dup3\n    /* \"#utility.yul\":6343:6370   */\n  tag_124\n  jump\t// in\ntag_140:\n    /* \"#utility.yul\":6335:6341   */\n  dup2\n    /* \"#utility.yul\":6331:6371   */\n  add\n    /* \"#utility.yul\":6473:6479   */\n  dup2\n    /* \"#utility.yul\":6461:6471   */\n  dup2\n    /* \"#utility.yul\":6458:6480   */\n  lt\n    /* \"#utility.yul\":6437:6455   */\n  0xffffffffffffffff\n    /* \"#utility.yul\":6425:6435   */\n  dup3\n    /* \"#utility.yul\":6422:6456   */\n  gt\n    /* \"#utility.yul\":6419:6481   */\n  or\n    /* \"#utility.yul\":6416:6504   */\n  iszero\n  tag_141\n  jumpi\n    /* \"#utility.yul\":6484:6502   */\n  tag_142\n  tag_119\n  jump\t// in\ntag_142:\n    /* \"#utility.yul\":6416:6504   */\ntag_141:\n    /* \"#utility.yul\":6524:6534   */\n  dup1\n    /* \"#utility.yul\":6520:6522   */\n  0x40\n    /* \"#utility.yul\":6513:6535   */\n  mstore\n    /* \"#utility.yul\":6303:6541   */\n  pop\n    /* \"#utility.yul\":6260:6541   */\n  pop\n  pop\n  jump\t// out\n    /* \"#utility.yul\":6547:6780   */\ntag_15:\n    /* \"#utility.yul\":6586:6589   */\n  0x00\n    /* \"#utility.yul\":6609:6633   */\n  tag_144\n    /* \"#utility.yul\":6627:6632   */\n  dup3\n    /* \"#utility.yul\":6609:6633   */\n  tag_127\n  jump\t// in\ntag_144:\n    /* \"#utility.yul\":6600:6633   */\n  swap2\n  pop\n    /* \"#utility.yul\":6655:6721   */\n  0xffffffffffffffffffffffffffffffffffffffffffffffffffffffffffffffff\n    /* \"#utility.yul\":6648:6653   */\n  dup3\n    /* \"#utility.yul\":6645:6722   */\n  eq\n    /* \"#utility.yul\":6642:6745   */\n  iszero\n  tag_145\n  jumpi\n    /* \"#utility.yul\":6725:6743   */\n  tag_146\n  tag_147\n  jump\t// in\ntag_146:\n    /* \"#utility.yul\":6642:6745   */\ntag_145:\n    /* \"#utility.yul\":6772:6773   */\n  0x01\n    /* \"#utility.yul\":6765:6770   */\n  dup3\n    /* \"#utility.yul\":6761:6774   */\n  add\n    /* \"#utility.yul\":6754:6774   */\n  swap1\n  pop\n    /* \"#utility.yul\":6547:6780   */\n  swap2\n  swap1\n  pop\n  jump\t// out\n    /* \"#utility.yul\":6786:6966   */\ntag_147:\n    /* \"#utility.yul\":6834:6911   */\n  0x4e487b7100000000000000000000000000000000000000000000000000000000\n    /* \"#utility.yul\":6831:6832   */\n  0x00\n    /* \"#utility.yul\":6824:6912   */\n  mstore\n    /* \"#utility.yul\":6931:6935   */\n  0x11\n    /* \"#utility.yul\":6928:6929   */\n  0x04\n    /* \"#utility.yul\":6921:6936   */\n  mstore\n    /* \"#utility.yul\":6955:6959   */\n  0x24\n    /* \"#utility.yul\":6952:6953   */\n  0x00\n    /* \"#utility.yul\":6945:6960   */\n  revert\n    /* \"#utility.yul\":6972:7152   */\ntag_138:\n    /* \"#utility.yul\":7020:7097   */\n  0x4e487b7100000000000000000000000000000000000000000000000000000000\n    /* \"#utility.yul\":7017:7018   */\n  0x00\n    /* \"#utility.yul\":7010:7098   */\n  mstore\n    /* \"#utility.yul\":7117:7121   */\n  0x22\n    /* \"#utility.yul\":7114:7115   */\n  0x04\n    /* \"#utility.yul\":7107:7122   */\n  mstore\n    /* \"#utility.yul\":7141:7145   */\n  0x24\n    /* \"#utility.yul\":7138:7139   */\n  0x00\n    /* \"#utility.yul\":7131:7146   */\n  revert\n    /* \"#utility.yul\":7158:7338   */\ntag_11:\n    /* \"#utility.yul\":7206:7283   */\n  0x4e487b7100000000000000000000000000000000000000000000000000000000\n    /* \"#utility.yul\":7203:7204   */\n  0x00\n    /* \"#utility.yul\":7196:7284   */\n  mstore\n    /* \"#utility.yul\":7303:7307   */\n  0x32\n    /* \"#utility.yul\":7300:7301   */\n  0x04\n    /* \"#utility.yul\":7293:7308   */\n  mstore\n    /* \"#utility.yul\":7327:7331   */\n  0x24\n    /* \"#utility.yul\":7324:7325   */\n  0x00\n    /* \"#utility.yul\":7317:7332   */\n  revert\n    /* \"#utility.yul\":7344:7524   */\ntag_119:\n    /* \"#utility.yul\":7392:7469   */\n  0x4e487b7100000000000000000000000000000000000000000000000000000000\n    /* \"#utility.yul\":7389:7390   */\n  0x00\n    /* \"#utility.yul\":7382:7470   */\n  mstore\n    /* \"#utility.yul\":7489:7493   */\n  0x41\n    /* \"#utility.yul\":7486:7487   */\n  0x04\n    /* \"#utility.yul\":7479:7494   */\n  mstore\n    /* \"#utility.yul\":7513:7517   */\n  0x24\n    /* \"#utility.yul\":7510:7511   */\n  0x00\n    /* \"#utility.yul\":7503:7518   */\n  revert\n    /* \"#utility.yul\":7530:7647   */\ntag_61:\n    /* \"#utility.yul\":7639:7640   */\n  0x00\n    /* \"#utility.yul\":7636:7637   */\n  dup1\n    /* \"#utility.yul\":7629:7641   */\n  revert\n    /* \"#utility.yul\":7653:7770   */\ntag_55:\n    /* \"#utility.yul\":7762:7763   */\n  0x00\n    /* \"#utility.yul\":7759:7760   */\n  dup1\n    /* \"#utility.yul\":7752:7764   */\n  revert\n    /* \"#utility.yul\":7776:7893   */\ntag_71:\n    /* \"#utility.yul\":7885:7886   */\n  0x00\n    /* \"#utility.yul\":7882:7883   */\n  dup1\n    /* \"#utility.yul\":7875:7887   */\n  revert\n    /* \"#utility.yul\":7899:8016   */\ntag_93:\n    /* \"#utility.yul\":8008:8009   */\n  0x00\n    /* \"#utility.yul\":8005:8006   */\n  dup1\n    /* \"#utility.yul\":7998:8010   */\n  revert\n    /* \"#utility.yul\":8022:8139   */\ntag_90:\n    /* \"#utility.yul\":8131:8132   */\n  0x00\n    /* \"#utility.yul\":8128:8129   */\n  dup1\n    /* \"#utility.yul\":8121:8133   */\n  revert\n    /* \"#utility.yul\":8145:8247   */\ntag_124:\n    /* \"#utility.yul\":8186:8192   */\n  0x00\n    /* \"#utility.yul\":8237:8239   */\n  0x1f\n    /* \"#utility.yul\":8233:8240   */\n  not\n    /* \"#utility.yul\":8228:8230   */\n  0x1f\n    /* \"#utility.yul\":8221:8226   */\n  dup4\n    /* \"#utility.yul\":8217:8231   */\n  add\n    /* \"#utility.yul\":8213:8241   */\n  and\n    /* \"#utility.yul\":8203:8241   */\n  swap1\n  pop\n    /* \"#utility.yul\":8145:8247   */\n  swap2\n  swap1\n  pop\n  jump\t// out\n    /* \"#utility.yul\":8253:8375   */\ntag_86:\n    /* \"#utility.yul\":8326:8350   */\n  tag_159\n    /* \"#utility.yul\":8344:8349   */\n  dup2\n    /* \"#utility.yul\":8326:8350   */\n  tag_127\n  jump\t// in\ntag_159:\n    /* \"#utility.yul\":8319:8324   */\n  dup2\n    /* \"#utility.yul\":8316:8351   */\n  eq\n    /* \"#utility.yul\":8306:8369   */\n  tag_160\n  jumpi\n    /* \"#utility.yul\":8365:8366   */\n  0x00\n    /* \"#utility.yul\":8362:8363   */\n  dup1\n    /* \"#utility.yul\":8355:8367   */\n  revert\n    /* \"#utility.yul\":8306:8369   */\ntag_160:\n    /* \"#utility.yul\":8253:8375   */\n  pop\n  jump\t// out\n    /* \"contracts/4_Voting.sol\":25:5145  contract Voting {... */\ntag_20:\n  dataSize(sub_0)\n  dup1\n  dataOffset(sub_0)\n  0x00\n  codecopy\n  0x00\n  return\nstop\n\nsub_0: assembly {\n        /* \"contracts/4_Voting.sol\":25:5145  contract Voting {... */\n      mstore(0x40, 0x80)\n      callvalue\n      dup1\n      iszero\n      tag_1\n      jumpi\n      0x00\n      dup1\n      revert\n    tag_1:\n      pop\n      jumpi(tag_2, lt(calldatasize, 0x04))\n      shr(0xe0, calldataload(0x00))\n      dup1\n      0x982eb6a9\n      gt\n      tag_17\n      jumpi\n      dup1\n      0xbbe4524e\n      gt\n      tag_18\n      jumpi\n      dup1\n      0xbbe4524e\n      eq\n      tag_13\n      jumpi\n      dup1\n      0xcfdd26ea\n      eq\n      tag_14\n      jumpi\n      dup1\n      0xf2fb7263\n      eq\n      tag_15\n      jumpi\n      dup1\n      0xfc36e15b\n      eq\n      tag_16\n      jumpi\n      jump(tag_2)\n    tag_18:\n      dup1\n      0x982eb6a9\n      eq\n      tag_10\n      jumpi\n      dup1\n      0xa8fdcd0f\n      eq\n      tag_11\n      jumpi\n      dup1\n      0xb64faa94\n      eq\n      tag_12\n      jumpi\n      jump(tag_2)\n    tag_17:\n      dup1\n      0x4d80a044\n      gt\n      tag_19\n      jumpi\n      dup1\n      0x4d80a044\n      eq\n      tag_6\n      jumpi\n      dup1\n      0x65372147\n      eq\n      tag_7\n      jumpi\n      dup1\n      0x87f7b975\n      eq\n      tag_8\n      jumpi\n      dup1\n      0x9714378c\n      eq\n      tag_9\n      jumpi\n      jump(tag_2)\n    tag_19:\n      dup1\n      0x2462c8d6\n      eq\n      tag_3\n      jumpi\n      dup1\n      0x2decc4d5\n      eq\n      tag_4\n      jumpi\n      dup1\n      0x4a79d50c\n      eq\n      tag_5\n      jumpi\n    tag_2:\n      0x00\n      dup1\n      revert\n        /* \"contracts/4_Voting.sol\":2205:2595  function no_winner() public view returns (bool) {... */\n    tag_3:\n      tag_20\n      tag_21\n      jump\t// in\n    tag_20:\n      mload(0x40)\n      tag_22\n      swap2\n      swap1\n      tag_23\n      jump\t// in\n    tag_22:\n      mload(0x40)\n      dup1\n      swap2\n      sub\n      swap1\n      return\n        /* \"contracts/4_Voting.sol\":1898:2199  function is_cancelled() public view returns (bool) {... */\n    tag_4:\n      tag_24\n      tag_25\n      jump\t// in\n    tag_24:\n      mload(0x40)\n      tag_26\n      swap2\n      swap1\n      tag_23\n      jump\t// in\n    tag_26:\n      mload(0x40)\n      dup1\n      swap2\n      sub\n      swap1\n      return\n        /* \"contracts/4_Voting.sol\":76:95  string public title */\n    tag_5:\n      tag_27\n      tag_28\n      jump\t// in\n    tag_27:\n      mload(0x40)\n      tag_29\n      swap2\n      swap1\n      tag_30\n      jump\t// in\n    tag_29:\n      mload(0x40)\n      dup1\n      swap2\n      sub\n      swap1\n      return\n        /* \"contracts/4_Voting.sol\":298:323  uint256 public max_voters */\n    tag_6:\n      tag_31\n      tag_32\n      jump\t// in\n    tag_31:\n      mload(0x40)\n      tag_33\n      swap2\n      swap1\n      tag_34\n      jump\t// in\n    tag_33:\n      mload(0x40)\n      dup1\n      swap2\n      sub\n      swap1\n      return\n        /* \"contracts/4_Voting.sol\":4374:5143  function result() public returns (string memory) {... */\n    tag_7:\n      tag_35\n      tag_36\n      jump\t// in\n    tag_35:\n      mload(0x40)\n      tag_37\n      swap2\n      swap1\n      tag_30\n      jump\t// in\n    tag_37:\n      mload(0x40)\n      dup1\n      swap2\n      sub\n      swap1\n      return\n        /* \"contracts/4_Voting.sol\":47:70  address public chairman */\n    tag_8:\n      tag_38\n      tag_39\n      jump\t// in\n    tag_38:\n      mload(0x40)\n      tag_40\n      swap2\n      swap1\n      tag_41\n      jump\t// in\n    tag_40:\n      mload(0x40)\n      dup1\n      swap2\n      sub\n      swap1\n      return\n        /* \"contracts/4_Voting.sol\":1059:1295  function extend(uint256 _end_time) public {... */\n    tag_9:\n      tag_42\n      0x04\n      dup1\n      calldatasize\n      sub\n      dup2\n      add\n      swap1\n      tag_43\n      swap2\n      swap1\n      tag_44\n      jump\t// in\n    tag_43:\n      tag_45\n      jump\t// in\n    tag_42:\n      stop\n        /* \"contracts/4_Voting.sol\":2602:3088  function enter_voters(address[] memory _voters) public {... */\n    tag_10:\n      tag_46\n      0x04\n      dup1\n      calldatasize\n      sub\n      dup2\n      add\n      swap1\n      tag_47\n      swap2\n      swap1\n      tag_48\n      jump\t// in\n    tag_47:\n      tag_49\n      jump\t// in\n    tag_46:\n      stop\n        /* \"contracts/4_Voting.sol\":3094:3473  function give_voter_right(address voter) public {... */\n    tag_11:\n      tag_50\n      0x04\n      dup1\n      calldatasize\n      sub\n      dup2\n      add\n      swap1\n      tag_51\n      swap2\n      swap1\n      tag_52\n      jump\t// in\n    tag_51:\n      tag_53\n      jump\t// in\n    tag_50:\n      stop\n        /* \"contracts/4_Voting.sol\":139:168  address[] public voters_array */\n    tag_12:\n      tag_54\n      0x04\n      dup1\n      calldatasize\n      sub\n      dup2\n      add\n      swap1\n      tag_55\n      swap2\n      swap1\n      tag_44\n      jump\t// in\n    tag_55:\n      tag_56\n      jump\t// in\n    tag_54:\n      mload(0x40)\n      tag_57\n      swap2\n      swap1\n      tag_41\n      jump\t// in\n    tag_57:\n      mload(0x40)\n      dup1\n      swap2\n      sub\n      swap1\n      return\n        /* \"contracts/4_Voting.sol\":438:461  string[] public candids */\n    tag_13:\n      tag_58\n      0x04\n      dup1\n      calldatasize\n      sub\n      dup2\n      add\n      swap1\n      tag_59\n      swap2\n      swap1\n      tag_44\n      jump\t// in\n    tag_59:\n      tag_60\n      jump\t// in\n    tag_58:\n      mload(0x40)\n      tag_61\n      swap2\n      swap1\n      tag_30\n      jump\t// in\n    tag_61:\n      mload(0x40)\n      dup1\n      swap2\n      sub\n      swap1\n      return\n        /* \"contracts/4_Voting.sol\":1301:1651  function is_repeated(address[] memory _voters) public view returns (bool) {... */\n    tag_14:\n      tag_62\n      0x04\n      dup1\n      calldatasize\n      sub\n      dup2\n      add\n      swap1\n      tag_63\n      swap2\n      swap1\n      tag_48\n      jump\t// in\n    tag_63:\n      tag_64\n      jump\t// in\n    tag_62:\n      mload(0x40)\n      tag_65\n      swap2\n      swap1\n      tag_23\n      jump\t// in\n    tag_65:\n      mload(0x40)\n      dup1\n      swap2\n      sub\n      swap1\n      return\n        /* \"contracts/4_Voting.sol\":1657:1892  function larger_than_max(address[] memory _voters)... */\n    tag_15:\n      tag_66\n      0x04\n      dup1\n      calldatasize\n      sub\n      dup2\n      add\n      swap1\n      tag_67\n      swap2\n      swap1\n      tag_48\n      jump\t// in\n    tag_67:\n      tag_68\n      jump\t// in\n    tag_66:\n      mload(0x40)\n      tag_69\n      swap2\n      swap1\n      tag_23\n      jump\t// in\n    tag_69:\n      mload(0x40)\n      dup1\n      swap2\n      sub\n      swap1\n      return\n        /* \"contracts/4_Voting.sol\":3479:4188  function vote(string memory _vote) public {... */\n    tag_16:\n      tag_70\n      0x04\n      dup1\n      calldatasize\n      sub\n      dup2\n      add\n      swap1\n      tag_71\n      swap2\n      swap1\n      tag_72\n      jump\t// in\n    tag_71:\n      tag_73\n      jump\t// in\n    tag_70:\n      stop\n        /* \"contracts/4_Voting.sol\":2205:2595  function no_winner() public view returns (bool) {... */\n    tag_21:\n        /* \"contracts/4_Voting.sol\":2247:2251  bool */\n      0x00\n        /* \"contracts/4_Voting.sol\":2268:2277  uint256 j */\n      dup1\n        /* \"contracts/4_Voting.sol\":2280:2281  0 */\n      0x00\n        /* \"contracts/4_Voting.sol\":2268:2281  uint256 j = 0 */\n      swap1\n      pop\n        /* \"contracts/4_Voting.sol\":2263:2567  for (uint256 j = 0; j < candids.length; j++) {... */\n    tag_75:\n        /* \"contracts/4_Voting.sol\":2287:2294  candids */\n      0x0d\n        /* \"contracts/4_Voting.sol\":2287:2301  candids.length */\n      dup1\n      sload\n      swap1\n      pop\n        /* \"contracts/4_Voting.sol\":2283:2284  j */\n      dup2\n        /* \"contracts/4_Voting.sol\":2283:2301  j < candids.length */\n      lt\n        /* \"contracts/4_Voting.sol\":2263:2567  for (uint256 j = 0; j < candids.length; j++) {... */\n      iszero\n      tag_76\n      jumpi\n        /* \"contracts/4_Voting.sol\":2400:2410  max_candid */\n      0x0b\n        /* \"contracts/4_Voting.sol\":2382:2412  abi.encodePacked((max_candid)) */\n      add(0x20, mload(0x40))\n      tag_78\n      swap2\n      swap1\n      tag_79\n      jump\t// in\n    tag_78:\n      mload(0x40)\n      0x20\n      dup2\n      dup4\n      sub\n      sub\n      dup2\n      mstore\n      swap1\n      0x40\n      mstore\n        /* \"contracts/4_Voting.sol\":2372:2413  keccak256(abi.encodePacked((max_candid))) */\n      dup1\n      mload\n      swap1\n      0x20\n      add\n      keccak256\n        /* \"contracts/4_Voting.sol\":2355:2362  candids */\n      0x0d\n        /* \"contracts/4_Voting.sol\":2363:2364  j */\n      dup3\n        /* \"contracts/4_Voting.sol\":2355:2365  candids[j] */\n      dup2\n      sload\n      dup2\n      lt\n      tag_80\n      jumpi\n      tag_81\n      tag_82\n      jump\t// in\n    tag_81:\n    tag_80:\n      swap1\n      0x00\n      mstore\n      keccak256(0x00, 0x20)\n      add\n        /* \"contracts/4_Voting.sol\":2337:2367  abi.encodePacked((candids[j])) */\n      add(0x20, mload(0x40))\n      tag_84\n      swap2\n      swap1\n      tag_79\n      jump\t// in\n    tag_84:\n      mload(0x40)\n      0x20\n      dup2\n      dup4\n      sub\n      sub\n      dup2\n      mstore\n      swap1\n      0x40\n      mstore\n        /* \"contracts/4_Voting.sol\":2327:2368  keccak256(abi.encodePacked((candids[j]))) */\n      dup1\n      mload\n      swap1\n      0x20\n      add\n      keccak256\n        /* \"contracts/4_Voting.sol\":2327:2413  keccak256(abi.encodePacked((candids[j]))) != keccak256(abi.encodePacked((max_candid))) */\n      eq\n        /* \"contracts/4_Voting.sol\":2322:2557  if ( keccak256(abi.encodePacked((candids[j]))) != keccak256(abi.encodePacked((max_candid))) ) {... */\n      tag_85\n      jumpi\n        /* \"contracts/4_Voting.sol\":2474:2489  max_candid_vote */\n      sload(0x0a)\n        /* \"contracts/4_Voting.sol\":2438:2458  votes_num_of_candids */\n      0x0c\n        /* \"contracts/4_Voting.sol\":2459:2466  candids */\n      0x0d\n        /* \"contracts/4_Voting.sol\":2467:2468  j */\n      dup4\n        /* \"contracts/4_Voting.sol\":2459:2469  candids[j] */\n      dup2\n      sload\n      dup2\n      lt\n      tag_86\n      jumpi\n      tag_87\n      tag_82\n      jump\t// in\n    tag_87:\n    tag_86:\n      swap1\n      0x00\n      mstore\n      keccak256(0x00, 0x20)\n      add\n        /* \"contracts/4_Voting.sol\":2438:2470  votes_num_of_candids[candids[j]] */\n      mload(0x40)\n      tag_89\n      swap2\n      swap1\n      tag_79\n      jump\t// in\n    tag_89:\n      swap1\n      dup2\n      mstore\n      0x20\n      add\n      mload(0x40)\n      dup1\n      swap2\n      sub\n      swap1\n      keccak256\n      sload\n        /* \"contracts/4_Voting.sol\":2438:2489  votes_num_of_candids[candids[j]] == max_candid_vote */\n      eq\n        /* \"contracts/4_Voting.sol\":2434:2543  if (votes_num_of_candids[candids[j]] == max_candid_vote) {... */\n      iszero\n      tag_90\n      jumpi\n        /* \"contracts/4_Voting.sol\":2520:2524  true */\n      0x01\n        /* \"contracts/4_Voting.sol\":2513:2524  return true */\n      swap2\n      pop\n      pop\n      jump(tag_74)\n        /* \"contracts/4_Voting.sol\":2434:2543  if (votes_num_of_candids[candids[j]] == max_candid_vote) {... */\n    tag_90:\n        /* \"contracts/4_Voting.sol\":2322:2557  if ( keccak256(abi.encodePacked((candids[j]))) != keccak256(abi.encodePacked((max_candid))) ) {... */\n    tag_85:\n        /* \"contracts/4_Voting.sol\":2303:2306  j++ */\n      dup1\n      dup1\n      tag_91\n      swap1\n      tag_92\n      jump\t// in\n    tag_91:\n      swap2\n      pop\n      pop\n        /* \"contracts/4_Voting.sol\":2263:2567  for (uint256 j = 0; j < candids.length; j++) {... */\n      jump(tag_75)\n    tag_76:\n      pop\n        /* \"contracts/4_Voting.sol\":2583:2588  false */\n      0x00\n        /* \"contracts/4_Voting.sol\":2576:2588  return false */\n      swap1\n      pop\n        /* \"contracts/4_Voting.sol\":2205:2595  function no_winner() public view returns (bool) {... */\n    tag_74:\n      swap1\n      jump\t// out\n        /* \"contracts/4_Voting.sol\":1898:2199  function is_cancelled() public view returns (bool) {... */\n    tag_25:\n        /* \"contracts/4_Voting.sol\":1943:1947  bool */\n      0x00\n        /* \"contracts/4_Voting.sol\":1959:1967  uint sum */\n      dup1\n        /* \"contracts/4_Voting.sol\":1968:1969  0 */\n      0x00\n        /* \"contracts/4_Voting.sol\":1959:1969  uint sum=0 */\n      swap1\n      pop\n        /* \"contracts/4_Voting.sol\":1984:1993  uint256 j */\n      0x00\n        /* \"contracts/4_Voting.sol\":1979:2086  for (uint256 j = 0; j < candids.length; j++) {... */\n    tag_94:\n        /* \"contracts/4_Voting.sol\":2003:2010  candids */\n      0x0d\n        /* \"contracts/4_Voting.sol\":2003:2017  candids.length */\n      dup1\n      sload\n      swap1\n      pop\n        /* \"contracts/4_Voting.sol\":1999:2000  j */\n      dup2\n        /* \"contracts/4_Voting.sol\":1999:2017  j < candids.length */\n      lt\n        /* \"contracts/4_Voting.sol\":1979:2086  for (uint256 j = 0; j < candids.length; j++) {... */\n      iszero\n      tag_95\n      jumpi\n        /* \"contracts/4_Voting.sol\":2043:2063  votes_num_of_candids */\n      0x0c\n        /* \"contracts/4_Voting.sol\":2064:2071  candids */\n      0x0d\n        /* \"contracts/4_Voting.sol\":2072:2073  j */\n      dup3\n        /* \"contracts/4_Voting.sol\":2064:2074  candids[j] */\n      dup2\n      sload\n      dup2\n      lt\n      tag_97\n      jumpi\n      tag_98\n      tag_82\n      jump\t// in\n    tag_98:\n    tag_97:\n      swap1\n      0x00\n      mstore\n      keccak256(0x00, 0x20)\n      add\n        /* \"contracts/4_Voting.sol\":2043:2075  votes_num_of_candids[candids[j]] */\n      mload(0x40)\n      tag_100\n      swap2\n      swap1\n      tag_79\n      jump\t// in\n    tag_100:\n      swap1\n      dup2\n      mstore\n      0x20\n      add\n      mload(0x40)\n      dup1\n      swap2\n      sub\n      swap1\n      keccak256\n      sload\n        /* \"contracts/4_Voting.sol\":2038:2075  sum+=votes_num_of_candids[candids[j]] */\n      dup3\n      tag_101\n      swap2\n      swap1\n      tag_102\n      jump\t// in\n    tag_101:\n      swap2\n      pop\n        /* \"contracts/4_Voting.sol\":2019:2022  j++ */\n      dup1\n      dup1\n      tag_103\n      swap1\n      tag_92\n      jump\t// in\n    tag_103:\n      swap2\n      pop\n      pop\n        /* \"contracts/4_Voting.sol\":1979:2086  for (uint256 j = 0; j < candids.length; j++) {... */\n      jump(tag_94)\n    tag_95:\n      pop\n        /* \"contracts/4_Voting.sol\":2114:2115  2 */\n      0x02\n        /* \"contracts/4_Voting.sol\":2103:2113  max_voters */\n      sload(0x09)\n        /* \"contracts/4_Voting.sol\":2103:2115  max_voters/2 */\n      tag_104\n      swap2\n      swap1\n      tag_105\n      jump\t// in\n    tag_104:\n        /* \"contracts/4_Voting.sol\":2098:2101  sum */\n      dup2\n        /* \"contracts/4_Voting.sol\":2098:2115  sum<=max_voters/2 */\n      gt\n        /* \"contracts/4_Voting.sol\":2095:2193  if(sum<=max_voters/2){... */\n      tag_106\n      jumpi\n        /* \"contracts/4_Voting.sol\":2137:2141  true */\n      0x01\n        /* \"contracts/4_Voting.sol\":2130:2141  return true */\n      swap2\n      pop\n      pop\n      jump(tag_93)\n        /* \"contracts/4_Voting.sol\":2095:2193  if(sum<=max_voters/2){... */\n    tag_106:\n        /* \"contracts/4_Voting.sol\":2177:2182  false */\n      0x00\n        /* \"contracts/4_Voting.sol\":2170:2182  return false */\n      swap2\n      pop\n      pop\n        /* \"contracts/4_Voting.sol\":1898:2199  function is_cancelled() public view returns (bool) {... */\n    tag_93:\n      swap1\n      jump\t// out\n        /* \"contracts/4_Voting.sol\":76:95  string public title */\n    tag_28:\n      0x01\n      dup1\n      sload\n      tag_108\n      swap1\n      tag_109\n      jump\t// in\n    tag_108:\n      dup1\n      0x1f\n      add\n      0x20\n      dup1\n      swap2\n      div\n      mul\n      0x20\n      add\n      mload(0x40)\n      swap1\n      dup2\n      add\n      0x40\n      mstore\n      dup1\n      swap3\n      swap2\n      swap1\n      dup2\n      dup2\n      mstore\n      0x20\n      add\n      dup3\n      dup1\n      sload\n      tag_110\n      swap1\n      tag_109\n      jump\t// in\n    tag_110:\n      dup1\n      iszero\n      tag_111\n      jumpi\n      dup1\n      0x1f\n      lt\n      tag_112\n      jumpi\n      0x0100\n      dup1\n      dup4\n      sload\n      div\n      mul\n      dup4\n      mstore\n      swap2\n      0x20\n      add\n      swap2\n      jump(tag_111)\n    tag_112:\n      dup3\n      add\n      swap2\n      swap1\n      0x00\n      mstore\n      keccak256(0x00, 0x20)\n      swap1\n    tag_113:\n      dup2\n      sload\n      dup2\n      mstore\n      swap1\n      0x01\n      add\n      swap1\n      0x20\n      add\n      dup1\n      dup4\n      gt\n      tag_113\n      jumpi\n      dup3\n      swap1\n      sub\n      0x1f\n      and\n      dup3\n      add\n      swap2\n    tag_111:\n      pop\n      pop\n      pop\n      pop\n      pop\n      dup2\n      jump\t// out\n        /* \"contracts/4_Voting.sol\":298:323  uint256 public max_voters */\n    tag_32:\n      sload(0x09)\n      dup2\n      jump\t// out\n        /* \"contracts/4_Voting.sol\":4374:5143  function result() public returns (string memory) {... */\n    tag_36:\n        /* \"contracts/4_Voting.sol\":4408:4421  string memory */\n      0x60\n        /* \"contracts/4_Voting.sol\":4534:4544  start_time */\n      sload(0x07)\n        /* \"contracts/4_Voting.sol\":4515:4530  block.timestamp */\n      timestamp\n        /* \"contracts/4_Voting.sol\":4515:4544  block.timestamp >= start_time */\n      lt\n      iszero\n        /* \"contracts/4_Voting.sol\":4494:4608  require(... */\n      tag_115\n      jumpi\n      mload(0x40)\n      0x08c379a000000000000000000000000000000000000000000000000000000000\n      dup2\n      mstore\n      0x04\n      add\n      tag_116\n      swap1\n      tag_117\n      jump\t// in\n    tag_116:\n      mload(0x40)\n      dup1\n      swap2\n      sub\n      swap1\n      revert\n    tag_115:\n        /* \"contracts/4_Voting.sol\":4644:4652  end_time */\n      sload(0x08)\n        /* \"contracts/4_Voting.sol\":4626:4641  block.timestamp */\n      timestamp\n        /* \"contracts/4_Voting.sol\":4626:4652  block.timestamp > end_time */\n      gt\n        /* \"contracts/4_Voting.sol\":4618:4689  require(block.timestamp > end_time, \"THE ELECTION HAS NOT BEEN ENDED!\") */\n      tag_118\n      jumpi\n      mload(0x40)\n      0x08c379a000000000000000000000000000000000000000000000000000000000\n      dup2\n      mstore\n      0x04\n      add\n      tag_119\n      swap1\n      tag_120\n      jump\t// in\n    tag_119:\n      mload(0x40)\n      dup1\n      swap2\n      sub\n      swap1\n      revert\n    tag_118:\n        /* \"contracts/4_Voting.sol\":4712:4719  candids */\n      0x0d\n        /* \"contracts/4_Voting.sol\":4720:4721  0 */\n      0x00\n        /* \"contracts/4_Voting.sol\":4712:4722  candids[0] */\n      dup2\n      sload\n      dup2\n      lt\n      tag_121\n      jumpi\n      tag_122\n      tag_82\n      jump\t// in\n    tag_122:\n    tag_121:\n      swap1\n      0x00\n      mstore\n      keccak256(0x00, 0x20)\n      add\n        /* \"contracts/4_Voting.sol\":4699:4709  max_candid */\n      0x0b\n        /* \"contracts/4_Voting.sol\":4699:4722  max_candid = candids[0] */\n      swap1\n      dup1\n      sload\n      tag_124\n      swap1\n      tag_109\n      jump\t// in\n    tag_124:\n      tag_125\n      swap3\n      swap2\n      swap1\n      tag_126\n      jump\t// in\n    tag_125:\n      pop\n        /* \"contracts/4_Voting.sol\":4737:4746  uint256 j */\n      0x00\n        /* \"contracts/4_Voting.sol\":4749:4750  1 */\n      0x01\n        /* \"contracts/4_Voting.sol\":4737:4750  uint256 j = 1 */\n      swap1\n      pop\n        /* \"contracts/4_Voting.sol\":4732:4981  for (uint256 j = 1; j < candids.length; j++) {... */\n    tag_127:\n        /* \"contracts/4_Voting.sol\":4756:4763  candids */\n      0x0d\n        /* \"contracts/4_Voting.sol\":4756:4770  candids.length */\n      dup1\n      sload\n      swap1\n      pop\n        /* \"contracts/4_Voting.sol\":4752:4753  j */\n      dup2\n        /* \"contracts/4_Voting.sol\":4752:4770  j < candids.length */\n      lt\n        /* \"contracts/4_Voting.sol\":4732:4981  for (uint256 j = 1; j < candids.length; j++) {... */\n      iszero\n      tag_128\n      jumpi\n        /* \"contracts/4_Voting.sol\":4830:4845  max_candid_vote */\n      sload(0x0a)\n        /* \"contracts/4_Voting.sol\":4795:4815  votes_num_of_candids */\n      0x0c\n        /* \"contracts/4_Voting.sol\":4816:4823  candids */\n      0x0d\n        /* \"contracts/4_Voting.sol\":4824:4825  j */\n      dup4\n        /* \"contracts/4_Voting.sol\":4816:4826  candids[j] */\n      dup2\n      sload\n      dup2\n      lt\n      tag_130\n      jumpi\n      tag_131\n      tag_82\n      jump\t// in\n    tag_131:\n    tag_130:\n      swap1\n      0x00\n      mstore\n      keccak256(0x00, 0x20)\n      add\n        /* \"contracts/4_Voting.sol\":4795:4827  votes_num_of_candids[candids[j]] */\n      mload(0x40)\n      tag_133\n      swap2\n      swap1\n      tag_79\n      jump\t// in\n    tag_133:\n      swap1\n      dup2\n      mstore\n      0x20\n      add\n      mload(0x40)\n      dup1\n      swap2\n      sub\n      swap1\n      keccak256\n      sload\n        /* \"contracts/4_Voting.sol\":4795:4845  votes_num_of_candids[candids[j]] > max_candid_vote */\n      gt\n        /* \"contracts/4_Voting.sol\":4791:4971  if (votes_num_of_candids[candids[j]] > max_candid_vote) {... */\n      iszero\n      tag_134\n      jumpi\n        /* \"contracts/4_Voting.sol\":4883:4903  votes_num_of_candids */\n      0x0c\n        /* \"contracts/4_Voting.sol\":4904:4911  candids */\n      0x0d\n        /* \"contracts/4_Voting.sol\":4912:4913  j */\n      dup3\n        /* \"contracts/4_Voting.sol\":4904:4914  candids[j] */\n      dup2\n      sload\n      dup2\n      lt\n      tag_135\n      jumpi\n      tag_136\n      tag_82\n      jump\t// in\n    tag_136:\n    tag_135:\n      swap1\n      0x00\n      mstore\n      keccak256(0x00, 0x20)\n      add\n        /* \"contracts/4_Voting.sol\":4883:4915  votes_num_of_candids[candids[j]] */\n      mload(0x40)\n      tag_138\n      swap2\n      swap1\n      tag_79\n      jump\t// in\n    tag_138:\n      swap1\n      dup2\n      mstore\n      0x20\n      add\n      mload(0x40)\n      dup1\n      swap2\n      sub\n      swap1\n      keccak256\n      sload\n        /* \"contracts/4_Voting.sol\":4865:4880  max_candid_vote */\n      0x0a\n        /* \"contracts/4_Voting.sol\":4865:4915  max_candid_vote = votes_num_of_candids[candids[j]] */\n      dup2\n      swap1\n      sstore\n      pop\n        /* \"contracts/4_Voting.sol\":4946:4953  candids */\n      0x0d\n        /* \"contracts/4_Voting.sol\":4954:4955  j */\n      dup2\n        /* \"contracts/4_Voting.sol\":4946:4956  candids[j] */\n      dup2\n      sload\n      dup2\n      lt\n      tag_139\n      jumpi\n      tag_140\n      tag_82\n      jump\t// in\n    tag_140:\n    tag_139:\n      swap1\n      0x00\n      mstore\n      keccak256(0x00, 0x20)\n      add\n        /* \"contracts/4_Voting.sol\":4933:4943  max_candid */\n      0x0b\n        /* \"contracts/4_Voting.sol\":4933:4956  max_candid = candids[j] */\n      swap1\n      dup1\n      sload\n      tag_142\n      swap1\n      tag_109\n      jump\t// in\n    tag_142:\n      tag_143\n      swap3\n      swap2\n      swap1\n      tag_126\n      jump\t// in\n    tag_143:\n      pop\n        /* \"contracts/4_Voting.sol\":4791:4971  if (votes_num_of_candids[candids[j]] > max_candid_vote) {... */\n    tag_134:\n        /* \"contracts/4_Voting.sol\":4772:4775  j++ */\n      dup1\n      dup1\n      tag_144\n      swap1\n      tag_92\n      jump\t// in\n    tag_144:\n      swap2\n      pop\n      pop\n        /* \"contracts/4_Voting.sol\":4732:4981  for (uint256 j = 1; j < candids.length; j++) {... */\n      jump(tag_127)\n    tag_128:\n      pop\n        /* \"contracts/4_Voting.sol\":5034:5048  is_cancelled() */\n      tag_145\n        /* \"contracts/4_Voting.sol\":5034:5046  is_cancelled */\n      tag_25\n        /* \"contracts/4_Voting.sol\":5034:5048  is_cancelled() */\n      jump\t// in\n    tag_145:\n        /* \"contracts/4_Voting.sol\":5033:5048  !is_cancelled() */\n      iszero\n        /* \"contracts/4_Voting.sol\":5025:5065  require(!is_cancelled(),\"is cancelled!\") */\n      tag_146\n      jumpi\n      mload(0x40)\n      0x08c379a000000000000000000000000000000000000000000000000000000000\n      dup2\n      mstore\n      0x04\n      add\n      tag_147\n      swap1\n      tag_148\n      jump\t// in\n    tag_147:\n      mload(0x40)\n      dup1\n      swap2\n      sub\n      swap1\n      revert\n    tag_146:\n        /* \"contracts/4_Voting.sol\":5084:5095  no_winner() */\n      tag_149\n        /* \"contracts/4_Voting.sol\":5084:5093  no_winner */\n      tag_21\n        /* \"contracts/4_Voting.sol\":5084:5095  no_winner() */\n      jump\t// in\n    tag_149:\n        /* \"contracts/4_Voting.sol\":5083:5095  !no_winner() */\n      iszero\n        /* \"contracts/4_Voting.sol\":5075:5109  require(!no_winner(),\"NO WINNER!\") */\n      tag_150\n      jumpi\n      mload(0x40)\n      0x08c379a000000000000000000000000000000000000000000000000000000000\n      dup2\n      mstore\n      0x04\n      add\n      tag_151\n      swap1\n      tag_152\n      jump\t// in\n    tag_151:\n      mload(0x40)\n      dup1\n      swap2\n      sub\n      swap1\n      revert\n    tag_150:\n        /* \"contracts/4_Voting.sol\":5126:5136  max_candid */\n      0x0b\n        /* \"contracts/4_Voting.sol\":5119:5136  return max_candid */\n      dup1\n      sload\n      tag_153\n      swap1\n      tag_109\n      jump\t// in\n    tag_153:\n      dup1\n      0x1f\n      add\n      0x20\n      dup1\n      swap2\n      div\n      mul\n      0x20\n      add\n      mload(0x40)\n      swap1\n      dup2\n      add\n      0x40\n      mstore\n      dup1\n      swap3\n      swap2\n      swap1\n      dup2\n      dup2\n      mstore\n      0x20\n      add\n      dup3\n      dup1\n      sload\n      tag_154\n      swap1\n      tag_109\n      jump\t// in\n    tag_154:\n      dup1\n      iszero\n      tag_155\n      jumpi\n      dup1\n      0x1f\n      lt\n      tag_156\n      jumpi\n      0x0100\n      dup1\n      dup4\n      sload\n      div\n      mul\n      dup4\n      mstore\n      swap2\n      0x20\n      add\n      swap2\n      jump(tag_155)\n    tag_156:\n      dup3\n      add\n      swap2\n      swap1\n      0x00\n      mstore\n      keccak256(0x00, 0x20)\n      swap1\n    tag_157:\n      dup2\n      sload\n      dup2\n      mstore\n      swap1\n      0x01\n      add\n      swap1\n      0x20\n      add\n      dup1\n      dup4\n      gt\n      tag_157\n      jumpi\n      dup3\n      swap1\n      sub\n      0x1f\n      and\n      dup3\n      add\n      swap2\n    tag_155:\n      pop\n      pop\n      pop\n      pop\n      pop\n      swap1\n      pop\n        /* \"contracts/4_Voting.sol\":4374:5143  function result() public returns (string memory) {... */\n      swap1\n      jump\t// out\n        /* \"contracts/4_Voting.sol\":47:70  address public chairman */\n    tag_39:\n      0x00\n      dup1\n      sload\n      swap1\n      0x0100\n      exp\n      swap1\n      div\n      0xffffffffffffffffffffffffffffffffffffffff\n      and\n      dup2\n      jump\t// out\n        /* \"contracts/4_Voting.sol\":1059:1295  function extend(uint256 _end_time) public {... */\n    tag_45:\n        /* \"contracts/4_Voting.sol\":1133:1141  chairman */\n      0x00\n      dup1\n      sload\n      swap1\n      0x0100\n      exp\n      swap1\n      div\n      0xffffffffffffffffffffffffffffffffffffffff\n      and\n        /* \"contracts/4_Voting.sol\":1119:1141  msg.sender == chairman */\n      0xffffffffffffffffffffffffffffffffffffffff\n      and\n        /* \"contracts/4_Voting.sol\":1119:1129  msg.sender */\n      caller\n        /* \"contracts/4_Voting.sol\":1119:1141  msg.sender == chairman */\n      0xffffffffffffffffffffffffffffffffffffffff\n      and\n      eq\n        /* \"contracts/4_Voting.sol\":1111:1180  require(msg.sender == chairman, \"only chairman can extend the time!\") */\n      tag_159\n      jumpi\n      mload(0x40)\n      0x08c379a000000000000000000000000000000000000000000000000000000000\n      dup2\n      mstore\n      0x04\n      add\n      tag_160\n      swap1\n      tag_161\n      jump\t// in\n    tag_160:\n      mload(0x40)\n      dup1\n      swap2\n      sub\n      swap1\n      revert\n    tag_159:\n        /* \"contracts/4_Voting.sol\":1217:1225  end_time */\n      sload(0x08)\n        /* \"contracts/4_Voting.sol\":1198:1213  block.timestamp */\n      timestamp\n        /* \"contracts/4_Voting.sol\":1198:1225  block.timestamp <= end_time */\n      gt\n      iszero\n        /* \"contracts/4_Voting.sol\":1190:1258  require(block.timestamp <= end_time, \"THE ELECTION HAS BEEN ENDED!\") */\n      tag_162\n      jumpi\n      mload(0x40)\n      0x08c379a000000000000000000000000000000000000000000000000000000000\n      dup2\n      mstore\n      0x04\n      add\n      tag_163\n      swap1\n      tag_164\n      jump\t// in\n    tag_163:\n      mload(0x40)\n      dup1\n      swap2\n      sub\n      swap1\n      revert\n    tag_162:\n        /* \"contracts/4_Voting.sol\":1279:1288  _end_time */\n      dup1\n        /* \"contracts/4_Voting.sol\":1268:1276  end_time */\n      0x08\n        /* \"contracts/4_Voting.sol\":1268:1288  end_time = _end_time */\n      dup2\n      swap1\n      sstore\n      pop\n        /* \"contracts/4_Voting.sol\":1059:1295  function extend(uint256 _end_time) public {... */\n      pop\n      jump\t// out\n        /* \"contracts/4_Voting.sol\":2602:3088  function enter_voters(address[] memory _voters) public {... */\n    tag_49:\n        /* \"contracts/4_Voting.sol\":2689:2697  chairman */\n      0x00\n      dup1\n      sload\n      swap1\n      0x0100\n      exp\n      swap1\n      div\n      0xffffffffffffffffffffffffffffffffffffffff\n      and\n        /* \"contracts/4_Voting.sol\":2675:2697  msg.sender == chairman */\n      0xffffffffffffffffffffffffffffffffffffffff\n      and\n        /* \"contracts/4_Voting.sol\":2675:2685  msg.sender */\n      caller\n        /* \"contracts/4_Voting.sol\":2675:2697  msg.sender == chairman */\n      0xffffffffffffffffffffffffffffffffffffffff\n      and\n      eq\n        /* \"contracts/4_Voting.sol\":2667:2733  require(msg.sender == chairman, \"only chairman can enter voters!\") */\n      tag_166\n      jumpi\n      mload(0x40)\n      0x08c379a000000000000000000000000000000000000000000000000000000000\n      dup2\n      mstore\n      0x04\n      add\n      tag_167\n      swap1\n      tag_168\n      jump\t// in\n    tag_167:\n      mload(0x40)\n      dup1\n      swap2\n      sub\n      swap1\n      revert\n    tag_166:\n        /* \"contracts/4_Voting.sol\":2770:2778  end_time */\n      sload(0x08)\n        /* \"contracts/4_Voting.sol\":2751:2766  block.timestamp */\n      timestamp\n        /* \"contracts/4_Voting.sol\":2751:2778  block.timestamp <= end_time */\n      gt\n      iszero\n        /* \"contracts/4_Voting.sol\":2743:2811  require(block.timestamp <= end_time, \"THE ELECTION HAS BEEN ENDED!\") */\n      tag_169\n      jumpi\n      mload(0x40)\n      0x08c379a000000000000000000000000000000000000000000000000000000000\n      dup2\n      mstore\n      0x04\n      add\n      tag_170\n      swap1\n      tag_164\n      jump\t// in\n    tag_170:\n      mload(0x40)\n      dup1\n      swap2\n      sub\n      swap1\n      revert\n    tag_169:\n        /* \"contracts/4_Voting.sol\":2830:2850  is_repeated(_voters) */\n      tag_171\n        /* \"contracts/4_Voting.sol\":2842:2849  _voters */\n      dup2\n        /* \"contracts/4_Voting.sol\":2830:2841  is_repeated */\n      tag_64\n        /* \"contracts/4_Voting.sol\":2830:2850  is_repeated(_voters) */\n      jump\t// in\n    tag_171:\n        /* \"contracts/4_Voting.sol\":2829:2850  !is_repeated(_voters) */\n      iszero\n        /* \"contracts/4_Voting.sol\":2821:2867  require(!is_repeated(_voters), \"IS REPEATED!\") */\n      tag_172\n      jumpi\n      mload(0x40)\n      0x08c379a000000000000000000000000000000000000000000000000000000000\n      dup2\n      mstore\n      0x04\n      add\n      tag_173\n      swap1\n      tag_174\n      jump\t// in\n    tag_173:\n      mload(0x40)\n      dup1\n      swap2\n      sub\n      swap1\n      revert\n    tag_172:\n        /* \"contracts/4_Voting.sol\":2886:2910  larger_than_max(_voters) */\n      tag_175\n        /* \"contracts/4_Voting.sol\":2902:2909  _voters */\n      dup2\n        /* \"contracts/4_Voting.sol\":2886:2901  larger_than_max */\n      tag_68\n        /* \"contracts/4_Voting.sol\":2886:2910  larger_than_max(_voters) */\n      jump\t// in\n    tag_175:\n        /* \"contracts/4_Voting.sol\":2885:2910  !larger_than_max(_voters) */\n      iszero\n        /* \"contracts/4_Voting.sol\":2877:2931  require(!larger_than_max(_voters), \"LARGER THAN MAX!\") */\n      tag_176\n      jumpi\n      mload(0x40)\n      0x08c379a000000000000000000000000000000000000000000000000000000000\n      dup2\n      mstore\n      0x04\n      add\n      tag_177\n      swap1\n      tag_178\n      jump\t// in\n    tag_177:\n      mload(0x40)\n      dup1\n      swap2\n      sub\n      swap1\n      revert\n    tag_176:\n        /* \"contracts/4_Voting.sol\":2946:2955  uint256 i */\n      0x00\n        /* \"contracts/4_Voting.sol\":2941:3082  for (uint256 i = 0; i < _voters.length; i++) {... */\n    tag_179:\n        /* \"contracts/4_Voting.sol\":2965:2972  _voters */\n      dup2\n        /* \"contracts/4_Voting.sol\":2965:2979  _voters.length */\n      mload\n        /* \"contracts/4_Voting.sol\":2961:2962  i */\n      dup2\n        /* \"contracts/4_Voting.sol\":2961:2979  i < _voters.length */\n      lt\n        /* \"contracts/4_Voting.sol\":2941:3082  for (uint256 i = 0; i < _voters.length; i++) {... */\n      iszero\n      tag_180\n      jumpi\n        /* \"contracts/4_Voting.sol\":3000:3012  voters_array */\n      0x03\n        /* \"contracts/4_Voting.sol\":3018:3025  _voters */\n      dup3\n        /* \"contracts/4_Voting.sol\":3026:3027  i */\n      dup3\n        /* \"contracts/4_Voting.sol\":3018:3028  _voters[i] */\n      dup2\n      mload\n      dup2\n      lt\n      tag_182\n      jumpi\n      tag_183\n      tag_82\n      jump\t// in\n    tag_183:\n    tag_182:\n      0x20\n      mul\n      0x20\n      add\n      add\n      mload\n        /* \"contracts/4_Voting.sol\":3000:3029  voters_array.push(_voters[i]) */\n      swap1\n      dup1\n      0x01\n      dup2\n      sload\n      add\n      dup1\n      dup3\n      sstore\n      dup1\n      swap2\n      pop\n      pop\n      0x01\n      swap1\n      sub\n      swap1\n      0x00\n      mstore\n      keccak256(0x00, 0x20)\n      add\n      0x00\n      swap1\n      swap2\n      swap1\n      swap2\n      swap1\n      swap2\n      0x0100\n      exp\n      dup2\n      sload\n      dup2\n      0xffffffffffffffffffffffffffffffffffffffff\n      mul\n      not\n      and\n      swap1\n      dup4\n      0xffffffffffffffffffffffffffffffffffffffff\n      and\n      mul\n      or\n      swap1\n      sstore\n      pop\n        /* \"contracts/4_Voting.sol\":3043:3071  give_voter_right(_voters[i]) */\n      tag_185\n        /* \"contracts/4_Voting.sol\":3060:3067  _voters */\n      dup3\n        /* \"contracts/4_Voting.sol\":3068:3069  i */\n      dup3\n        /* \"contracts/4_Voting.sol\":3060:3070  _voters[i] */\n      dup2\n      mload\n      dup2\n      lt\n      tag_186\n      jumpi\n      tag_187\n      tag_82\n      jump\t// in\n    tag_187:\n    tag_186:\n      0x20\n      mul\n      0x20\n      add\n      add\n      mload\n        /* \"contracts/4_Voting.sol\":3043:3059  give_voter_right */\n      tag_53\n        /* \"contracts/4_Voting.sol\":3043:3071  give_voter_right(_voters[i]) */\n      jump\t// in\n    tag_185:\n        /* \"contracts/4_Voting.sol\":2981:2984  i++ */\n      dup1\n      dup1\n      tag_188\n      swap1\n      tag_92\n      jump\t// in\n    tag_188:\n      swap2\n      pop\n      pop\n        /* \"contracts/4_Voting.sol\":2941:3082  for (uint256 i = 0; i < _voters.length; i++) {... */\n      jump(tag_179)\n    tag_180:\n      pop\n        /* \"contracts/4_Voting.sol\":2602:3088  function enter_voters(address[] memory _voters) public {... */\n      pop\n      jump\t// out\n        /* \"contracts/4_Voting.sol\":3094:3473  function give_voter_right(address voter) public {... */\n    tag_53:\n        /* \"contracts/4_Voting.sol\":3234:3242  chairman */\n      0x00\n      dup1\n      sload\n      swap1\n      0x0100\n      exp\n      swap1\n      div\n      0xffffffffffffffffffffffffffffffffffffffff\n      and\n        /* \"contracts/4_Voting.sol\":3220:3242  msg.sender == chairman */\n      0xffffffffffffffffffffffffffffffffffffffff\n      and\n        /* \"contracts/4_Voting.sol\":3220:3230  msg.sender */\n      caller\n        /* \"contracts/4_Voting.sol\":3220:3242  msg.sender == chairman */\n      0xffffffffffffffffffffffffffffffffffffffff\n      and\n      eq\n        /* \"contracts/4_Voting.sol\":3212:3283  require(msg.sender == chairman, \"only chairman can give right to vote\") */\n      tag_190\n      jumpi\n      mload(0x40)\n      0x08c379a000000000000000000000000000000000000000000000000000000000\n      dup2\n      mstore\n      0x04\n      add\n      tag_191\n      swap1\n      tag_192\n      jump\t// in\n    tag_191:\n      mload(0x40)\n      dup1\n      swap2\n      sub\n      swap1\n      revert\n    tag_190:\n        /* \"contracts/4_Voting.sol\":3320:3328  end_time */\n      sload(0x08)\n        /* \"contracts/4_Voting.sol\":3301:3316  block.timestamp */\n      timestamp\n        /* \"contracts/4_Voting.sol\":3301:3328  block.timestamp <= end_time */\n      gt\n      iszero\n        /* \"contracts/4_Voting.sol\":3293:3361  require(block.timestamp <= end_time, \"THE ELECTION HAS BEEN ENDED!\") */\n      tag_193\n      jumpi\n      mload(0x40)\n      0x08c379a000000000000000000000000000000000000000000000000000000000\n      dup2\n      mstore\n      0x04\n      add\n      tag_194\n      swap1\n      tag_164\n      jump\t// in\n    tag_194:\n      mload(0x40)\n      dup1\n      swap2\n      sub\n      swap1\n      revert\n    tag_193:\n        /* \"contracts/4_Voting.sol\":3380:3386  voters */\n      0x02\n        /* \"contracts/4_Voting.sol\":3380:3393  voters[voter] */\n      0x00\n        /* \"contracts/4_Voting.sol\":3387:3392  voter */\n      dup3\n        /* \"contracts/4_Voting.sol\":3380:3393  voters[voter] */\n      0xffffffffffffffffffffffffffffffffffffffff\n      and\n      0xffffffffffffffffffffffffffffffffffffffff\n      and\n      dup2\n      mstore\n      0x20\n      add\n      swap1\n      dup2\n      mstore\n      0x20\n      add\n      0x00\n      keccak256\n        /* \"contracts/4_Voting.sol\":3380:3399  voters[voter].voted */\n      0x00\n      add\n      0x01\n      swap1\n      sload\n      swap1\n      0x0100\n      exp\n      swap1\n      div\n      0xff\n      and\n        /* \"contracts/4_Voting.sol\":3379:3399  !voters[voter].voted */\n      iszero\n        /* \"contracts/4_Voting.sol\":3371:3427  require(!voters[voter].voted, \"the voter already voted\") */\n      tag_195\n      jumpi\n      mload(0x40)\n      0x08c379a000000000000000000000000000000000000000000000000000000000\n      dup2\n      mstore\n      0x04\n      add\n      tag_196\n      swap1\n      tag_197\n      jump\t// in\n    tag_196:\n      mload(0x40)\n      dup1\n      swap2\n      sub\n      swap1\n      revert\n    tag_195:\n        /* \"contracts/4_Voting.sol\":3462:3466  true */\n      0x01\n        /* \"contracts/4_Voting.sol\":3437:3443  voters */\n      0x02\n        /* \"contracts/4_Voting.sol\":3437:3450  voters[voter] */\n      0x00\n        /* \"contracts/4_Voting.sol\":3444:3449  voter */\n      dup4\n        /* \"contracts/4_Voting.sol\":3437:3450  voters[voter] */\n      0xffffffffffffffffffffffffffffffffffffffff\n      and\n      0xffffffffffffffffffffffffffffffffffffffff\n      and\n      dup2\n      mstore\n      0x20\n      add\n      swap1\n      dup2\n      mstore\n      0x20\n      add\n      0x00\n      keccak256\n        /* \"contracts/4_Voting.sol\":3437:3459  voters[voter].can_vote */\n      0x00\n      add\n      0x00\n        /* \"contracts/4_Voting.sol\":3437:3466  voters[voter].can_vote = true */\n      0x0100\n      exp\n      dup2\n      sload\n      dup2\n      0xff\n      mul\n      not\n      and\n      swap1\n      dup4\n      iszero\n      iszero\n      mul\n      or\n      swap1\n      sstore\n      pop\n        /* \"contracts/4_Voting.sol\":3094:3473  function give_voter_right(address voter) public {... */\n      pop\n      jump\t// out\n        /* \"contracts/4_Voting.sol\":139:168  address[] public voters_array */\n    tag_56:\n      0x03\n      dup2\n      dup2\n      sload\n      dup2\n      lt\n      tag_198\n      jumpi\n      0x00\n      dup1\n      revert\n    tag_198:\n      swap1\n      0x00\n      mstore\n      keccak256(0x00, 0x20)\n      add\n      0x00\n      swap2\n      pop\n      sload\n      swap1\n      0x0100\n      exp\n      swap1\n      div\n      0xffffffffffffffffffffffffffffffffffffffff\n      and\n      dup2\n      jump\t// out\n        /* \"contracts/4_Voting.sol\":438:461  string[] public candids */\n    tag_60:\n      0x0d\n      dup2\n      dup2\n      sload\n      dup2\n      lt\n      tag_200\n      jumpi\n      0x00\n      dup1\n      revert\n    tag_200:\n      swap1\n      0x00\n      mstore\n      keccak256(0x00, 0x20)\n      add\n      0x00\n      swap2\n      pop\n      swap1\n      pop\n      dup1\n      sload\n      tag_202\n      swap1\n      tag_109\n      jump\t// in\n    tag_202:\n      dup1\n      0x1f\n      add\n      0x20\n      dup1\n      swap2\n      div\n      mul\n      0x20\n      add\n      mload(0x40)\n      swap1\n      dup2\n      add\n      0x40\n      mstore\n      dup1\n      swap3\n      swap2\n      swap1\n      dup2\n      dup2\n      mstore\n      0x20\n      add\n      dup3\n      dup1\n      sload\n      tag_203\n      swap1\n      tag_109\n      jump\t// in\n    tag_203:\n      dup1\n      iszero\n      tag_204\n      jumpi\n      dup1\n      0x1f\n      lt\n      tag_205\n      jumpi\n      0x0100\n      dup1\n      dup4\n      sload\n      div\n      mul\n      dup4\n      mstore\n      swap2\n      0x20\n      add\n      swap2\n      jump(tag_204)\n    tag_205:\n      dup3\n      add\n      swap2\n      swap1\n      0x00\n      mstore\n      keccak256(0x00, 0x20)\n      swap1\n    tag_206:\n      dup2\n      sload\n      dup2\n      mstore\n      swap1\n      0x01\n      add\n      swap1\n      0x20\n      add\n      dup1\n      dup4\n      gt\n      tag_206\n      jumpi\n      dup3\n      swap1\n      sub\n      0x1f\n      and\n      dup3\n      add\n      swap2\n    tag_204:\n      pop\n      pop\n      pop\n      pop\n      pop\n      dup2\n      jump\t// out\n        /* \"contracts/4_Voting.sol\":1301:1651  function is_repeated(address[] memory _voters) public view returns (bool) {... */\n    tag_64:\n        /* \"contracts/4_Voting.sol\":1369:1373  bool */\n      0x00\n        /* \"contracts/4_Voting.sol\":1390:1399  uint256 i */\n      dup1\n        /* \"contracts/4_Voting.sol\":1402:1403  0 */\n      0x00\n        /* \"contracts/4_Voting.sol\":1390:1403  uint256 i = 0 */\n      swap1\n      pop\n        /* \"contracts/4_Voting.sol\":1385:1623  for (uint256 i = 0; i < _voters.length; i++) {... */\n    tag_208:\n        /* \"contracts/4_Voting.sol\":1409:1416  _voters */\n      dup3\n        /* \"contracts/4_Voting.sol\":1409:1423  _voters.length */\n      mload\n        /* \"contracts/4_Voting.sol\":1405:1406  i */\n      dup2\n        /* \"contracts/4_Voting.sol\":1405:1423  i < _voters.length */\n      lt\n        /* \"contracts/4_Voting.sol\":1385:1623  for (uint256 i = 0; i < _voters.length; i++) {... */\n      iszero\n      tag_209\n      jumpi\n        /* \"contracts/4_Voting.sol\":1449:1458  uint256 j */\n      0x00\n        /* \"contracts/4_Voting.sol\":1444:1613  for (uint256 j = 0; j < voters_array.length; j++) {... */\n    tag_211:\n        /* \"contracts/4_Voting.sol\":1468:1480  voters_array */\n      0x03\n        /* \"contracts/4_Voting.sol\":1468:1487  voters_array.length */\n      dup1\n      sload\n      swap1\n      pop\n        /* \"contracts/4_Voting.sol\":1464:1465  j */\n      dup2\n        /* \"contracts/4_Voting.sol\":1464:1487  j < voters_array.length */\n      lt\n        /* \"contracts/4_Voting.sol\":1444:1613  for (uint256 j = 0; j < voters_array.length; j++) {... */\n      iszero\n      tag_212\n      jumpi\n        /* \"contracts/4_Voting.sol\":1530:1542  voters_array */\n      0x03\n        /* \"contracts/4_Voting.sol\":1543:1544  j */\n      dup2\n        /* \"contracts/4_Voting.sol\":1530:1545  voters_array[j] */\n      dup2\n      sload\n      dup2\n      lt\n      tag_214\n      jumpi\n      tag_215\n      tag_82\n      jump\t// in\n    tag_215:\n    tag_214:\n      swap1\n      0x00\n      mstore\n      keccak256(0x00, 0x20)\n      add\n      0x00\n      swap1\n      sload\n      swap1\n      0x0100\n      exp\n      swap1\n      div\n      0xffffffffffffffffffffffffffffffffffffffff\n      and\n        /* \"contracts/4_Voting.sol\":1516:1545  _voters[i] == voters_array[j] */\n      0xffffffffffffffffffffffffffffffffffffffff\n      and\n        /* \"contracts/4_Voting.sol\":1516:1523  _voters */\n      dup5\n        /* \"contracts/4_Voting.sol\":1524:1525  i */\n      dup4\n        /* \"contracts/4_Voting.sol\":1516:1526  _voters[i] */\n      dup2\n      mload\n      dup2\n      lt\n      tag_217\n      jumpi\n      tag_218\n      tag_82\n      jump\t// in\n    tag_218:\n    tag_217:\n      0x20\n      mul\n      0x20\n      add\n      add\n      mload\n        /* \"contracts/4_Voting.sol\":1516:1545  _voters[i] == voters_array[j] */\n      0xffffffffffffffffffffffffffffffffffffffff\n      and\n      eq\n        /* \"contracts/4_Voting.sol\":1512:1599  if (_voters[i] == voters_array[j]) {... */\n      iszero\n      tag_219\n      jumpi\n        /* \"contracts/4_Voting.sol\":1576:1580  true */\n      0x01\n        /* \"contracts/4_Voting.sol\":1569:1580  return true */\n      swap3\n      pop\n      pop\n      pop\n      jump(tag_207)\n        /* \"contracts/4_Voting.sol\":1512:1599  if (_voters[i] == voters_array[j]) {... */\n    tag_219:\n        /* \"contracts/4_Voting.sol\":1489:1492  j++ */\n      dup1\n      dup1\n      tag_220\n      swap1\n      tag_92\n      jump\t// in\n    tag_220:\n      swap2\n      pop\n      pop\n        /* \"contracts/4_Voting.sol\":1444:1613  for (uint256 j = 0; j < voters_array.length; j++) {... */\n      jump(tag_211)\n    tag_212:\n      pop\n        /* \"contracts/4_Voting.sol\":1425:1428  i++ */\n      dup1\n      dup1\n      tag_221\n      swap1\n      tag_92\n      jump\t// in\n    tag_221:\n      swap2\n      pop\n      pop\n        /* \"contracts/4_Voting.sol\":1385:1623  for (uint256 i = 0; i < _voters.length; i++) {... */\n      jump(tag_208)\n    tag_209:\n      pop\n        /* \"contracts/4_Voting.sol\":1639:1644  false */\n      0x00\n        /* \"contracts/4_Voting.sol\":1632:1644  return false */\n      swap1\n      pop\n        /* \"contracts/4_Voting.sol\":1301:1651  function is_repeated(address[] memory _voters) public view returns (bool) {... */\n    tag_207:\n      swap2\n      swap1\n      pop\n      jump\t// out\n        /* \"contracts/4_Voting.sol\":1657:1892  function larger_than_max(address[] memory _voters)... */\n    tag_68:\n        /* \"contracts/4_Voting.sol\":1753:1757  bool */\n      0x00\n        /* \"contracts/4_Voting.sol\":1816:1826  max_voters */\n      sload(0x09)\n        /* \"contracts/4_Voting.sol\":1799:1806  _voters */\n      dup3\n        /* \"contracts/4_Voting.sol\":1799:1813  _voters.length */\n      mload\n        /* \"contracts/4_Voting.sol\":1777:1789  voters_array */\n      0x03\n        /* \"contracts/4_Voting.sol\":1777:1796  voters_array.length */\n      dup1\n      sload\n      swap1\n      pop\n        /* \"contracts/4_Voting.sol\":1777:1813  voters_array.length + _voters.length */\n      tag_223\n      swap2\n      swap1\n      tag_102\n      jump\t// in\n    tag_223:\n        /* \"contracts/4_Voting.sol\":1777:1826  voters_array.length + _voters.length > max_voters */\n      gt\n        /* \"contracts/4_Voting.sol\":1773:1864  if (voters_array.length + _voters.length > max_voters) {... */\n      iszero\n      tag_224\n      jumpi\n        /* \"contracts/4_Voting.sol\":1849:1853  true */\n      0x01\n        /* \"contracts/4_Voting.sol\":1842:1853  return true */\n      swap1\n      pop\n      jump(tag_222)\n        /* \"contracts/4_Voting.sol\":1773:1864  if (voters_array.length + _voters.length > max_voters) {... */\n    tag_224:\n        /* \"contracts/4_Voting.sol\":1880:1885  false */\n      0x00\n        /* \"contracts/4_Voting.sol\":1873:1885  return false */\n      swap1\n      pop\n        /* \"contracts/4_Voting.sol\":1657:1892  function larger_than_max(address[] memory _voters)... */\n    tag_222:\n      swap2\n      swap1\n      pop\n      jump\t// out\n        /* \"contracts/4_Voting.sol\":3479:4188  function vote(string memory _vote) public {... */\n    tag_73:\n        /* \"contracts/4_Voting.sol\":3631:3641  start_time */\n      sload(0x07)\n        /* \"contracts/4_Voting.sol\":3612:3627  block.timestamp */\n      timestamp\n        /* \"contracts/4_Voting.sol\":3612:3641  block.timestamp >= start_time */\n      lt\n      iszero\n        /* \"contracts/4_Voting.sol\":3591:3705  require(... */\n      tag_226\n      jumpi\n      mload(0x40)\n      0x08c379a000000000000000000000000000000000000000000000000000000000\n      dup2\n      mstore\n      0x04\n      add\n      tag_227\n      swap1\n      tag_117\n      jump\t// in\n    tag_227:\n      mload(0x40)\n      dup1\n      swap2\n      sub\n      swap1\n      revert\n    tag_226:\n        /* \"contracts/4_Voting.sol\":3742:3750  end_time */\n      sload(0x08)\n        /* \"contracts/4_Voting.sol\":3723:3738  block.timestamp */\n      timestamp\n        /* \"contracts/4_Voting.sol\":3723:3750  block.timestamp <= end_time */\n      gt\n      iszero\n        /* \"contracts/4_Voting.sol\":3715:3783  require(block.timestamp <= end_time, \"THE ELECTION HAS BEEN ENDED!\") */\n      tag_228\n      jumpi\n      mload(0x40)\n      0x08c379a000000000000000000000000000000000000000000000000000000000\n      dup2\n      mstore\n      0x04\n      add\n      tag_229\n      swap1\n      tag_164\n      jump\t// in\n    tag_229:\n      mload(0x40)\n      dup1\n      swap2\n      sub\n      swap1\n      revert\n    tag_228:\n        /* \"contracts/4_Voting.sol\":3793:3813  Voter storage sender */\n      0x00\n        /* \"contracts/4_Voting.sol\":3816:3822  voters */\n      0x02\n        /* \"contracts/4_Voting.sol\":3816:3834  voters[msg.sender] */\n      0x00\n        /* \"contracts/4_Voting.sol\":3823:3833  msg.sender */\n      caller\n        /* \"contracts/4_Voting.sol\":3816:3834  voters[msg.sender] */\n      0xffffffffffffffffffffffffffffffffffffffff\n      and\n      0xffffffffffffffffffffffffffffffffffffffff\n      and\n      dup2\n      mstore\n      0x20\n      add\n      swap1\n      dup2\n      mstore\n      0x20\n      add\n      0x00\n      keccak256\n        /* \"contracts/4_Voting.sol\":3793:3834  Voter storage sender = voters[msg.sender] */\n      swap1\n      pop\n        /* \"contracts/4_Voting.sol\":3852:3858  sender */\n      dup1\n        /* \"contracts/4_Voting.sol\":3852:3867  sender.can_vote */\n      0x00\n      add\n      0x00\n      swap1\n      sload\n      swap1\n      0x0100\n      exp\n      swap1\n      div\n      0xff\n      and\n        /* \"contracts/4_Voting.sol\":3844:3899  require(sender.can_vote, \"He/She has no right to vote\") */\n      tag_230\n      jumpi\n      mload(0x40)\n      0x08c379a000000000000000000000000000000000000000000000000000000000\n      dup2\n      mstore\n      0x04\n      add\n      tag_231\n      swap1\n      tag_232\n      jump\t// in\n    tag_231:\n      mload(0x40)\n      dup1\n      swap2\n      sub\n      swap1\n      revert\n    tag_230:\n        /* \"contracts/4_Voting.sol\":3918:3924  sender */\n      dup1\n        /* \"contracts/4_Voting.sol\":3918:3930  sender.voted */\n      0x00\n      add\n      0x01\n      swap1\n      sload\n      swap1\n      0x0100\n      exp\n      swap1\n      div\n      0xff\n      and\n        /* \"contracts/4_Voting.sol\":3917:3930  !sender.voted */\n      iszero\n        /* \"contracts/4_Voting.sol\":3909:3948  require(!sender.voted, \"Already voted\") */\n      tag_233\n      jumpi\n      mload(0x40)\n      0x08c379a000000000000000000000000000000000000000000000000000000000\n      dup2\n      mstore\n      0x04\n      add\n      tag_234\n      swap1\n      tag_235\n      jump\t// in\n    tag_234:\n      mload(0x40)\n      dup1\n      swap2\n      sub\n      swap1\n      revert\n    tag_233:\n        /* \"contracts/4_Voting.sol\":3974:3978  true */\n      0x01\n        /* \"contracts/4_Voting.sol\":3959:3965  sender */\n      dup2\n        /* \"contracts/4_Voting.sol\":3959:3971  sender.voted */\n      0x00\n      add\n      0x01\n        /* \"contracts/4_Voting.sol\":3959:3978  sender.voted = true */\n      0x0100\n      exp\n      dup2\n      sload\n      dup2\n      0xff\n      mul\n      not\n      and\n      swap1\n      dup4\n      iszero\n      iszero\n      mul\n      or\n      swap1\n      sstore\n      pop\n        /* \"contracts/4_Voting.sol\":3988:4008  votes_num_of_candids */\n      0x0c\n        /* \"contracts/4_Voting.sol\":4009:4014  _vote */\n      dup3\n        /* \"contracts/4_Voting.sol\":3988:4015  votes_num_of_candids[_vote] */\n      mload(0x40)\n      tag_236\n      swap2\n      swap1\n      tag_237\n      jump\t// in\n    tag_236:\n      swap1\n      dup2\n      mstore\n      0x20\n      add\n      mload(0x40)\n      dup1\n      swap2\n      sub\n      swap1\n      keccak256\n      0x00\n        /* \"contracts/4_Voting.sol\":3988:4017  votes_num_of_candids[_vote]++ */\n      dup2\n      sload\n      dup1\n      swap3\n      swap2\n      swap1\n      tag_238\n      swap1\n      tag_92\n      jump\t// in\n    tag_238:\n      swap2\n      swap1\n      pop\n      sstore\n      pop\n        /* \"contracts/4_Voting.sol\":3521:4188  {... */\n      pop\n        /* \"contracts/4_Voting.sol\":3479:4188  function vote(string memory _vote) public {... */\n      pop\n      jump\t// out\n    tag_126:\n      dup3\n      dup1\n      sload\n      tag_239\n      swap1\n      tag_109\n      jump\t// in\n    tag_239:\n      swap1\n      0x00\n      mstore\n      keccak256(0x00, 0x20)\n      swap1\n      0x1f\n      add\n      0x20\n      swap1\n      div\n      dup2\n      add\n      swap3\n      dup3\n      tag_241\n      jumpi\n      0x00\n      dup6\n      sstore\n      jump(tag_240)\n    tag_241:\n      dup3\n      0x1f\n      lt\n      tag_242\n      jumpi\n      dup1\n      sload\n      dup6\n      sstore\n      jump(tag_240)\n    tag_242:\n      dup3\n      dup1\n      add\n      0x01\n      add\n      dup6\n      sstore\n      dup3\n      iszero\n      tag_240\n      jumpi\n      0x00\n      mstore\n      keccak256(0x00, 0x20)\n      swap2\n      0x1f\n      add\n      0x20\n      swap1\n      div\n      dup3\n      add\n    tag_243:\n      dup3\n      dup2\n      gt\n      iszero\n      tag_244\n      jumpi\n      dup3\n      sload\n      dup3\n      sstore\n      swap2\n      0x01\n      add\n      swap2\n      swap1\n      0x01\n      add\n      swap1\n      jump(tag_243)\n    tag_244:\n    tag_240:\n      pop\n      swap1\n      pop\n      tag_245\n      swap2\n      swap1\n      tag_246\n      jump\t// in\n    tag_245:\n      pop\n      swap1\n      jump\t// out\n    tag_246:\n    tag_247:\n      dup1\n      dup3\n      gt\n      iszero\n      tag_248\n      jumpi\n      0x00\n      dup2\n      0x00\n      swap1\n      sstore\n      pop\n      0x01\n      add\n      jump(tag_247)\n    tag_248:\n      pop\n      swap1\n      jump\t// out\n        /* \"#utility.yul\":24:746   */\n    tag_250:\n        /* \"#utility.yul\":120:125   */\n      0x00\n        /* \"#utility.yul\":145:226   */\n      tag_252\n        /* \"#utility.yul\":161:225   */\n      tag_253\n        /* \"#utility.yul\":218:224   */\n      dup5\n        /* \"#utility.yul\":161:225   */\n      tag_254\n      jump\t// in\n    tag_253:\n        /* \"#utility.yul\":145:226   */\n      tag_255\n      jump\t// in\n    tag_252:\n        /* \"#utility.yul\":136:226   */\n      swap1\n      pop\n        /* \"#utility.yul\":246:251   */\n      dup1\n        /* \"#utility.yul\":275:281   */\n      dup4\n        /* \"#utility.yul\":268:273   */\n      dup3\n        /* \"#utility.yul\":261:282   */\n      mstore\n        /* \"#utility.yul\":309:313   */\n      0x20\n        /* \"#utility.yul\":302:307   */\n      dup3\n        /* \"#utility.yul\":298:314   */\n      add\n        /* \"#utility.yul\":291:314   */\n      swap1\n      pop\n        /* \"#utility.yul\":335:341   */\n      dup3\n        /* \"#utility.yul\":385:388   */\n      dup6\n        /* \"#utility.yul\":377:381   */\n      0x20\n        /* \"#utility.yul\":369:375   */\n      dup7\n        /* \"#utility.yul\":365:382   */\n      mul\n        /* \"#utility.yul\":360:363   */\n      dup3\n        /* \"#utility.yul\":356:383   */\n      add\n        /* \"#utility.yul\":353:389   */\n      gt\n        /* \"#utility.yul\":350:493   */\n      iszero\n      tag_256\n      jumpi\n        /* \"#utility.yul\":404:483   */\n      tag_257\n      tag_258\n      jump\t// in\n    tag_257:\n        /* \"#utility.yul\":350:493   */\n    tag_256:\n        /* \"#utility.yul\":517:518   */\n      0x00\n        /* \"#utility.yul\":502:740   */\n    tag_259:\n        /* \"#utility.yul\":527:533   */\n      dup6\n        /* \"#utility.yul\":524:525   */\n      dup2\n        /* \"#utility.yul\":521:534   */\n      lt\n        /* \"#utility.yul\":502:740   */\n      iszero\n      tag_261\n      jumpi\n        /* \"#utility.yul\":595:598   */\n      dup2\n        /* \"#utility.yul\":624:661   */\n      tag_262\n        /* \"#utility.yul\":657:660   */\n      dup9\n        /* \"#utility.yul\":645:655   */\n      dup3\n        /* \"#utility.yul\":624:661   */\n      tag_263\n      jump\t// in\n    tag_262:\n        /* \"#utility.yul\":619:622   */\n      dup5\n        /* \"#utility.yul\":612:662   */\n      mstore\n        /* \"#utility.yul\":691:695   */\n      0x20\n        /* \"#utility.yul\":686:689   */\n      dup5\n        /* \"#utility.yul\":682:696   */\n      add\n        /* \"#utility.yul\":675:696   */\n      swap4\n      pop\n        /* \"#utility.yul\":725:729   */\n      0x20\n        /* \"#utility.yul\":720:723   */\n      dup4\n        /* \"#utility.yul\":716:730   */\n      add\n        /* \"#utility.yul\":709:730   */\n      swap3\n      pop\n        /* \"#utility.yul\":562:740   */\n      pop\n        /* \"#utility.yul\":549:550   */\n      0x01\n        /* \"#utility.yul\":546:547   */\n      dup2\n        /* \"#utility.yul\":542:551   */\n      add\n        /* \"#utility.yul\":537:551   */\n      swap1\n      pop\n        /* \"#utility.yul\":502:740   */\n      jump(tag_259)\n    tag_261:\n        /* \"#utility.yul\":506:520   */\n      pop\n        /* \"#utility.yul\":126:746   */\n      pop\n      pop\n        /* \"#utility.yul\":24:746   */\n      swap4\n      swap3\n      pop\n      pop\n      pop\n      jump\t// out\n        /* \"#utility.yul\":752:1164   */\n    tag_264:\n        /* \"#utility.yul\":830:835   */\n      0x00\n        /* \"#utility.yul\":855:921   */\n      tag_266\n        /* \"#utility.yul\":871:920   */\n      tag_267\n        /* \"#utility.yul\":913:919   */\n      dup5\n        /* \"#utility.yul\":871:920   */\n      tag_268\n      jump\t// in\n    tag_267:\n        /* \"#utility.yul\":855:921   */\n      tag_255\n      jump\t// in\n    tag_266:\n        /* \"#utility.yul\":846:921   */\n      swap1\n      pop\n        /* \"#utility.yul\":944:950   */\n      dup3\n        /* \"#utility.yul\":937:942   */\n      dup2\n        /* \"#utility.yul\":930:951   */\n      mstore\n        /* \"#utility.yul\":982:986   */\n      0x20\n        /* \"#utility.yul\":975:980   */\n      dup2\n        /* \"#utility.yul\":971:987   */\n      add\n        /* \"#utility.yul\":1020:1023   */\n      dup5\n        /* \"#utility.yul\":1011:1017   */\n      dup5\n        /* \"#utility.yul\":1006:1009   */\n      dup5\n        /* \"#utility.yul\":1002:1018   */\n      add\n        /* \"#utility.yul\":999:1024   */\n      gt\n        /* \"#utility.yul\":996:1108   */\n      iszero\n      tag_269\n      jumpi\n        /* \"#utility.yul\":1027:1106   */\n      tag_270\n      tag_271\n      jump\t// in\n    tag_270:\n        /* \"#utility.yul\":996:1108   */\n    tag_269:\n        /* \"#utility.yul\":1117:1158   */\n      tag_272\n        /* \"#utility.yul\":1151:1157   */\n      dup5\n        /* \"#utility.yul\":1146:1149   */\n      dup3\n        /* \"#utility.yul\":1141:1144   */\n      dup6\n        /* \"#utility.yul\":1117:1158   */\n      tag_273\n      jump\t// in\n    tag_272:\n        /* \"#utility.yul\":836:1164   */\n      pop\n        /* \"#utility.yul\":752:1164   */\n      swap4\n      swap3\n      pop\n      pop\n      pop\n      jump\t// out\n        /* \"#utility.yul\":1170:1309   */\n    tag_263:\n        /* \"#utility.yul\":1216:1221   */\n      0x00\n        /* \"#utility.yul\":1254:1260   */\n      dup2\n        /* \"#utility.yul\":1241:1261   */\n      calldataload\n        /* \"#utility.yul\":1232:1261   */\n      swap1\n      pop\n        /* \"#utility.yul\":1270:1303   */\n      tag_275\n        /* \"#utility.yul\":1297:1302   */\n      dup2\n        /* \"#utility.yul\":1270:1303   */\n      tag_276\n      jump\t// in\n    tag_275:\n        /* \"#utility.yul\":1170:1309   */\n      swap3\n      swap2\n      pop\n      pop\n      jump\t// out\n        /* \"#utility.yul\":1332:1702   */\n    tag_277:\n        /* \"#utility.yul\":1403:1408   */\n      0x00\n        /* \"#utility.yul\":1452:1455   */\n      dup3\n        /* \"#utility.yul\":1445:1449   */\n      0x1f\n        /* \"#utility.yul\":1437:1443   */\n      dup4\n        /* \"#utility.yul\":1433:1450   */\n      add\n        /* \"#utility.yul\":1429:1456   */\n      slt\n        /* \"#utility.yul\":1419:1541   */\n      tag_279\n      jumpi\n        /* \"#utility.yul\":1460:1539   */\n      tag_280\n      tag_281\n      jump\t// in\n    tag_280:\n        /* \"#utility.yul\":1419:1541   */\n    tag_279:\n        /* \"#utility.yul\":1577:1583   */\n      dup2\n        /* \"#utility.yul\":1564:1584   */\n      calldataload\n        /* \"#utility.yul\":1602:1696   */\n      tag_282\n        /* \"#utility.yul\":1692:1695   */\n      dup5\n        /* \"#utility.yul\":1684:1690   */\n      dup3\n        /* \"#utility.yul\":1677:1681   */\n      0x20\n        /* \"#utility.yul\":1669:1675   */\n      dup7\n        /* \"#utility.yul\":1665:1682   */\n      add\n        /* \"#utility.yul\":1602:1696   */\n      tag_250\n      jump\t// in\n    tag_282:\n        /* \"#utility.yul\":1593:1696   */\n      swap2\n      pop\n        /* \"#utility.yul\":1409:1702   */\n      pop\n        /* \"#utility.yul\":1332:1702   */\n      swap3\n      swap2\n      pop\n      pop\n      jump\t// out\n        /* \"#utility.yul\":1722:2062   */\n    tag_283:\n        /* \"#utility.yul\":1778:1783   */\n      0x00\n        /* \"#utility.yul\":1827:1830   */\n      dup3\n        /* \"#utility.yul\":1820:1824   */\n      0x1f\n        /* \"#utility.yul\":1812:1818   */\n      dup4\n        /* \"#utility.yul\":1808:1825   */\n      add\n        /* \"#utility.yul\":1804:1831   */\n      slt\n        /* \"#utility.yul\":1794:1916   */\n      tag_285\n      jumpi\n        /* \"#utility.yul\":1835:1914   */\n      tag_286\n      tag_281\n      jump\t// in\n    tag_286:\n        /* \"#utility.yul\":1794:1916   */\n    tag_285:\n        /* \"#utility.yul\":1952:1958   */\n      dup2\n        /* \"#utility.yul\":1939:1959   */\n      calldataload\n        /* \"#utility.yul\":1977:2056   */\n      tag_287\n        /* \"#utility.yul\":2052:2055   */\n      dup5\n        /* \"#utility.yul\":2044:2050   */\n      dup3\n        /* \"#utility.yul\":2037:2041   */\n      0x20\n        /* \"#utility.yul\":2029:2035   */\n      dup7\n        /* \"#utility.yul\":2025:2042   */\n      add\n        /* \"#utility.yul\":1977:2056   */\n      tag_264\n      jump\t// in\n    tag_287:\n        /* \"#utility.yul\":1968:2056   */\n      swap2\n      pop\n        /* \"#utility.yul\":1784:2062   */\n      pop\n        /* \"#utility.yul\":1722:2062   */\n      swap3\n      swap2\n      pop\n      pop\n      jump\t// out\n        /* \"#utility.yul\":2068:2207   */\n    tag_288:\n        /* \"#utility.yul\":2114:2119   */\n      0x00\n        /* \"#utility.yul\":2152:2158   */\n      dup2\n        /* \"#utility.yul\":2139:2159   */\n      calldataload\n        /* \"#utility.yul\":2130:2159   */\n      swap1\n      pop\n        /* \"#utility.yul\":2168:2201   */\n      tag_290\n        /* \"#utility.yul\":2195:2200   */\n      dup2\n        /* \"#utility.yul\":2168:2201   */\n      tag_291\n      jump\t// in\n    tag_290:\n        /* \"#utility.yul\":2068:2207   */\n      swap3\n      swap2\n      pop\n      pop\n      jump\t// out\n        /* \"#utility.yul\":2213:2542   */\n    tag_52:\n        /* \"#utility.yul\":2272:2278   */\n      0x00\n        /* \"#utility.yul\":2321:2323   */\n      0x20\n        /* \"#utility.yul\":2309:2318   */\n      dup3\n        /* \"#utility.yul\":2300:2307   */\n      dup5\n        /* \"#utility.yul\":2296:2319   */\n      sub\n        /* \"#utility.yul\":2292:2324   */\n      slt\n        /* \"#utility.yul\":2289:2408   */\n      iszero\n      tag_293\n      jumpi\n        /* \"#utility.yul\":2327:2406   */\n      tag_294\n      tag_295\n      jump\t// in\n    tag_294:\n        /* \"#utility.yul\":2289:2408   */\n    tag_293:\n        /* \"#utility.yul\":2447:2448   */\n      0x00\n        /* \"#utility.yul\":2472:2525   */\n      tag_296\n        /* \"#utility.yul\":2517:2524   */\n      dup5\n        /* \"#utility.yul\":2508:2514   */\n      dup3\n        /* \"#utility.yul\":2497:2506   */\n      dup6\n        /* \"#utility.yul\":2493:2515   */\n      add\n        /* \"#utility.yul\":2472:2525   */\n      tag_263\n      jump\t// in\n    tag_296:\n        /* \"#utility.yul\":2462:2525   */\n      swap2\n      pop\n        /* \"#utility.yul\":2418:2535   */\n      pop\n        /* \"#utility.yul\":2213:2542   */\n      swap3\n      swap2\n      pop\n      pop\n      jump\t// out\n        /* \"#utility.yul\":2548:3087   */\n    tag_48:\n        /* \"#utility.yul\":2632:2638   */\n      0x00\n        /* \"#utility.yul\":2681:2683   */\n      0x20\n        /* \"#utility.yul\":2669:2678   */\n      dup3\n        /* \"#utility.yul\":2660:2667   */\n      dup5\n        /* \"#utility.yul\":2656:2679   */\n      sub\n        /* \"#utility.yul\":2652:2684   */\n      slt\n        /* \"#utility.yul\":2649:2768   */\n      iszero\n      tag_298\n      jumpi\n        /* \"#utility.yul\":2687:2766   */\n      tag_299\n      tag_295\n      jump\t// in\n    tag_299:\n        /* \"#utility.yul\":2649:2768   */\n    tag_298:\n        /* \"#utility.yul\":2835:2836   */\n      0x00\n        /* \"#utility.yul\":2824:2833   */\n      dup3\n        /* \"#utility.yul\":2820:2837   */\n      add\n        /* \"#utility.yul\":2807:2838   */\n      calldataload\n        /* \"#utility.yul\":2865:2883   */\n      0xffffffffffffffff\n        /* \"#utility.yul\":2857:2863   */\n      dup2\n        /* \"#utility.yul\":2854:2884   */\n      gt\n        /* \"#utility.yul\":2851:2968   */\n      iszero\n      tag_300\n      jumpi\n        /* \"#utility.yul\":2887:2966   */\n      tag_301\n      tag_302\n      jump\t// in\n    tag_301:\n        /* \"#utility.yul\":2851:2968   */\n    tag_300:\n        /* \"#utility.yul\":2992:3070   */\n      tag_303\n        /* \"#utility.yul\":3062:3069   */\n      dup5\n        /* \"#utility.yul\":3053:3059   */\n      dup3\n        /* \"#utility.yul\":3042:3051   */\n      dup6\n        /* \"#utility.yul\":3038:3060   */\n      add\n        /* \"#utility.yul\":2992:3070   */\n      tag_277\n      jump\t// in\n    tag_303:\n        /* \"#utility.yul\":2982:3070   */\n      swap2\n      pop\n        /* \"#utility.yul\":2778:3080   */\n      pop\n        /* \"#utility.yul\":2548:3087   */\n      swap3\n      swap2\n      pop\n      pop\n      jump\t// out\n        /* \"#utility.yul\":3093:3602   */\n    tag_72:\n        /* \"#utility.yul\":3162:3168   */\n      0x00\n        /* \"#utility.yul\":3211:3213   */\n      0x20\n        /* \"#utility.yul\":3199:3208   */\n      dup3\n        /* \"#utility.yul\":3190:3197   */\n      dup5\n        /* \"#utility.yul\":3186:3209   */\n      sub\n        /* \"#utility.yul\":3182:3214   */\n      slt\n        /* \"#utility.yul\":3179:3298   */\n      iszero\n      tag_305\n      jumpi\n        /* \"#utility.yul\":3217:3296   */\n      tag_306\n      tag_295\n      jump\t// in\n    tag_306:\n        /* \"#utility.yul\":3179:3298   */\n    tag_305:\n        /* \"#utility.yul\":3365:3366   */\n      0x00\n        /* \"#utility.yul\":3354:3363   */\n      dup3\n        /* \"#utility.yul\":3350:3367   */\n      add\n        /* \"#utility.yul\":3337:3368   */\n      calldataload\n        /* \"#utility.yul\":3395:3413   */\n      0xffffffffffffffff\n        /* \"#utility.yul\":3387:3393   */\n      dup2\n        /* \"#utility.yul\":3384:3414   */\n      gt\n        /* \"#utility.yul\":3381:3498   */\n      iszero\n      tag_307\n      jumpi\n        /* \"#utility.yul\":3417:3496   */\n      tag_308\n      tag_302\n      jump\t// in\n    tag_308:\n        /* \"#utility.yul\":3381:3498   */\n    tag_307:\n        /* \"#utility.yul\":3522:3585   */\n      tag_309\n        /* \"#utility.yul\":3577:3584   */\n      dup5\n        /* \"#utility.yul\":3568:3574   */\n      dup3\n        /* \"#utility.yul\":3557:3566   */\n      dup6\n        /* \"#utility.yul\":3553:3575   */\n      add\n        /* \"#utility.yul\":3522:3585   */\n      tag_283\n      jump\t// in\n    tag_309:\n        /* \"#utility.yul\":3512:3585   */\n      swap2\n      pop\n        /* \"#utility.yul\":3308:3595   */\n      pop\n        /* \"#utility.yul\":3093:3602   */\n      swap3\n      swap2\n      pop\n      pop\n      jump\t// out\n        /* \"#utility.yul\":3608:3937   */\n    tag_44:\n        /* \"#utility.yul\":3667:3673   */\n      0x00\n        /* \"#utility.yul\":3716:3718   */\n      0x20\n        /* \"#utility.yul\":3704:3713   */\n      dup3\n        /* \"#utility.yul\":3695:3702   */\n      dup5\n        /* \"#utility.yul\":3691:3714   */\n      sub\n        /* \"#utility.yul\":3687:3719   */\n      slt\n        /* \"#utility.yul\":3684:3803   */\n      iszero\n      tag_311\n      jumpi\n        /* \"#utility.yul\":3722:3801   */\n      tag_312\n      tag_295\n      jump\t// in\n    tag_312:\n        /* \"#utility.yul\":3684:3803   */\n    tag_311:\n        /* \"#utility.yul\":3842:3843   */\n      0x00\n        /* \"#utility.yul\":3867:3920   */\n      tag_313\n        /* \"#utility.yul\":3912:3919   */\n      dup5\n        /* \"#utility.yul\":3903:3909   */\n      dup3\n        /* \"#utility.yul\":3892:3901   */\n      dup6\n        /* \"#utility.yul\":3888:3910   */\n      add\n        /* \"#utility.yul\":3867:3920   */\n      tag_288\n      jump\t// in\n    tag_313:\n        /* \"#utility.yul\":3857:3920   */\n      swap2\n      pop\n        /* \"#utility.yul\":3813:3930   */\n      pop\n        /* \"#utility.yul\":3608:3937   */\n      swap3\n      swap2\n      pop\n      pop\n      jump\t// out\n        /* \"#utility.yul\":3943:4061   */\n    tag_314:\n        /* \"#utility.yul\":4030:4054   */\n      tag_316\n        /* \"#utility.yul\":4048:4053   */\n      dup2\n        /* \"#utility.yul\":4030:4054   */\n      tag_317\n      jump\t// in\n    tag_316:\n        /* \"#utility.yul\":4025:4028   */\n      dup3\n        /* \"#utility.yul\":4018:4055   */\n      mstore\n        /* \"#utility.yul\":3943:4061   */\n      pop\n      pop\n      jump\t// out\n        /* \"#utility.yul\":4067:4176   */\n    tag_318:\n        /* \"#utility.yul\":4148:4169   */\n      tag_320\n        /* \"#utility.yul\":4163:4168   */\n      dup2\n        /* \"#utility.yul\":4148:4169   */\n      tag_321\n      jump\t// in\n    tag_320:\n        /* \"#utility.yul\":4143:4146   */\n      dup3\n        /* \"#utility.yul\":4136:4170   */\n      mstore\n        /* \"#utility.yul\":4067:4176   */\n      pop\n      pop\n      jump\t// out\n        /* \"#utility.yul\":4182:4546   */\n    tag_322:\n        /* \"#utility.yul\":4270:4273   */\n      0x00\n        /* \"#utility.yul\":4298:4337   */\n      tag_324\n        /* \"#utility.yul\":4331:4336   */\n      dup3\n        /* \"#utility.yul\":4298:4337   */\n      tag_325\n      jump\t// in\n    tag_324:\n        /* \"#utility.yul\":4353:4424   */\n      tag_326\n        /* \"#utility.yul\":4417:4423   */\n      dup2\n        /* \"#utility.yul\":4412:4415   */\n      dup6\n        /* \"#utility.yul\":4353:4424   */\n      tag_327\n      jump\t// in\n    tag_326:\n        /* \"#utility.yul\":4346:4424   */\n      swap4\n      pop\n        /* \"#utility.yul\":4433:4485   */\n      tag_328\n        /* \"#utility.yul\":4478:4484   */\n      dup2\n        /* \"#utility.yul\":4473:4476   */\n      dup6\n        /* \"#utility.yul\":4466:4470   */\n      0x20\n        /* \"#utility.yul\":4459:4464   */\n      dup7\n        /* \"#utility.yul\":4455:4471   */\n      add\n        /* \"#utility.yul\":4433:4485   */\n      tag_329\n      jump\t// in\n    tag_328:\n        /* \"#utility.yul\":4510:4539   */\n      tag_330\n        /* \"#utility.yul\":4532:4538   */\n      dup2\n        /* \"#utility.yul\":4510:4539   */\n      tag_331\n      jump\t// in\n    tag_330:\n        /* \"#utility.yul\":4505:4508   */\n      dup5\n        /* \"#utility.yul\":4501:4540   */\n      add\n        /* \"#utility.yul\":4494:4540   */\n      swap2\n      pop\n        /* \"#utility.yul\":4274:4546   */\n      pop\n        /* \"#utility.yul\":4182:4546   */\n      swap3\n      swap2\n      pop\n      pop\n      jump\t// out\n        /* \"#utility.yul\":4552:4929   */\n    tag_332:\n        /* \"#utility.yul\":4658:4661   */\n      0x00\n        /* \"#utility.yul\":4686:4725   */\n      tag_334\n        /* \"#utility.yul\":4719:4724   */\n      dup3\n        /* \"#utility.yul\":4686:4725   */\n      tag_325\n      jump\t// in\n    tag_334:\n        /* \"#utility.yul\":4741:4830   */\n      tag_335\n        /* \"#utility.yul\":4823:4829   */\n      dup2\n        /* \"#utility.yul\":4818:4821   */\n      dup6\n        /* \"#utility.yul\":4741:4830   */\n      tag_336\n      jump\t// in\n    tag_335:\n        /* \"#utility.yul\":4734:4830   */\n      swap4\n      pop\n        /* \"#utility.yul\":4839:4891   */\n      tag_337\n        /* \"#utility.yul\":4884:4890   */\n      dup2\n        /* \"#utility.yul\":4879:4882   */\n      dup6\n        /* \"#utility.yul\":4872:4876   */\n      0x20\n        /* \"#utility.yul\":4865:4870   */\n      dup7\n        /* \"#utility.yul\":4861:4877   */\n      add\n        /* \"#utility.yul\":4839:4891   */\n      tag_329\n      jump\t// in\n    tag_337:\n        /* \"#utility.yul\":4916:4922   */\n      dup1\n        /* \"#utility.yul\":4911:4914   */\n      dup5\n        /* \"#utility.yul\":4907:4923   */\n      add\n        /* \"#utility.yul\":4900:4923   */\n      swap2\n      pop\n        /* \"#utility.yul\":4662:4929   */\n      pop\n        /* \"#utility.yul\":4552:4929   */\n      swap3\n      swap2\n      pop\n      pop\n      jump\t// out\n        /* \"#utility.yul\":4959:5804   */\n    tag_338:\n        /* \"#utility.yul\":5062:5065   */\n      0x00\n        /* \"#utility.yul\":5099:5104   */\n      dup2\n        /* \"#utility.yul\":5093:5105   */\n      sload\n        /* \"#utility.yul\":5128:5164   */\n      tag_340\n        /* \"#utility.yul\":5154:5163   */\n      dup2\n        /* \"#utility.yul\":5128:5164   */\n      tag_109\n      jump\t// in\n    tag_340:\n        /* \"#utility.yul\":5180:5269   */\n      tag_341\n        /* \"#utility.yul\":5262:5268   */\n      dup2\n        /* \"#utility.yul\":5257:5260   */\n      dup7\n        /* \"#utility.yul\":5180:5269   */\n      tag_336\n      jump\t// in\n    tag_341:\n        /* \"#utility.yul\":5173:5269   */\n      swap5\n      pop\n        /* \"#utility.yul\":5300:5301   */\n      0x01\n        /* \"#utility.yul\":5289:5298   */\n      dup3\n        /* \"#utility.yul\":5285:5302   */\n      and\n        /* \"#utility.yul\":5316:5317   */\n      0x00\n        /* \"#utility.yul\":5311:5448   */\n      dup2\n      eq\n      tag_343\n      jumpi\n        /* \"#utility.yul\":5462:5463   */\n      0x01\n        /* \"#utility.yul\":5457:5798   */\n      dup2\n      eq\n      tag_344\n      jumpi\n        /* \"#utility.yul\":5278:5798   */\n      jump(tag_342)\n        /* \"#utility.yul\":5311:5448   */\n    tag_343:\n        /* \"#utility.yul\":5395:5399   */\n      0xff\n        /* \"#utility.yul\":5391:5400   */\n      not\n        /* \"#utility.yul\":5380:5389   */\n      dup4\n        /* \"#utility.yul\":5376:5401   */\n      and\n        /* \"#utility.yul\":5371:5374   */\n      dup7\n        /* \"#utility.yul\":5364:5402   */\n      mstore\n        /* \"#utility.yul\":5431:5437   */\n      dup2\n        /* \"#utility.yul\":5426:5429   */\n      dup7\n        /* \"#utility.yul\":5422:5438   */\n      add\n        /* \"#utility.yul\":5415:5438   */\n      swap4\n      pop\n        /* \"#utility.yul\":5311:5448   */\n      jump(tag_342)\n        /* \"#utility.yul\":5457:5798   */\n    tag_344:\n        /* \"#utility.yul\":5524:5562   */\n      tag_345\n        /* \"#utility.yul\":5556:5561   */\n      dup6\n        /* \"#utility.yul\":5524:5562   */\n      tag_346\n      jump\t// in\n    tag_345:\n        /* \"#utility.yul\":5584:5585   */\n      0x00\n        /* \"#utility.yul\":5598:5752   */\n    tag_347:\n        /* \"#utility.yul\":5612:5618   */\n      dup4\n        /* \"#utility.yul\":5609:5610   */\n      dup2\n        /* \"#utility.yul\":5606:5619   */\n      lt\n        /* \"#utility.yul\":5598:5752   */\n      iszero\n      tag_349\n      jumpi\n        /* \"#utility.yul\":5686:5693   */\n      dup2\n        /* \"#utility.yul\":5680:5694   */\n      sload\n        /* \"#utility.yul\":5676:5677   */\n      dup2\n        /* \"#utility.yul\":5671:5674   */\n      dup10\n        /* \"#utility.yul\":5667:5678   */\n      add\n        /* \"#utility.yul\":5660:5695   */\n      mstore\n        /* \"#utility.yul\":5736:5737   */\n      0x01\n        /* \"#utility.yul\":5727:5734   */\n      dup3\n        /* \"#utility.yul\":5723:5738   */\n      add\n        /* \"#utility.yul\":5712:5738   */\n      swap2\n      pop\n        /* \"#utility.yul\":5634:5638   */\n      0x20\n        /* \"#utility.yul\":5631:5632   */\n      dup2\n        /* \"#utility.yul\":5627:5639   */\n      add\n        /* \"#utility.yul\":5622:5639   */\n      swap1\n      pop\n        /* \"#utility.yul\":5598:5752   */\n      jump(tag_347)\n    tag_349:\n        /* \"#utility.yul\":5781:5787   */\n      dup4\n        /* \"#utility.yul\":5776:5779   */\n      dup9\n        /* \"#utility.yul\":5772:5788   */\n      add\n        /* \"#utility.yul\":5765:5788   */\n      swap6\n      pop\n        /* \"#utility.yul\":5464:5798   */\n      pop\n      pop\n        /* \"#utility.yul\":5278:5798   */\n    tag_342:\n      pop\n        /* \"#utility.yul\":5066:5804   */\n      pop\n      pop\n        /* \"#utility.yul\":4959:5804   */\n      swap3\n      swap2\n      pop\n      pop\n      jump\t// out\n        /* \"#utility.yul\":5810:6176   */\n    tag_350:\n        /* \"#utility.yul\":5952:5955   */\n      0x00\n        /* \"#utility.yul\":5973:6040   */\n      tag_352\n        /* \"#utility.yul\":6037:6039   */\n      0x1b\n        /* \"#utility.yul\":6032:6035   */\n      dup4\n        /* \"#utility.yul\":5973:6040   */\n      tag_327\n      jump\t// in\n    tag_352:\n        /* \"#utility.yul\":5966:6040   */\n      swap2\n      pop\n        /* \"#utility.yul\":6049:6142   */\n      tag_353\n        /* \"#utility.yul\":6138:6141   */\n      dup3\n        /* \"#utility.yul\":6049:6142   */\n      tag_354\n      jump\t// in\n    tag_353:\n        /* \"#utility.yul\":6167:6169   */\n      0x20\n        /* \"#utility.yul\":6162:6165   */\n      dup3\n        /* \"#utility.yul\":6158:6170   */\n      add\n        /* \"#utility.yul\":6151:6170   */\n      swap1\n      pop\n        /* \"#utility.yul\":5810:6176   */\n      swap2\n      swap1\n      pop\n      jump\t// out\n        /* \"#utility.yul\":6182:6548   */\n    tag_355:\n        /* \"#utility.yul\":6324:6327   */\n      0x00\n        /* \"#utility.yul\":6345:6412   */\n      tag_357\n        /* \"#utility.yul\":6409:6411   */\n      0x10\n        /* \"#utility.yul\":6404:6407   */\n      dup4\n        /* \"#utility.yul\":6345:6412   */\n      tag_327\n      jump\t// in\n    tag_357:\n        /* \"#utility.yul\":6338:6412   */\n      swap2\n      pop\n        /* \"#utility.yul\":6421:6514   */\n      tag_358\n        /* \"#utility.yul\":6510:6513   */\n      dup3\n        /* \"#utility.yul\":6421:6514   */\n      tag_359\n      jump\t// in\n    tag_358:\n        /* \"#utility.yul\":6539:6541   */\n      0x20\n        /* \"#utility.yul\":6534:6537   */\n      dup3\n        /* \"#utility.yul\":6530:6542   */\n      add\n        /* \"#utility.yul\":6523:6542   */\n      swap1\n      pop\n        /* \"#utility.yul\":6182:6548   */\n      swap2\n      swap1\n      pop\n      jump\t// out\n        /* \"#utility.yul\":6554:6920   */\n    tag_360:\n        /* \"#utility.yul\":6696:6699   */\n      0x00\n        /* \"#utility.yul\":6717:6784   */\n      tag_362\n        /* \"#utility.yul\":6781:6783   */\n      0x0d\n        /* \"#utility.yul\":6776:6779   */\n      dup4\n        /* \"#utility.yul\":6717:6784   */\n      tag_327\n      jump\t// in\n    tag_362:\n        /* \"#utility.yul\":6710:6784   */\n      swap2\n      pop\n        /* \"#utility.yul\":6793:6886   */\n      tag_363\n        /* \"#utility.yul\":6882:6885   */\n      dup3\n        /* \"#utility.yul\":6793:6886   */\n      tag_364\n      jump\t// in\n    tag_363:\n        /* \"#utility.yul\":6911:6913   */\n      0x20\n        /* \"#utility.yul\":6906:6909   */\n      dup3\n        /* \"#utility.yul\":6902:6914   */\n      add\n        /* \"#utility.yul\":6895:6914   */\n      swap1\n      pop\n        /* \"#utility.yul\":6554:6920   */\n      swap2\n      swap1\n      pop\n      jump\t// out\n        /* \"#utility.yul\":6926:7292   */\n    tag_365:\n        /* \"#utility.yul\":7068:7071   */\n      0x00\n        /* \"#utility.yul\":7089:7156   */\n      tag_367\n        /* \"#utility.yul\":7153:7155   */\n      0x22\n        /* \"#utility.yul\":7148:7151   */\n      dup4\n        /* \"#utility.yul\":7089:7156   */\n      tag_327\n      jump\t// in\n    tag_367:\n        /* \"#utility.yul\":7082:7156   */\n      swap2\n      pop\n        /* \"#utility.yul\":7165:7258   */\n      tag_368\n        /* \"#utility.yul\":7254:7257   */\n      dup3\n        /* \"#utility.yul\":7165:7258   */\n      tag_369\n      jump\t// in\n    tag_368:\n        /* \"#utility.yul\":7283:7285   */\n      0x40\n        /* \"#utility.yul\":7278:7281   */\n      dup3\n        /* \"#utility.yul\":7274:7286   */\n      add\n        /* \"#utility.yul\":7267:7286   */\n      swap1\n      pop\n        /* \"#utility.yul\":6926:7292   */\n      swap2\n      swap1\n      pop\n      jump\t// out\n        /* \"#utility.yul\":7298:7664   */\n    tag_370:\n        /* \"#utility.yul\":7440:7443   */\n      0x00\n        /* \"#utility.yul\":7461:7528   */\n      tag_372\n        /* \"#utility.yul\":7525:7527   */\n      0x0c\n        /* \"#utility.yul\":7520:7523   */\n      dup4\n        /* \"#utility.yul\":7461:7528   */\n      tag_327\n      jump\t// in\n    tag_372:\n        /* \"#utility.yul\":7454:7528   */\n      swap2\n      pop\n        /* \"#utility.yul\":7537:7630   */\n      tag_373\n        /* \"#utility.yul\":7626:7629   */\n      dup3\n        /* \"#utility.yul\":7537:7630   */\n      tag_374\n      jump\t// in\n    tag_373:\n        /* \"#utility.yul\":7655:7657   */\n      0x20\n        /* \"#utility.yul\":7650:7653   */\n      dup3\n        /* \"#utility.yul\":7646:7658   */\n      add\n        /* \"#utility.yul\":7639:7658   */\n      swap1\n      pop\n        /* \"#utility.yul\":7298:7664   */\n      swap2\n      swap1\n      pop\n      jump\t// out\n        /* \"#utility.yul\":7670:8036   */\n    tag_375:\n        /* \"#utility.yul\":7812:7815   */\n      0x00\n        /* \"#utility.yul\":7833:7900   */\n      tag_377\n        /* \"#utility.yul\":7897:7899   */\n      0x1c\n        /* \"#utility.yul\":7892:7895   */\n      dup4\n        /* \"#utility.yul\":7833:7900   */\n      tag_327\n      jump\t// in\n    tag_377:\n        /* \"#utility.yul\":7826:7900   */\n      swap2\n      pop\n        /* \"#utility.yul\":7909:8002   */\n      tag_378\n        /* \"#utility.yul\":7998:8001   */\n      dup3\n        /* \"#utility.yul\":7909:8002   */\n      tag_379\n      jump\t// in\n    tag_378:\n        /* \"#utility.yul\":8027:8029   */\n      0x20\n        /* \"#utility.yul\":8022:8025   */\n      dup3\n        /* \"#utility.yul\":8018:8030   */\n      add\n        /* \"#utility.yul\":8011:8030   */\n      swap1\n      pop\n        /* \"#utility.yul\":7670:8036   */\n      swap2\n      swap1\n      pop\n      jump\t// out\n        /* \"#utility.yul\":8042:8408   */\n    tag_380:\n        /* \"#utility.yul\":8184:8187   */\n      0x00\n        /* \"#utility.yul\":8205:8272   */\n      tag_382\n        /* \"#utility.yul\":8269:8271   */\n      0x1f\n        /* \"#utility.yul\":8264:8267   */\n      dup4\n        /* \"#utility.yul\":8205:8272   */\n      tag_327\n      jump\t// in\n    tag_382:\n        /* \"#utility.yul\":8198:8272   */\n      swap2\n      pop\n        /* \"#utility.yul\":8281:8374   */\n      tag_383\n        /* \"#utility.yul\":8370:8373   */\n      dup3\n        /* \"#utility.yul\":8281:8374   */\n      tag_384\n      jump\t// in\n    tag_383:\n        /* \"#utility.yul\":8399:8401   */\n      0x20\n        /* \"#utility.yul\":8394:8397   */\n      dup3\n        /* \"#utility.yul\":8390:8402   */\n      add\n        /* \"#utility.yul\":8383:8402   */\n      swap1\n      pop\n        /* \"#utility.yul\":8042:8408   */\n      swap2\n      swap1\n      pop\n      jump\t// out\n        /* \"#utility.yul\":8414:8780   */\n    tag_385:\n        /* \"#utility.yul\":8556:8559   */\n      0x00\n        /* \"#utility.yul\":8577:8644   */\n      tag_387\n        /* \"#utility.yul\":8641:8643   */\n      0x20\n        /* \"#utility.yul\":8636:8639   */\n      dup4\n        /* \"#utility.yul\":8577:8644   */\n      tag_327\n      jump\t// in\n    tag_387:\n        /* \"#utility.yul\":8570:8644   */\n      swap2\n      pop\n        /* \"#utility.yul\":8653:8746   */\n      tag_388\n        /* \"#utility.yul\":8742:8745   */\n      dup3\n        /* \"#utility.yul\":8653:8746   */\n      tag_389\n      jump\t// in\n    tag_388:\n        /* \"#utility.yul\":8771:8773   */\n      0x20\n        /* \"#utility.yul\":8766:8769   */\n      dup3\n        /* \"#utility.yul\":8762:8774   */\n      add\n        /* \"#utility.yul\":8755:8774   */\n      swap1\n      pop\n        /* \"#utility.yul\":8414:8780   */\n      swap2\n      swap1\n      pop\n      jump\t// out\n        /* \"#utility.yul\":8786:9152   */\n    tag_390:\n        /* \"#utility.yul\":8928:8931   */\n      0x00\n        /* \"#utility.yul\":8949:9016   */\n      tag_392\n        /* \"#utility.yul\":9013:9015   */\n      0x0d\n        /* \"#utility.yul\":9008:9011   */\n      dup4\n        /* \"#utility.yul\":8949:9016   */\n      tag_327\n      jump\t// in\n    tag_392:\n        /* \"#utility.yul\":8942:9016   */\n      swap2\n      pop\n        /* \"#utility.yul\":9025:9118   */\n      tag_393\n        /* \"#utility.yul\":9114:9117   */\n      dup3\n        /* \"#utility.yul\":9025:9118   */\n      tag_394\n      jump\t// in\n    tag_393:\n        /* \"#utility.yul\":9143:9145   */\n      0x20\n        /* \"#utility.yul\":9138:9141   */\n      dup3\n        /* \"#utility.yul\":9134:9146   */\n      add\n        /* \"#utility.yul\":9127:9146   */\n      swap1\n      pop\n        /* \"#utility.yul\":8786:9152   */\n      swap2\n      swap1\n      pop\n      jump\t// out\n        /* \"#utility.yul\":9158:9524   */\n    tag_395:\n        /* \"#utility.yul\":9300:9303   */\n      0x00\n        /* \"#utility.yul\":9321:9388   */\n      tag_397\n        /* \"#utility.yul\":9385:9387   */\n      0x17\n        /* \"#utility.yul\":9380:9383   */\n      dup4\n        /* \"#utility.yul\":9321:9388   */\n      tag_327\n      jump\t// in\n    tag_397:\n        /* \"#utility.yul\":9314:9388   */\n      swap2\n      pop\n        /* \"#utility.yul\":9397:9490   */\n      tag_398\n        /* \"#utility.yul\":9486:9489   */\n      dup3\n        /* \"#utility.yul\":9397:9490   */\n      tag_399\n      jump\t// in\n    tag_398:\n        /* \"#utility.yul\":9515:9517   */\n      0x20\n        /* \"#utility.yul\":9510:9513   */\n      dup3\n        /* \"#utility.yul\":9506:9518   */\n      add\n        /* \"#utility.yul\":9499:9518   */\n      swap1\n      pop\n        /* \"#utility.yul\":9158:9524   */\n      swap2\n      swap1\n      pop\n      jump\t// out\n        /* \"#utility.yul\":9530:9896   */\n    tag_400:\n        /* \"#utility.yul\":9672:9675   */\n      0x00\n        /* \"#utility.yul\":9693:9760   */\n      tag_402\n        /* \"#utility.yul\":9757:9759   */\n      0x0a\n        /* \"#utility.yul\":9752:9755   */\n      dup4\n        /* \"#utility.yul\":9693:9760   */\n      tag_327\n      jump\t// in\n    tag_402:\n        /* \"#utility.yul\":9686:9760   */\n      swap2\n      pop\n        /* \"#utility.yul\":9769:9862   */\n      tag_403\n        /* \"#utility.yul\":9858:9861   */\n      dup3\n        /* \"#utility.yul\":9769:9862   */\n      tag_404\n      jump\t// in\n    tag_403:\n        /* \"#utility.yul\":9887:9889   */\n      0x20\n        /* \"#utility.yul\":9882:9885   */\n      dup3\n        /* \"#utility.yul\":9878:9890   */\n      add\n        /* \"#utility.yul\":9871:9890   */\n      swap1\n      pop\n        /* \"#utility.yul\":9530:9896   */\n      swap2\n      swap1\n      pop\n      jump\t// out\n        /* \"#utility.yul\":9902:10268   */\n    tag_405:\n        /* \"#utility.yul\":10044:10047   */\n      0x00\n        /* \"#utility.yul\":10065:10132   */\n      tag_407\n        /* \"#utility.yul\":10129:10131   */\n      0x26\n        /* \"#utility.yul\":10124:10127   */\n      dup4\n        /* \"#utility.yul\":10065:10132   */\n      tag_327\n      jump\t// in\n    tag_407:\n        /* \"#utility.yul\":10058:10132   */\n      swap2\n      pop\n        /* \"#utility.yul\":10141:10234   */\n      tag_408\n        /* \"#utility.yul\":10230:10233   */\n      dup3\n        /* \"#utility.yul\":10141:10234   */\n      tag_409\n      jump\t// in\n    tag_408:\n        /* \"#utility.yul\":10259:10261   */\n      0x40\n        /* \"#utility.yul\":10254:10257   */\n      dup3\n        /* \"#utility.yul\":10250:10262   */\n      add\n        /* \"#utility.yul\":10243:10262   */\n      swap1\n      pop\n        /* \"#utility.yul\":9902:10268   */\n      swap2\n      swap1\n      pop\n      jump\t// out\n        /* \"#utility.yul\":10274:10640   */\n    tag_410:\n        /* \"#utility.yul\":10416:10419   */\n      0x00\n        /* \"#utility.yul\":10437:10504   */\n      tag_412\n        /* \"#utility.yul\":10501:10503   */\n      0x24\n        /* \"#utility.yul\":10496:10499   */\n      dup4\n        /* \"#utility.yul\":10437:10504   */\n      tag_327\n      jump\t// in\n    tag_412:\n        /* \"#utility.yul\":10430:10504   */\n      swap2\n      pop\n        /* \"#utility.yul\":10513:10606   */\n      tag_413\n        /* \"#utility.yul\":10602:10605   */\n      dup3\n        /* \"#utility.yul\":10513:10606   */\n      tag_414\n      jump\t// in\n    tag_413:\n        /* \"#utility.yul\":10631:10633   */\n      0x40\n        /* \"#utility.yul\":10626:10629   */\n      dup3\n        /* \"#utility.yul\":10622:10634   */\n      add\n        /* \"#utility.yul\":10615:10634   */\n      swap1\n      pop\n        /* \"#utility.yul\":10274:10640   */\n      swap2\n      swap1\n      pop\n      jump\t// out\n        /* \"#utility.yul\":10646:10764   */\n    tag_415:\n        /* \"#utility.yul\":10733:10757   */\n      tag_417\n        /* \"#utility.yul\":10751:10756   */\n      dup2\n        /* \"#utility.yul\":10733:10757   */\n      tag_418\n      jump\t// in\n    tag_417:\n        /* \"#utility.yul\":10728:10731   */\n      dup3\n        /* \"#utility.yul\":10721:10758   */\n      mstore\n        /* \"#utility.yul\":10646:10764   */\n      pop\n      pop\n      jump\t// out\n        /* \"#utility.yul\":10770:11045   */\n    tag_237:\n        /* \"#utility.yul\":10902:10905   */\n      0x00\n        /* \"#utility.yul\":10924:11019   */\n      tag_420\n        /* \"#utility.yul\":11015:11018   */\n      dup3\n        /* \"#utility.yul\":11006:11012   */\n      dup5\n        /* \"#utility.yul\":10924:11019   */\n      tag_332\n      jump\t// in\n    tag_420:\n        /* \"#utility.yul\":10917:11019   */\n      swap2\n      pop\n        /* \"#utility.yul\":11036:11039   */\n      dup2\n        /* \"#utility.yul\":11029:11039   */\n      swap1\n      pop\n        /* \"#utility.yul\":10770:11045   */\n      swap3\n      swap2\n      pop\n      pop\n      jump\t// out\n        /* \"#utility.yul\":11051:11320   */\n    tag_79:\n        /* \"#utility.yul\":11180:11183   */\n      0x00\n        /* \"#utility.yul\":11202:11294   */\n      tag_422\n        /* \"#utility.yul\":11290:11293   */\n      dup3\n        /* \"#utility.yul\":11281:11287   */\n      dup5\n        /* \"#utility.yul\":11202:11294   */\n      tag_338\n      jump\t// in\n    tag_422:\n        /* \"#utility.yul\":11195:11294   */\n      swap2\n      pop\n        /* \"#utility.yul\":11311:11314   */\n      dup2\n        /* \"#utility.yul\":11304:11314   */\n      swap1\n      pop\n        /* \"#utility.yul\":11051:11320   */\n      swap3\n      swap2\n      pop\n      pop\n      jump\t// out\n        /* \"#utility.yul\":11326:11548   */\n    tag_41:\n        /* \"#utility.yul\":11419:11423   */\n      0x00\n        /* \"#utility.yul\":11457:11459   */\n      0x20\n        /* \"#utility.yul\":11446:11455   */\n      dup3\n        /* \"#utility.yul\":11442:11460   */\n      add\n        /* \"#utility.yul\":11434:11460   */\n      swap1\n      pop\n        /* \"#utility.yul\":11470:11541   */\n      tag_424\n        /* \"#utility.yul\":11538:11539   */\n      0x00\n        /* \"#utility.yul\":11527:11536   */\n      dup4\n        /* \"#utility.yul\":11523:11540   */\n      add\n        /* \"#utility.yul\":11514:11520   */\n      dup5\n        /* \"#utility.yul\":11470:11541   */\n      tag_314\n      jump\t// in\n    tag_424:\n        /* \"#utility.yul\":11326:11548   */\n      swap3\n      swap2\n      pop\n      pop\n      jump\t// out\n        /* \"#utility.yul\":11554:11764   */\n    tag_23:\n        /* \"#utility.yul\":11641:11645   */\n      0x00\n        /* \"#utility.yul\":11679:11681   */\n      0x20\n        /* \"#utility.yul\":11668:11677   */\n      dup3\n        /* \"#utility.yul\":11664:11682   */\n      add\n        /* \"#utility.yul\":11656:11682   */\n      swap1\n      pop\n        /* \"#utility.yul\":11692:11757   */\n      tag_426\n        /* \"#utility.yul\":11754:11755   */\n      0x00\n        /* \"#utility.yul\":11743:11752   */\n      dup4\n        /* \"#utility.yul\":11739:11756   */\n      add\n        /* \"#utility.yul\":11730:11736   */\n      dup5\n        /* \"#utility.yul\":11692:11757   */\n      tag_318\n      jump\t// in\n    tag_426:\n        /* \"#utility.yul\":11554:11764   */\n      swap3\n      swap2\n      pop\n      pop\n      jump\t// out\n        /* \"#utility.yul\":11770:12083   */\n    tag_30:\n        /* \"#utility.yul\":11883:11887   */\n      0x00\n        /* \"#utility.yul\":11921:11923   */\n      0x20\n        /* \"#utility.yul\":11910:11919   */\n      dup3\n        /* \"#utility.yul\":11906:11924   */\n      add\n        /* \"#utility.yul\":11898:11924   */\n      swap1\n      pop\n        /* \"#utility.yul\":11970:11979   */\n      dup2\n        /* \"#utility.yul\":11964:11968   */\n      dup2\n        /* \"#utility.yul\":11960:11980   */\n      sub\n        /* \"#utility.yul\":11956:11957   */\n      0x00\n        /* \"#utility.yul\":11945:11954   */\n      dup4\n        /* \"#utility.yul\":11941:11958   */\n      add\n        /* \"#utility.yul\":11934:11981   */\n      mstore\n        /* \"#utility.yul\":11998:12076   */\n      tag_428\n        /* \"#utility.yul\":12071:12075   */\n      dup2\n        /* \"#utility.yul\":12062:12068   */\n      dup5\n        /* \"#utility.yul\":11998:12076   */\n      tag_322\n      jump\t// in\n    tag_428:\n        /* \"#utility.yul\":11990:12076   */\n      swap1\n      pop\n        /* \"#utility.yul\":11770:12083   */\n      swap3\n      swap2\n      pop\n      pop\n      jump\t// out\n        /* \"#utility.yul\":12089:12508   */\n    tag_232:\n        /* \"#utility.yul\":12255:12259   */\n      0x00\n        /* \"#utility.yul\":12293:12295   */\n      0x20\n        /* \"#utility.yul\":12282:12291   */\n      dup3\n        /* \"#utility.yul\":12278:12296   */\n      add\n        /* \"#utility.yul\":12270:12296   */\n      swap1\n      pop\n        /* \"#utility.yul\":12342:12351   */\n      dup2\n        /* \"#utility.yul\":12336:12340   */\n      dup2\n        /* \"#utility.yul\":12332:12352   */\n      sub\n        /* \"#utility.yul\":12328:12329   */\n      0x00\n        /* \"#utility.yul\":12317:12326   */\n      dup4\n        /* \"#utility.yul\":12313:12330   */\n      add\n        /* \"#utility.yul\":12306:12353   */\n      mstore\n        /* \"#utility.yul\":12370:12501   */\n      tag_430\n        /* \"#utility.yul\":12496:12500   */\n      dup2\n        /* \"#utility.yul\":12370:12501   */\n      tag_350\n      jump\t// in\n    tag_430:\n        /* \"#utility.yul\":12362:12501   */\n      swap1\n      pop\n        /* \"#utility.yul\":12089:12508   */\n      swap2\n      swap1\n      pop\n      jump\t// out\n        /* \"#utility.yul\":12514:12933   */\n    tag_178:\n        /* \"#utility.yul\":12680:12684   */\n      0x00\n        /* \"#utility.yul\":12718:12720   */\n      0x20\n        /* \"#utility.yul\":12707:12716   */\n      dup3\n        /* \"#utility.yul\":12703:12721   */\n      add\n        /* \"#utility.yul\":12695:12721   */\n      swap1\n      pop\n        /* \"#utility.yul\":12767:12776   */\n      dup2\n        /* \"#utility.yul\":12761:12765   */\n      dup2\n        /* \"#utility.yul\":12757:12777   */\n      sub\n        /* \"#utility.yul\":12753:12754   */\n      0x00\n        /* \"#utility.yul\":12742:12751   */\n      dup4\n        /* \"#utility.yul\":12738:12755   */\n      add\n        /* \"#utility.yul\":12731:12778   */\n      mstore\n        /* \"#utility.yul\":12795:12926   */\n      tag_432\n        /* \"#utility.yul\":12921:12925   */\n      dup2\n        /* \"#utility.yul\":12795:12926   */\n      tag_355\n      jump\t// in\n    tag_432:\n        /* \"#utility.yul\":12787:12926   */\n      swap1\n      pop\n        /* \"#utility.yul\":12514:12933   */\n      swap2\n      swap1\n      pop\n      jump\t// out\n        /* \"#utility.yul\":12939:13358   */\n    tag_235:\n        /* \"#utility.yul\":13105:13109   */\n      0x00\n        /* \"#utility.yul\":13143:13145   */\n      0x20\n        /* \"#utility.yul\":13132:13141   */\n      dup3\n        /* \"#utility.yul\":13128:13146   */\n      add\n        /* \"#utility.yul\":13120:13146   */\n      swap1\n      pop\n        /* \"#utility.yul\":13192:13201   */\n      dup2\n        /* \"#utility.yul\":13186:13190   */\n      dup2\n        /* \"#utility.yul\":13182:13202   */\n      sub\n        /* \"#utility.yul\":13178:13179   */\n      0x00\n        /* \"#utility.yul\":13167:13176   */\n      dup4\n        /* \"#utility.yul\":13163:13180   */\n      add\n        /* \"#utility.yul\":13156:13203   */\n      mstore\n        /* \"#utility.yul\":13220:13351   */\n      tag_434\n        /* \"#utility.yul\":13346:13350   */\n      dup2\n        /* \"#utility.yul\":13220:13351   */\n      tag_360\n      jump\t// in\n    tag_434:\n        /* \"#utility.yul\":13212:13351   */\n      swap1\n      pop\n        /* \"#utility.yul\":12939:13358   */\n      swap2\n      swap1\n      pop\n      jump\t// out\n        /* \"#utility.yul\":13364:13783   */\n    tag_161:\n        /* \"#utility.yul\":13530:13534   */\n      0x00\n        /* \"#utility.yul\":13568:13570   */\n      0x20\n        /* \"#utility.yul\":13557:13566   */\n      dup3\n        /* \"#utility.yul\":13553:13571   */\n      add\n        /* \"#utility.yul\":13545:13571   */\n      swap1\n      pop\n        /* \"#utility.yul\":13617:13626   */\n      dup2\n        /* \"#utility.yul\":13611:13615   */\n      dup2\n        /* \"#utility.yul\":13607:13627   */\n      sub\n        /* \"#utility.yul\":13603:13604   */\n      0x00\n        /* \"#utility.yul\":13592:13601   */\n      dup4\n        /* \"#utility.yul\":13588:13605   */\n      add\n        /* \"#utility.yul\":13581:13628   */\n      mstore\n        /* \"#utility.yul\":13645:13776   */\n      tag_436\n        /* \"#utility.yul\":13771:13775   */\n      dup2\n        /* \"#utility.yul\":13645:13776   */\n      tag_365\n      jump\t// in\n    tag_436:\n        /* \"#utility.yul\":13637:13776   */\n      swap1\n      pop\n        /* \"#utility.yul\":13364:13783   */\n      swap2\n      swap1\n      pop\n      jump\t// out\n        /* \"#utility.yul\":13789:14208   */\n    tag_174:\n        /* \"#utility.yul\":13955:13959   */\n      0x00\n        /* \"#utility.yul\":13993:13995   */\n      0x20\n        /* \"#utility.yul\":13982:13991   */\n      dup3\n        /* \"#utility.yul\":13978:13996   */\n      add\n        /* \"#utility.yul\":13970:13996   */\n      swap1\n      pop\n        /* \"#utility.yul\":14042:14051   */\n      dup2\n        /* \"#utility.yul\":14036:14040   */\n      dup2\n        /* \"#utility.yul\":14032:14052   */\n      sub\n        /* \"#utility.yul\":14028:14029   */\n      0x00\n        /* \"#utility.yul\":14017:14026   */\n      dup4\n        /* \"#utility.yul\":14013:14030   */\n      add\n        /* \"#utility.yul\":14006:14053   */\n      mstore\n        /* \"#utility.yul\":14070:14201   */\n      tag_438\n        /* \"#utility.yul\":14196:14200   */\n      dup2\n        /* \"#utility.yul\":14070:14201   */\n      tag_370\n      jump\t// in\n    tag_438:\n        /* \"#utility.yul\":14062:14201   */\n      swap1\n      pop\n        /* \"#utility.yul\":13789:14208   */\n      swap2\n      swap1\n      pop\n      jump\t// out\n        /* \"#utility.yul\":14214:14633   */\n    tag_164:\n        /* \"#utility.yul\":14380:14384   */\n      0x00\n        /* \"#utility.yul\":14418:14420   */\n      0x20\n        /* \"#utility.yul\":14407:14416   */\n      dup3\n        /* \"#utility.yul\":14403:14421   */\n      add\n        /* \"#utility.yul\":14395:14421   */\n      swap1\n      pop\n        /* \"#utility.yul\":14467:14476   */\n      dup2\n        /* \"#utility.yul\":14461:14465   */\n      dup2\n        /* \"#utility.yul\":14457:14477   */\n      sub\n        /* \"#utility.yul\":14453:14454   */\n      0x00\n        /* \"#utility.yul\":14442:14451   */\n      dup4\n        /* \"#utility.yul\":14438:14455   */\n      add\n        /* \"#utility.yul\":14431:14478   */\n      mstore\n        /* \"#utility.yul\":14495:14626   */\n      tag_440\n        /* \"#utility.yul\":14621:14625   */\n      dup2\n        /* \"#utility.yul\":14495:14626   */\n      tag_375\n      jump\t// in\n    tag_440:\n        /* \"#utility.yul\":14487:14626   */\n      swap1\n      pop\n        /* \"#utility.yul\":14214:14633   */\n      swap2\n      swap1\n      pop\n      jump\t// out\n        /* \"#utility.yul\":14639:15058   */\n    tag_168:\n        /* \"#utility.yul\":14805:14809   */\n      0x00\n        /* \"#utility.yul\":14843:14845   */\n      0x20\n        /* \"#utility.yul\":14832:14841   */\n      dup3\n        /* \"#utility.yul\":14828:14846   */\n      add\n        /* \"#utility.yul\":14820:14846   */\n      swap1\n      pop\n        /* \"#utility.yul\":14892:14901   */\n      dup2\n        /* \"#utility.yul\":14886:14890   */\n      dup2\n        /* \"#utility.yul\":14882:14902   */\n      sub\n        /* \"#utility.yul\":14878:14879   */\n      0x00\n        /* \"#utility.yul\":14867:14876   */\n      dup4\n        /* \"#utility.yul\":14863:14880   */\n      add\n        /* \"#utility.yul\":14856:14903   */\n      mstore\n        /* \"#utility.yul\":14920:15051   */\n      tag_442\n        /* \"#utility.yul\":15046:15050   */\n      dup2\n        /* \"#utility.yul\":14920:15051   */\n      tag_380\n      jump\t// in\n    tag_442:\n        /* \"#utility.yul\":14912:15051   */\n      swap1\n      pop\n        /* \"#utility.yul\":14639:15058   */\n      swap2\n      swap1\n      pop\n      jump\t// out\n        /* \"#utility.yul\":15064:15483   */\n    tag_120:\n        /* \"#utility.yul\":15230:15234   */\n      0x00\n        /* \"#utility.yul\":15268:15270   */\n      0x20\n        /* \"#utility.yul\":15257:15266   */\n      dup3\n        /* \"#utility.yul\":15253:15271   */\n      add\n        /* \"#utility.yul\":15245:15271   */\n      swap1\n      pop\n        /* \"#utility.yul\":15317:15326   */\n      dup2\n        /* \"#utility.yul\":15311:15315   */\n      dup2\n        /* \"#utility.yul\":15307:15327   */\n      sub\n        /* \"#utility.yul\":15303:15304   */\n      0x00\n        /* \"#utility.yul\":15292:15301   */\n      dup4\n        /* \"#utility.yul\":15288:15305   */\n      add\n        /* \"#utility.yul\":15281:15328   */\n      mstore\n        /* \"#utility.yul\":15345:15476   */\n      tag_444\n        /* \"#utility.yul\":15471:15475   */\n      dup2\n        /* \"#utility.yul\":15345:15476   */\n      tag_385\n      jump\t// in\n    tag_444:\n        /* \"#utility.yul\":15337:15476   */\n      swap1\n      pop\n        /* \"#utility.yul\":15064:15483   */\n      swap2\n      swap1\n      pop\n      jump\t// out\n        /* \"#utility.yul\":15489:15908   */\n    tag_148:\n        /* \"#utility.yul\":15655:15659   */\n      0x00\n        /* \"#utility.yul\":15693:15695   */\n      0x20\n        /* \"#utility.yul\":15682:15691   */\n      dup3\n        /* \"#utility.yul\":15678:15696   */\n      add\n        /* \"#utility.yul\":15670:15696   */\n      swap1\n      pop\n        /* \"#utility.yul\":15742:15751   */\n      dup2\n        /* \"#utility.yul\":15736:15740   */\n      dup2\n        /* \"#utility.yul\":15732:15752   */\n      sub\n        /* \"#utility.yul\":15728:15729   */\n      0x00\n        /* \"#utility.yul\":15717:15726   */\n      dup4\n        /* \"#utility.yul\":15713:15730   */\n      add\n        /* \"#utility.yul\":15706:15753   */\n      mstore\n        /* \"#utility.yul\":15770:15901   */\n      tag_446\n        /* \"#utility.yul\":15896:15900   */\n      dup2\n        /* \"#utility.yul\":15770:15901   */\n      tag_390\n      jump\t// in\n    tag_446:\n        /* \"#utility.yul\":15762:15901   */\n      swap1\n      pop\n        /* \"#utility.yul\":15489:15908   */\n      swap2\n      swap1\n      pop\n      jump\t// out\n        /* \"#utility.yul\":15914:16333   */\n    tag_197:\n        /* \"#utility.yul\":16080:16084   */\n      0x00\n        /* \"#utility.yul\":16118:16120   */\n      0x20\n        /* \"#utility.yul\":16107:16116   */\n      dup3\n        /* \"#utility.yul\":16103:16121   */\n      add\n        /* \"#utility.yul\":16095:16121   */\n      swap1\n      pop\n        /* \"#utility.yul\":16167:16176   */\n      dup2\n        /* \"#utility.yul\":16161:16165   */\n      dup2\n        /* \"#utility.yul\":16157:16177   */\n      sub\n        /* \"#utility.yul\":16153:16154   */\n      0x00\n        /* \"#utility.yul\":16142:16151   */\n      dup4\n        /* \"#utility.yul\":16138:16155   */\n      add\n        /* \"#utility.yul\":16131:16178   */\n      mstore\n        /* \"#utility.yul\":16195:16326   */\n      tag_448\n        /* \"#utility.yul\":16321:16325   */\n      dup2\n        /* \"#utility.yul\":16195:16326   */\n      tag_395\n      jump\t// in\n    tag_448:\n        /* \"#utility.yul\":16187:16326   */\n      swap1\n      pop\n        /* \"#utility.yul\":15914:16333   */\n      swap2\n      swap1\n      pop\n      jump\t// out\n        /* \"#utility.yul\":16339:16758   */\n    tag_152:\n        /* \"#utility.yul\":16505:16509   */\n      0x00\n        /* \"#utility.yul\":16543:16545   */\n      0x20\n        /* \"#utility.yul\":16532:16541   */\n      dup3\n        /* \"#utility.yul\":16528:16546   */\n      add\n        /* \"#utility.yul\":16520:16546   */\n      swap1\n      pop\n        /* \"#utility.yul\":16592:16601   */\n      dup2\n        /* \"#utility.yul\":16586:16590   */\n      dup2\n        /* \"#utility.yul\":16582:16602   */\n      sub\n        /* \"#utility.yul\":16578:16579   */\n      0x00\n        /* \"#utility.yul\":16567:16576   */\n      dup4\n        /* \"#utility.yul\":16563:16580   */\n      add\n        /* \"#utility.yul\":16556:16603   */\n      mstore\n        /* \"#utility.yul\":16620:16751   */\n      tag_450\n        /* \"#utility.yul\":16746:16750   */\n      dup2\n        /* \"#utility.yul\":16620:16751   */\n      tag_400\n      jump\t// in\n    tag_450:\n        /* \"#utility.yul\":16612:16751   */\n      swap1\n      pop\n        /* \"#utility.yul\":16339:16758   */\n      swap2\n      swap1\n      pop\n      jump\t// out\n        /* \"#utility.yul\":16764:17183   */\n    tag_117:\n        /* \"#utility.yul\":16930:16934   */\n      0x00\n        /* \"#utility.yul\":16968:16970   */\n      0x20\n        /* \"#utility.yul\":16957:16966   */\n      dup3\n        /* \"#utility.yul\":16953:16971   */\n      add\n        /* \"#utility.yul\":16945:16971   */\n      swap1\n      pop\n        /* \"#utility.yul\":17017:17026   */\n      dup2\n        /* \"#utility.yul\":17011:17015   */\n      dup2\n        /* \"#utility.yul\":17007:17027   */\n      sub\n        /* \"#utility.yul\":17003:17004   */\n      0x00\n        /* \"#utility.yul\":16992:17001   */\n      dup4\n        /* \"#utility.yul\":16988:17005   */\n      add\n        /* \"#utility.yul\":16981:17028   */\n      mstore\n        /* \"#utility.yul\":17045:17176   */\n      tag_452\n        /* \"#utility.yul\":17171:17175   */\n      dup2\n        /* \"#utility.yul\":17045:17176   */\n      tag_405\n      jump\t// in\n    tag_452:\n        /* \"#utility.yul\":17037:17176   */\n      swap1\n      pop\n        /* \"#utility.yul\":16764:17183   */\n      swap2\n      swap1\n      pop\n      jump\t// out\n        /* \"#utility.yul\":17189:17608   */\n    tag_192:\n        /* \"#utility.yul\":17355:17359   */\n      0x00\n        /* \"#utility.yul\":17393:17395   */\n      0x20\n        /* \"#utility.yul\":17382:17391   */\n      dup3\n        /* \"#utility.yul\":17378:17396   */\n      add\n        /* \"#utility.yul\":17370:17396   */\n      swap1\n      pop\n        /* \"#utility.yul\":17442:17451   */\n      dup2\n        /* \"#utility.yul\":17436:17440   */\n      dup2\n        /* \"#utility.yul\":17432:17452   */\n      sub\n        /* \"#utility.yul\":17428:17429   */\n      0x00\n        /* \"#utility.yul\":17417:17426   */\n      dup4\n        /* \"#utility.yul\":17413:17430   */\n      add\n        /* \"#utility.yul\":17406:17453   */\n      mstore\n        /* \"#utility.yul\":17470:17601   */\n      tag_454\n        /* \"#utility.yul\":17596:17600   */\n      dup2\n        /* \"#utility.yul\":17470:17601   */\n      tag_410\n      jump\t// in\n    tag_454:\n        /* \"#utility.yul\":17462:17601   */\n      swap1\n      pop\n        /* \"#utility.yul\":17189:17608   */\n      swap2\n      swap1\n      pop\n      jump\t// out\n        /* \"#utility.yul\":17614:17836   */\n    tag_34:\n        /* \"#utility.yul\":17707:17711   */\n      0x00\n        /* \"#utility.yul\":17745:17747   */\n      0x20\n        /* \"#utility.yul\":17734:17743   */\n      dup3\n        /* \"#utility.yul\":17730:17748   */\n      add\n        /* \"#utility.yul\":17722:17748   */\n      swap1\n      pop\n        /* \"#utility.yul\":17758:17829   */\n      tag_456\n        /* \"#utility.yul\":17826:17827   */\n      0x00\n        /* \"#utility.yul\":17815:17824   */\n      dup4\n        /* \"#utility.yul\":17811:17828   */\n      add\n        /* \"#utility.yul\":17802:17808   */\n      dup5\n        /* \"#utility.yul\":17758:17829   */\n      tag_415\n      jump\t// in\n    tag_456:\n        /* \"#utility.yul\":17614:17836   */\n      swap3\n      swap2\n      pop\n      pop\n      jump\t// out\n        /* \"#utility.yul\":17842:17971   */\n    tag_255:\n        /* \"#utility.yul\":17876:17882   */\n      0x00\n        /* \"#utility.yul\":17903:17923   */\n      tag_458\n      tag_459\n      jump\t// in\n    tag_458:\n        /* \"#utility.yul\":17893:17923   */\n      swap1\n      pop\n        /* \"#utility.yul\":17932:17965   */\n      tag_460\n        /* \"#utility.yul\":17960:17964   */\n      dup3\n        /* \"#utility.yul\":17952:17958   */\n      dup3\n        /* \"#utility.yul\":17932:17965   */\n      tag_461\n      jump\t// in\n    tag_460:\n        /* \"#utility.yul\":17842:17971   */\n      swap2\n      swap1\n      pop\n      jump\t// out\n        /* \"#utility.yul\":17977:18052   */\n    tag_459:\n        /* \"#utility.yul\":18010:18016   */\n      0x00\n        /* \"#utility.yul\":18043:18045   */\n      0x40\n        /* \"#utility.yul\":18037:18046   */\n      mload\n        /* \"#utility.yul\":18027:18046   */\n      swap1\n      pop\n        /* \"#utility.yul\":17977:18052   */\n      swap1\n      jump\t// out\n        /* \"#utility.yul\":18058:18369   */\n    tag_254:\n        /* \"#utility.yul\":18135:18139   */\n      0x00\n        /* \"#utility.yul\":18225:18243   */\n      0xffffffffffffffff\n        /* \"#utility.yul\":18217:18223   */\n      dup3\n        /* \"#utility.yul\":18214:18244   */\n      gt\n        /* \"#utility.yul\":18211:18267   */\n      iszero\n      tag_464\n      jumpi\n        /* \"#utility.yul\":18247:18265   */\n      tag_465\n      tag_466\n      jump\t// in\n    tag_465:\n        /* \"#utility.yul\":18211:18267   */\n    tag_464:\n        /* \"#utility.yul\":18297:18301   */\n      0x20\n        /* \"#utility.yul\":18289:18295   */\n      dup3\n        /* \"#utility.yul\":18285:18302   */\n      mul\n        /* \"#utility.yul\":18277:18302   */\n      swap1\n      pop\n        /* \"#utility.yul\":18357:18361   */\n      0x20\n        /* \"#utility.yul\":18351:18355   */\n      dup2\n        /* \"#utility.yul\":18347:18362   */\n      add\n        /* \"#utility.yul\":18339:18362   */\n      swap1\n      pop\n        /* \"#utility.yul\":18058:18369   */\n      swap2\n      swap1\n      pop\n      jump\t// out\n        /* \"#utility.yul\":18375:18683   */\n    tag_268:\n        /* \"#utility.yul\":18437:18441   */\n      0x00\n        /* \"#utility.yul\":18527:18545   */\n      0xffffffffffffffff\n        /* \"#utility.yul\":18519:18525   */\n      dup3\n        /* \"#utility.yul\":18516:18546   */\n      gt\n        /* \"#utility.yul\":18513:18569   */\n      iszero\n      tag_468\n      jumpi\n        /* \"#utility.yul\":18549:18567   */\n      tag_469\n      tag_466\n      jump\t// in\n    tag_469:\n        /* \"#utility.yul\":18513:18569   */\n    tag_468:\n        /* \"#utility.yul\":18587:18616   */\n      tag_470\n        /* \"#utility.yul\":18609:18615   */\n      dup3\n        /* \"#utility.yul\":18587:18616   */\n      tag_331\n      jump\t// in\n    tag_470:\n        /* \"#utility.yul\":18579:18616   */\n      swap1\n      pop\n        /* \"#utility.yul\":18671:18675   */\n      0x20\n        /* \"#utility.yul\":18665:18669   */\n      dup2\n        /* \"#utility.yul\":18661:18676   */\n      add\n        /* \"#utility.yul\":18653:18676   */\n      swap1\n      pop\n        /* \"#utility.yul\":18375:18683   */\n      swap2\n      swap1\n      pop\n      jump\t// out\n        /* \"#utility.yul\":18689:18830   */\n    tag_346:\n        /* \"#utility.yul\":18738:18742   */\n      0x00\n        /* \"#utility.yul\":18761:18764   */\n      dup2\n        /* \"#utility.yul\":18753:18764   */\n      swap1\n      pop\n        /* \"#utility.yul\":18784:18787   */\n      dup2\n        /* \"#utility.yul\":18781:18782   */\n      0x00\n        /* \"#utility.yul\":18774:18788   */\n      mstore\n        /* \"#utility.yul\":18818:18822   */\n      0x20\n        /* \"#utility.yul\":18815:18816   */\n      0x00\n        /* \"#utility.yul\":18805:18823   */\n      keccak256\n        /* \"#utility.yul\":18797:18823   */\n      swap1\n      pop\n        /* \"#utility.yul\":18689:18830   */\n      swap2\n      swap1\n      pop\n      jump\t// out\n        /* \"#utility.yul\":18836:18935   */\n    tag_325:\n        /* \"#utility.yul\":18888:18894   */\n      0x00\n        /* \"#utility.yul\":18922:18927   */\n      dup2\n        /* \"#utility.yul\":18916:18928   */\n      mload\n        /* \"#utility.yul\":18906:18928   */\n      swap1\n      pop\n        /* \"#utility.yul\":18836:18935   */\n      swap2\n      swap1\n      pop\n      jump\t// out\n        /* \"#utility.yul\":18941:19110   */\n    tag_327:\n        /* \"#utility.yul\":19025:19036   */\n      0x00\n        /* \"#utility.yul\":19059:19065   */\n      dup3\n        /* \"#utility.yul\":19054:19057   */\n      dup3\n        /* \"#utility.yul\":19047:19066   */\n      mstore\n        /* \"#utility.yul\":19099:19103   */\n      0x20\n        /* \"#utility.yul\":19094:19097   */\n      dup3\n        /* \"#utility.yul\":19090:19104   */\n      add\n        /* \"#utility.yul\":19075:19104   */\n      swap1\n      pop\n        /* \"#utility.yul\":18941:19110   */\n      swap3\n      swap2\n      pop\n      pop\n      jump\t// out\n        /* \"#utility.yul\":19116:19264   */\n    tag_336:\n        /* \"#utility.yul\":19218:19229   */\n      0x00\n        /* \"#utility.yul\":19255:19258   */\n      dup2\n        /* \"#utility.yul\":19240:19258   */\n      swap1\n      pop\n        /* \"#utility.yul\":19116:19264   */\n      swap3\n      swap2\n      pop\n      pop\n      jump\t// out\n        /* \"#utility.yul\":19270:19575   */\n    tag_102:\n        /* \"#utility.yul\":19310:19313   */\n      0x00\n        /* \"#utility.yul\":19329:19349   */\n      tag_476\n        /* \"#utility.yul\":19347:19348   */\n      dup3\n        /* \"#utility.yul\":19329:19349   */\n      tag_418\n      jump\t// in\n    tag_476:\n        /* \"#utility.yul\":19324:19349   */\n      swap2\n      pop\n        /* \"#utility.yul\":19363:19383   */\n      tag_477\n        /* \"#utility.yul\":19381:19382   */\n      dup4\n        /* \"#utility.yul\":19363:19383   */\n      tag_418\n      jump\t// in\n    tag_477:\n        /* \"#utility.yul\":19358:19383   */\n      swap3\n      pop\n        /* \"#utility.yul\":19517:19518   */\n      dup3\n        /* \"#utility.yul\":19449:19515   */\n      0xffffffffffffffffffffffffffffffffffffffffffffffffffffffffffffffff\n        /* \"#utility.yul\":19445:19519   */\n      sub\n        /* \"#utility.yul\":19442:19443   */\n      dup3\n        /* \"#utility.yul\":19439:19520   */\n      gt\n        /* \"#utility.yul\":19436:19543   */\n      iszero\n      tag_478\n      jumpi\n        /* \"#utility.yul\":19523:19541   */\n      tag_479\n      tag_480\n      jump\t// in\n    tag_479:\n        /* \"#utility.yul\":19436:19543   */\n    tag_478:\n        /* \"#utility.yul\":19567:19568   */\n      dup3\n        /* \"#utility.yul\":19564:19565   */\n      dup3\n        /* \"#utility.yul\":19560:19569   */\n      add\n        /* \"#utility.yul\":19553:19569   */\n      swap1\n      pop\n        /* \"#utility.yul\":19270:19575   */\n      swap3\n      swap2\n      pop\n      pop\n      jump\t// out\n        /* \"#utility.yul\":19581:19766   */\n    tag_105:\n        /* \"#utility.yul\":19621:19622   */\n      0x00\n        /* \"#utility.yul\":19638:19658   */\n      tag_482\n        /* \"#utility.yul\":19656:19657   */\n      dup3\n        /* \"#utility.yul\":19638:19658   */\n      tag_418\n      jump\t// in\n    tag_482:\n        /* \"#utility.yul\":19633:19658   */\n      swap2\n      pop\n        /* \"#utility.yul\":19672:19692   */\n      tag_483\n        /* \"#utility.yul\":19690:19691   */\n      dup4\n        /* \"#utility.yul\":19672:19692   */\n      tag_418\n      jump\t// in\n    tag_483:\n        /* \"#utility.yul\":19667:19692   */\n      swap3\n      pop\n        /* \"#utility.yul\":19711:19712   */\n      dup3\n        /* \"#utility.yul\":19701:19736   */\n      tag_484\n      jumpi\n        /* \"#utility.yul\":19716:19734   */\n      tag_485\n      tag_486\n      jump\t// in\n    tag_485:\n        /* \"#utility.yul\":19701:19736   */\n    tag_484:\n        /* \"#utility.yul\":19758:19759   */\n      dup3\n        /* \"#utility.yul\":19755:19756   */\n      dup3\n        /* \"#utility.yul\":19751:19760   */\n      div\n        /* \"#utility.yul\":19746:19760   */\n      swap1\n      pop\n        /* \"#utility.yul\":19581:19766   */\n      swap3\n      swap2\n      pop\n      pop\n      jump\t// out\n        /* \"#utility.yul\":19772:19868   */\n    tag_317:\n        /* \"#utility.yul\":19809:19816   */\n      0x00\n        /* \"#utility.yul\":19838:19862   */\n      tag_488\n        /* \"#utility.yul\":19856:19861   */\n      dup3\n        /* \"#utility.yul\":19838:19862   */\n      tag_489\n      jump\t// in\n    tag_488:\n        /* \"#utility.yul\":19827:19862   */\n      swap1\n      pop\n        /* \"#utility.yul\":19772:19868   */\n      swap2\n      swap1\n      pop\n      jump\t// out\n        /* \"#utility.yul\":19874:19964   */\n    tag_321:\n        /* \"#utility.yul\":19908:19915   */\n      0x00\n        /* \"#utility.yul\":19951:19956   */\n      dup2\n        /* \"#utility.yul\":19944:19957   */\n      iszero\n        /* \"#utility.yul\":19937:19958   */\n      iszero\n        /* \"#utility.yul\":19926:19958   */\n      swap1\n      pop\n        /* \"#utility.yul\":19874:19964   */\n      swap2\n      swap1\n      pop\n      jump\t// out\n        /* \"#utility.yul\":19970:20096   */\n    tag_489:\n        /* \"#utility.yul\":20007:20014   */\n      0x00\n        /* \"#utility.yul\":20047:20089   */\n      0xffffffffffffffffffffffffffffffffffffffff\n        /* \"#utility.yul\":20040:20045   */\n      dup3\n        /* \"#utility.yul\":20036:20090   */\n      and\n        /* \"#utility.yul\":20025:20090   */\n      swap1\n      pop\n        /* \"#utility.yul\":19970:20096   */\n      swap2\n      swap1\n      pop\n      jump\t// out\n        /* \"#utility.yul\":20102:20179   */\n    tag_418:\n        /* \"#utility.yul\":20139:20146   */\n      0x00\n        /* \"#utility.yul\":20168:20173   */\n      dup2\n        /* \"#utility.yul\":20157:20173   */\n      swap1\n      pop\n        /* \"#utility.yul\":20102:20179   */\n      swap2\n      swap1\n      pop\n      jump\t// out\n        /* \"#utility.yul\":20185:20339   */\n    tag_273:\n        /* \"#utility.yul\":20269:20275   */\n      dup3\n        /* \"#utility.yul\":20264:20267   */\n      dup2\n        /* \"#utility.yul\":20259:20262   */\n      dup4\n        /* \"#utility.yul\":20246:20276   */\n      calldatacopy\n        /* \"#utility.yul\":20331:20332   */\n      0x00\n        /* \"#utility.yul\":20322:20328   */\n      dup4\n        /* \"#utility.yul\":20317:20320   */\n      dup4\n        /* \"#utility.yul\":20313:20329   */\n      add\n        /* \"#utility.yul\":20306:20333   */\n      mstore\n        /* \"#utility.yul\":20185:20339   */\n      pop\n      pop\n      pop\n      jump\t// out\n        /* \"#utility.yul\":20345:20652   */\n    tag_329:\n        /* \"#utility.yul\":20413:20414   */\n      0x00\n        /* \"#utility.yul\":20423:20536   */\n    tag_495:\n        /* \"#utility.yul\":20437:20443   */\n      dup4\n        /* \"#utility.yul\":20434:20435   */\n      dup2\n        /* \"#utility.yul\":20431:20444   */\n      lt\n        /* \"#utility.yul\":20423:20536   */\n      iszero\n      tag_497\n      jumpi\n        /* \"#utility.yul\":20522:20523   */\n      dup1\n        /* \"#utility.yul\":20517:20520   */\n      dup3\n        /* \"#utility.yul\":20513:20524   */\n      add\n        /* \"#utility.yul\":20507:20525   */\n      mload\n        /* \"#utility.yul\":20503:20504   */\n      dup2\n        /* \"#utility.yul\":20498:20501   */\n      dup5\n        /* \"#utility.yul\":20494:20505   */\n      add\n        /* \"#utility.yul\":20487:20526   */\n      mstore\n        /* \"#utility.yul\":20459:20461   */\n      0x20\n        /* \"#utility.yul\":20456:20457   */\n      dup2\n        /* \"#utility.yul\":20452:20462   */\n      add\n        /* \"#utility.yul\":20447:20462   */\n      swap1\n      pop\n        /* \"#utility.yul\":20423:20536   */\n      jump(tag_495)\n    tag_497:\n        /* \"#utility.yul\":20554:20560   */\n      dup4\n        /* \"#utility.yul\":20551:20552   */\n      dup2\n        /* \"#utility.yul\":20548:20561   */\n      gt\n        /* \"#utility.yul\":20545:20646   */\n      iszero\n      tag_498\n      jumpi\n        /* \"#utility.yul\":20634:20635   */\n      0x00\n        /* \"#utility.yul\":20625:20631   */\n      dup5\n        /* \"#utility.yul\":20620:20623   */\n      dup5\n        /* \"#utility.yul\":20616:20632   */\n      add\n        /* \"#utility.yul\":20609:20636   */\n      mstore\n        /* \"#utility.yul\":20545:20646   */\n    tag_498:\n        /* \"#utility.yul\":20394:20652   */\n      pop\n        /* \"#utility.yul\":20345:20652   */\n      pop\n      pop\n      pop\n      jump\t// out\n        /* \"#utility.yul\":20658:20978   */\n    tag_109:\n        /* \"#utility.yul\":20702:20708   */\n      0x00\n        /* \"#utility.yul\":20739:20740   */\n      0x02\n        /* \"#utility.yul\":20733:20737   */\n      dup3\n        /* \"#utility.yul\":20729:20741   */\n      div\n        /* \"#utility.yul\":20719:20741   */\n      swap1\n      pop\n        /* \"#utility.yul\":20786:20787   */\n      0x01\n        /* \"#utility.yul\":20780:20784   */\n      dup3\n        /* \"#utility.yul\":20776:20788   */\n      and\n        /* \"#utility.yul\":20807:20825   */\n      dup1\n        /* \"#utility.yul\":20797:20878   */\n      tag_500\n      jumpi\n        /* \"#utility.yul\":20863:20867   */\n      0x7f\n        /* \"#utility.yul\":20855:20861   */\n      dup3\n        /* \"#utility.yul\":20851:20868   */\n      and\n        /* \"#utility.yul\":20841:20868   */\n      swap2\n      pop\n        /* \"#utility.yul\":20797:20878   */\n    tag_500:\n        /* \"#utility.yul\":20925:20927   */\n      0x20\n        /* \"#utility.yul\":20917:20923   */\n      dup3\n        /* \"#utility.yul\":20914:20928   */\n      lt\n        /* \"#utility.yul\":20894:20912   */\n      dup2\n        /* \"#utility.yul\":20891:20929   */\n      eq\n        /* \"#utility.yul\":20888:20972   */\n      iszero\n      tag_501\n      jumpi\n        /* \"#utility.yul\":20944:20962   */\n      tag_502\n      tag_503\n      jump\t// in\n    tag_502:\n        /* \"#utility.yul\":20888:20972   */\n    tag_501:\n        /* \"#utility.yul\":20709:20978   */\n      pop\n        /* \"#utility.yul\":20658:20978   */\n      swap2\n      swap1\n      pop\n      jump\t// out\n        /* \"#utility.yul\":20984:21265   */\n    tag_461:\n        /* \"#utility.yul\":21067:21094   */\n      tag_505\n        /* \"#utility.yul\":21089:21093   */\n      dup3\n        /* \"#utility.yul\":21067:21094   */\n      tag_331\n      jump\t// in\n    tag_505:\n        /* \"#utility.yul\":21059:21065   */\n      dup2\n        /* \"#utility.yul\":21055:21095   */\n      add\n        /* \"#utility.yul\":21197:21203   */\n      dup2\n        /* \"#utility.yul\":21185:21195   */\n      dup2\n        /* \"#utility.yul\":21182:21204   */\n      lt\n        /* \"#utility.yul\":21161:21179   */\n      0xffffffffffffffff\n        /* \"#utility.yul\":21149:21159   */\n      dup3\n        /* \"#utility.yul\":21146:21180   */\n      gt\n        /* \"#utility.yul\":21143:21205   */\n      or\n        /* \"#utility.yul\":21140:21228   */\n      iszero\n      tag_506\n      jumpi\n        /* \"#utility.yul\":21208:21226   */\n      tag_507\n      tag_466\n      jump\t// in\n    tag_507:\n        /* \"#utility.yul\":21140:21228   */\n    tag_506:\n        /* \"#utility.yul\":21248:21258   */\n      dup1\n        /* \"#utility.yul\":21244:21246   */\n      0x40\n        /* \"#utility.yul\":21237:21259   */\n      mstore\n        /* \"#utility.yul\":21027:21265   */\n      pop\n        /* \"#utility.yul\":20984:21265   */\n      pop\n      pop\n      jump\t// out\n        /* \"#utility.yul\":21271:21504   */\n    tag_92:\n        /* \"#utility.yul\":21310:21313   */\n      0x00\n        /* \"#utility.yul\":21333:21357   */\n      tag_509\n        /* \"#utility.yul\":21351:21356   */\n      dup3\n        /* \"#utility.yul\":21333:21357   */\n      tag_418\n      jump\t// in\n    tag_509:\n        /* \"#utility.yul\":21324:21357   */\n      swap2\n      pop\n        /* \"#utility.yul\":21379:21445   */\n      0xffffffffffffffffffffffffffffffffffffffffffffffffffffffffffffffff\n        /* \"#utility.yul\":21372:21377   */\n      dup3\n        /* \"#utility.yul\":21369:21446   */\n      eq\n        /* \"#utility.yul\":21366:21469   */\n      iszero\n      tag_510\n      jumpi\n        /* \"#utility.yul\":21449:21467   */\n      tag_511\n      tag_480\n      jump\t// in\n    tag_511:\n        /* \"#utility.yul\":21366:21469   */\n    tag_510:\n        /* \"#utility.yul\":21496:21497   */\n      0x01\n        /* \"#utility.yul\":21489:21494   */\n      dup3\n        /* \"#utility.yul\":21485:21498   */\n      add\n        /* \"#utility.yul\":21478:21498   */\n      swap1\n      pop\n        /* \"#utility.yul\":21271:21504   */\n      swap2\n      swap1\n      pop\n      jump\t// out\n        /* \"#utility.yul\":21510:21690   */\n    tag_480:\n        /* \"#utility.yul\":21558:21635   */\n      0x4e487b7100000000000000000000000000000000000000000000000000000000\n        /* \"#utility.yul\":21555:21556   */\n      0x00\n        /* \"#utility.yul\":21548:21636   */\n      mstore\n        /* \"#utility.yul\":21655:21659   */\n      0x11\n        /* \"#utility.yul\":21652:21653   */\n      0x04\n        /* \"#utility.yul\":21645:21660   */\n      mstore\n        /* \"#utility.yul\":21679:21683   */\n      0x24\n        /* \"#utility.yul\":21676:21677   */\n      0x00\n        /* \"#utility.yul\":21669:21684   */\n      revert\n        /* \"#utility.yul\":21696:21876   */\n    tag_486:\n        /* \"#utility.yul\":21744:21821   */\n      0x4e487b7100000000000000000000000000000000000000000000000000000000\n        /* \"#utility.yul\":21741:21742   */\n      0x00\n        /* \"#utility.yul\":21734:21822   */\n      mstore\n        /* \"#utility.yul\":21841:21845   */\n      0x12\n        /* \"#utility.yul\":21838:21839   */\n      0x04\n        /* \"#utility.yul\":21831:21846   */\n      mstore\n        /* \"#utility.yul\":21865:21869   */\n      0x24\n        /* \"#utility.yul\":21862:21863   */\n      0x00\n        /* \"#utility.yul\":21855:21870   */\n      revert\n        /* \"#utility.yul\":21882:22062   */\n    tag_503:\n        /* \"#utility.yul\":21930:22007   */\n      0x4e487b7100000000000000000000000000000000000000000000000000000000\n        /* \"#utility.yul\":21927:21928   */\n      0x00\n        /* \"#utility.yul\":21920:22008   */\n      mstore\n        /* \"#utility.yul\":22027:22031   */\n      0x22\n        /* \"#utility.yul\":22024:22025   */\n      0x04\n        /* \"#utility.yul\":22017:22032   */\n      mstore\n        /* \"#utility.yul\":22051:22055   */\n      0x24\n        /* \"#utility.yul\":22048:22049   */\n      0x00\n        /* \"#utility.yul\":22041:22056   */\n      revert\n        /* \"#utility.yul\":22068:22248   */\n    tag_82:\n        /* \"#utility.yul\":22116:22193   */\n      0x4e487b7100000000000000000000000000000000000000000000000000000000\n        /* \"#utility.yul\":22113:22114   */\n      0x00\n        /* \"#utility.yul\":22106:22194   */\n      mstore\n        /* \"#utility.yul\":22213:22217   */\n      0x32\n        /* \"#utility.yul\":22210:22211   */\n      0x04\n        /* \"#utility.yul\":22203:22218   */\n      mstore\n        /* \"#utility.yul\":22237:22241   */\n      0x24\n        /* \"#utility.yul\":22234:22235   */\n      0x00\n        /* \"#utility.yul\":22227:22242   */\n      revert\n        /* \"#utility.yul\":22254:22434   */\n    tag_466:\n        /* \"#utility.yul\":22302:22379   */\n      0x4e487b7100000000000000000000000000000000000000000000000000000000\n        /* \"#utility.yul\":22299:22300   */\n      0x00\n        /* \"#utility.yul\":22292:22380   */\n      mstore\n        /* \"#utility.yul\":22399:22403   */\n      0x41\n        /* \"#utility.yul\":22396:22397   */\n      0x04\n        /* \"#utility.yul\":22389:22404   */\n      mstore\n        /* \"#utility.yul\":22423:22427   */\n      0x24\n        /* \"#utility.yul\":22420:22421   */\n      0x00\n        /* \"#utility.yul\":22413:22428   */\n      revert\n        /* \"#utility.yul\":22440:22557   */\n    tag_281:\n        /* \"#utility.yul\":22549:22550   */\n      0x00\n        /* \"#utility.yul\":22546:22547   */\n      dup1\n        /* \"#utility.yul\":22539:22551   */\n      revert\n        /* \"#utility.yul\":22563:22680   */\n    tag_258:\n        /* \"#utility.yul\":22672:22673   */\n      0x00\n        /* \"#utility.yul\":22669:22670   */\n      dup1\n        /* \"#utility.yul\":22662:22674   */\n      revert\n        /* \"#utility.yul\":22686:22803   */\n    tag_271:\n        /* \"#utility.yul\":22795:22796   */\n      0x00\n        /* \"#utility.yul\":22792:22793   */\n      dup1\n        /* \"#utility.yul\":22785:22797   */\n      revert\n        /* \"#utility.yul\":22809:22926   */\n    tag_302:\n        /* \"#utility.yul\":22918:22919   */\n      0x00\n        /* \"#utility.yul\":22915:22916   */\n      dup1\n        /* \"#utility.yul\":22908:22920   */\n      revert\n        /* \"#utility.yul\":22932:23049   */\n    tag_295:\n        /* \"#utility.yul\":23041:23042   */\n      0x00\n        /* \"#utility.yul\":23038:23039   */\n      dup1\n        /* \"#utility.yul\":23031:23043   */\n      revert\n        /* \"#utility.yul\":23055:23157   */\n    tag_331:\n        /* \"#utility.yul\":23096:23102   */\n      0x00\n        /* \"#utility.yul\":23147:23149   */\n      0x1f\n        /* \"#utility.yul\":23143:23150   */\n      not\n        /* \"#utility.yul\":23138:23140   */\n      0x1f\n        /* \"#utility.yul\":23131:23136   */\n      dup4\n        /* \"#utility.yul\":23127:23141   */\n      add\n        /* \"#utility.yul\":23123:23151   */\n      and\n        /* \"#utility.yul\":23113:23151   */\n      swap1\n      pop\n        /* \"#utility.yul\":23055:23157   */\n      swap2\n      swap1\n      pop\n      jump\t// out\n        /* \"#utility.yul\":23163:23340   */\n    tag_354:\n        /* \"#utility.yul\":23303:23332   */\n      0x48652f53686520686173206e6f20726967687420746f20766f74650000000000\n        /* \"#utility.yul\":23299:23300   */\n      0x00\n        /* \"#utility.yul\":23291:23297   */\n      dup3\n        /* \"#utility.yul\":23287:23301   */\n      add\n        /* \"#utility.yul\":23280:23333   */\n      mstore\n        /* \"#utility.yul\":23163:23340   */\n      pop\n      jump\t// out\n        /* \"#utility.yul\":23346:23512   */\n    tag_359:\n        /* \"#utility.yul\":23486:23504   */\n      0x4c4152474552205448414e204d41582100000000000000000000000000000000\n        /* \"#utility.yul\":23482:23483   */\n      0x00\n        /* \"#utility.yul\":23474:23480   */\n      dup3\n        /* \"#utility.yul\":23470:23484   */\n      add\n        /* \"#utility.yul\":23463:23505   */\n      mstore\n        /* \"#utility.yul\":23346:23512   */\n      pop\n      jump\t// out\n        /* \"#utility.yul\":23518:23681   */\n    tag_364:\n        /* \"#utility.yul\":23658:23673   */\n      0x416c726561647920766f74656400000000000000000000000000000000000000\n        /* \"#utility.yul\":23654:23655   */\n      0x00\n        /* \"#utility.yul\":23646:23652   */\n      dup3\n        /* \"#utility.yul\":23642:23656   */\n      add\n        /* \"#utility.yul\":23635:23674   */\n      mstore\n        /* \"#utility.yul\":23518:23681   */\n      pop\n      jump\t// out\n        /* \"#utility.yul\":23687:23908   */\n    tag_369:\n        /* \"#utility.yul\":23827:23861   */\n      0x6f6e6c792063686169726d616e2063616e20657874656e64207468652074696d\n        /* \"#utility.yul\":23823:23824   */\n      0x00\n        /* \"#utility.yul\":23815:23821   */\n      dup3\n        /* \"#utility.yul\":23811:23825   */\n      add\n        /* \"#utility.yul\":23804:23862   */\n      mstore\n        /* \"#utility.yul\":23896:23900   */\n      0x6521000000000000000000000000000000000000000000000000000000000000\n        /* \"#utility.yul\":23891:23893   */\n      0x20\n        /* \"#utility.yul\":23883:23889   */\n      dup3\n        /* \"#utility.yul\":23879:23894   */\n      add\n        /* \"#utility.yul\":23872:23901   */\n      mstore\n        /* \"#utility.yul\":23687:23908   */\n      pop\n      jump\t// out\n        /* \"#utility.yul\":23914:24076   */\n    tag_374:\n        /* \"#utility.yul\":24054:24068   */\n      0x4953205245504541544544210000000000000000000000000000000000000000\n        /* \"#utility.yul\":24050:24051   */\n      0x00\n        /* \"#utility.yul\":24042:24048   */\n      dup3\n        /* \"#utility.yul\":24038:24052   */\n      add\n        /* \"#utility.yul\":24031:24069   */\n      mstore\n        /* \"#utility.yul\":23914:24076   */\n      pop\n      jump\t// out\n        /* \"#utility.yul\":24082:24260   */\n    tag_379:\n        /* \"#utility.yul\":24222:24252   */\n      0x54484520454c454354494f4e20484153204245454e20454e4445442100000000\n        /* \"#utility.yul\":24218:24219   */\n      0x00\n        /* \"#utility.yul\":24210:24216   */\n      dup3\n        /* \"#utility.yul\":24206:24220   */\n      add\n        /* \"#utility.yul\":24199:24253   */\n      mstore\n        /* \"#utility.yul\":24082:24260   */\n      pop\n      jump\t// out\n        /* \"#utility.yul\":24266:24447   */\n    tag_384:\n        /* \"#utility.yul\":24406:24439   */\n      0x6f6e6c792063686169726d616e2063616e20656e74657220766f746572732100\n        /* \"#utility.yul\":24402:24403   */\n      0x00\n        /* \"#utility.yul\":24394:24400   */\n      dup3\n        /* \"#utility.yul\":24390:24404   */\n      add\n        /* \"#utility.yul\":24383:24440   */\n      mstore\n        /* \"#utility.yul\":24266:24447   */\n      pop\n      jump\t// out\n        /* \"#utility.yul\":24453:24635   */\n    tag_389:\n        /* \"#utility.yul\":24593:24627   */\n      0x54484520454c454354494f4e20484153204e4f54204245454e20454e44454421\n        /* \"#utility.yul\":24589:24590   */\n      0x00\n        /* \"#utility.yul\":24581:24587   */\n      dup3\n        /* \"#utility.yul\":24577:24591   */\n      add\n        /* \"#utility.yul\":24570:24628   */\n      mstore\n        /* \"#utility.yul\":24453:24635   */\n      pop\n      jump\t// out\n        /* \"#utility.yul\":24641:24804   */\n    tag_394:\n        /* \"#utility.yul\":24781:24796   */\n      0x69732063616e63656c6c65642100000000000000000000000000000000000000\n        /* \"#utility.yul\":24777:24778   */\n      0x00\n        /* \"#utility.yul\":24769:24775   */\n      dup3\n        /* \"#utility.yul\":24765:24779   */\n      add\n        /* \"#utility.yul\":24758:24797   */\n      mstore\n        /* \"#utility.yul\":24641:24804   */\n      pop\n      jump\t// out\n        /* \"#utility.yul\":24810:24983   */\n    tag_399:\n        /* \"#utility.yul\":24950:24975   */\n      0x74686520766f74657220616c726561647920766f746564000000000000000000\n        /* \"#utility.yul\":24946:24947   */\n      0x00\n        /* \"#utility.yul\":24938:24944   */\n      dup3\n        /* \"#utility.yul\":24934:24948   */\n      add\n        /* \"#utility.yul\":24927:24976   */\n      mstore\n        /* \"#utility.yul\":24810:24983   */\n      pop\n      jump\t// out\n        /* \"#utility.yul\":24989:25149   */\n    tag_404:\n        /* \"#utility.yul\":25129:25141   */\n      0x4e4f2057494e4e45522100000000000000000000000000000000000000000000\n        /* \"#utility.yul\":25125:25126   */\n      0x00\n        /* \"#utility.yul\":25117:25123   */\n      dup3\n        /* \"#utility.yul\":25113:25127   */\n      add\n        /* \"#utility.yul\":25106:25142   */\n      mstore\n        /* \"#utility.yul\":24989:25149   */\n      pop\n      jump\t// out\n        /* \"#utility.yul\":25155:25380   */\n    tag_409:\n        /* \"#utility.yul\":25295:25329   */\n      0x54484520454c454354494f4e20484153204e4f54204245454e20535441525445\n        /* \"#utility.yul\":25291:25292   */\n      0x00\n        /* \"#utility.yul\":25283:25289   */\n      dup3\n        /* \"#utility.yul\":25279:25293   */\n      add\n        /* \"#utility.yul\":25272:25330   */\n      mstore\n        /* \"#utility.yul\":25364:25372   */\n      0x4420594554210000000000000000000000000000000000000000000000000000\n        /* \"#utility.yul\":25359:25361   */\n      0x20\n        /* \"#utility.yul\":25351:25357   */\n      dup3\n        /* \"#utility.yul\":25347:25362   */\n      add\n        /* \"#utility.yul\":25340:25373   */\n      mstore\n        /* \"#utility.yul\":25155:25380   */\n      pop\n      jump\t// out\n        /* \"#utility.yul\":25386:25609   */\n    tag_414:\n        /* \"#utility.yul\":25526:25560   */\n      0x6f6e6c792063686169726d616e2063616e206769766520726967687420746f20\n        /* \"#utility.yul\":25522:25523   */\n      0x00\n        /* \"#utility.yul\":25514:25520   */\n      dup3\n        /* \"#utility.yul\":25510:25524   */\n      add\n        /* \"#utility.yul\":25503:25561   */\n      mstore\n        /* \"#utility.yul\":25595:25601   */\n      0x766f746500000000000000000000000000000000000000000000000000000000\n        /* \"#utility.yul\":25590:25592   */\n      0x20\n        /* \"#utility.yul\":25582:25588   */\n      dup3\n        /* \"#utility.yul\":25578:25593   */\n      add\n        /* \"#utility.yul\":25571:25602   */\n      mstore\n        /* \"#utility.yul\":25386:25609   */\n      pop\n      jump\t// out\n        /* \"#utility.yul\":25615:25737   */\n    tag_276:\n        /* \"#utility.yul\":25688:25712   */\n      tag_537\n        /* \"#utility.yul\":25706:25711   */\n      dup2\n        /* \"#utility.yul\":25688:25712   */\n      tag_317\n      jump\t// in\n    tag_537:\n        /* \"#utility.yul\":25681:25686   */\n      dup2\n        /* \"#utility.yul\":25678:25713   */\n      eq\n        /* \"#utility.yul\":25668:25731   */\n      tag_538\n      jumpi\n        /* \"#utility.yul\":25727:25728   */\n      0x00\n        /* \"#utility.yul\":25724:25725   */\n      dup1\n        /* \"#utility.yul\":25717:25729   */\n      revert\n        /* \"#utility.yul\":25668:25731   */\n    tag_538:\n        /* \"#utility.yul\":25615:25737   */\n      pop\n      jump\t// out\n        /* \"#utility.yul\":25743:25865   */\n    tag_291:\n        /* \"#utility.yul\":25816:25840   */\n      tag_540\n        /* \"#utility.yul\":25834:25839   */\n      dup2\n        /* \"#utility.yul\":25816:25840   */\n      tag_418\n      jump\t// in\n    tag_540:\n        /* \"#utility.yul\":25809:25814   */\n      dup2\n        /* \"#utility.yul\":25806:25841   */\n      eq\n        /* \"#utility.yul\":25796:25859   */\n      tag_541\n      jumpi\n        /* \"#utility.yul\":25855:25856   */\n      0x00\n        /* \"#utility.yul\":25852:25853   */\n      dup1\n        /* \"#utility.yul\":25845:25857   */\n      revert\n        /* \"#utility.yul\":25796:25859   */\n    tag_541:\n        /* \"#utility.yul\":25743:25865   */\n      pop\n      jump\t// out\n\n    auxdata: 0xa2646970667358221220b37f737056bbe6ee5478010d1df59948c2ce76e896919b36ed73ebb88bff6be164736f6c63430008070033\n}\n",
				"bytecode": {
					"linkReferences": {},
					"object": "60806040526000600a553480156200001657600080fd5b50604051620026d9380380620026d983398181016040528101906200003c919062000439565b60005b8151811015620000a2576000600c8383815181106200006357620000626200074b565b5b60200260200101516040516200007a919062000536565b908152602001604051809103902081905550808062000099906200069f565b9150506200003f565b5083600781905550826008819055508160098190555080600d9080519060200190620000d092919062000150565b50336000806101000a81548173ffffffffffffffffffffffffffffffffffffffff021916908373ffffffffffffffffffffffffffffffffffffffff160217905550846001908051906020019062000129929190620001b7565b506000600460006101000a81548160ff0219169083151502179055505050505050620007ed565b828054828255906000526020600020908101928215620001a4579160200282015b82811115620001a357825182908051906020019062000192929190620001b7565b509160200191906001019062000171565b5b509050620001b3919062000248565b5090565b828054620001c59062000633565b90600052602060002090601f016020900481019282620001e9576000855562000235565b82601f106200020457805160ff191683800117855562000235565b8280016001018555821562000235579182015b828111156200023457825182559160200191906001019062000217565b5b50905062000244919062000270565b5090565b5b808211156200026c57600081816200026291906200028f565b5060010162000249565b5090565b5b808211156200028b57600081600090555060010162000271565b5090565b5080546200029d9062000633565b6000825580601f10620002b15750620002d2565b601f016020900490600052602060002090810190620002d1919062000270565b5b50565b6000620002ec620002e68462000578565b6200054f565b90508083825260208201905082856020860282011115620003125762000311620007ae565b5b60005b858110156200036757815167ffffffffffffffff8111156200033c576200033b620007a9565b5b8086016200034b8982620003ef565b8552602085019450602084019350505060018101905062000315565b5050509392505050565b6000620003886200038284620005a7565b6200054f565b905082815260208101848484011115620003a757620003a6620007b3565b5b620003b4848285620005fd565b509392505050565b600082601f830112620003d457620003d3620007a9565b5b8151620003e6848260208601620002d5565b91505092915050565b600082601f830112620004075762000406620007a9565b5b81516200041984826020860162000371565b91505092915050565b6000815190506200043381620007d3565b92915050565b600080600080600060a08688031215620004585762000457620007bd565b5b600086015167ffffffffffffffff811115620004795762000478620007b8565b5b6200048788828901620003ef565b95505060206200049a8882890162000422565b9450506040620004ad8882890162000422565b9350506060620004c08882890162000422565b925050608086015167ffffffffffffffff811115620004e457620004e3620007b8565b5b620004f288828901620003bc565b9150509295509295909350565b60006200050c82620005dd565b620005188185620005e8565b93506200052a818560208601620005fd565b80840191505092915050565b6000620005448284620004ff565b915081905092915050565b60006200055b6200056e565b905062000569828262000669565b919050565b6000604051905090565b600067ffffffffffffffff8211156200059657620005956200077a565b5b602082029050602081019050919050565b600067ffffffffffffffff821115620005c557620005c46200077a565b5b620005d082620007c2565b9050602081019050919050565b600081519050919050565b600081905092915050565b6000819050919050565b60005b838110156200061d57808201518184015260208101905062000600565b838111156200062d576000848401525b50505050565b600060028204905060018216806200064c57607f821691505b602082108114156200066357620006626200071c565b5b50919050565b6200067482620007c2565b810181811067ffffffffffffffff821117156200069657620006956200077a565b5b80604052505050565b6000620006ac82620005f3565b91507fffffffffffffffffffffffffffffffffffffffffffffffffffffffffffffffff821415620006e257620006e1620006ed565b5b600182019050919050565b7f4e487b7100000000000000000000000000000000000000000000000000000000600052601160045260246000fd5b7f4e487b7100000000000000000000000000000000000000000000000000000000600052602260045260246000fd5b7f4e487b7100000000000000000000000000000000000000000000000000000000600052603260045260246000fd5b7f4e487b7100000000000000000000000000000000000000000000000000000000600052604160045260246000fd5b600080fd5b600080fd5b600080fd5b600080fd5b600080fd5b6000601f19601f8301169050919050565b620007de81620005f3565b8114620007ea57600080fd5b50565b611edc80620007fd6000396000f3fe608060405234801561001057600080fd5b50600436106100ea5760003560e01c8063982eb6a91161008c578063bbe4524e11610066578063bbe4524e14610227578063cfdd26ea14610257578063f2fb726314610287578063fc36e15b146102b7576100ea565b8063982eb6a9146101bf578063a8fdcd0f146101db578063b64faa94146101f7576100ea565b80634d80a044116100c85780634d80a04414610149578063653721471461016757806387f7b975146101855780639714378c146101a3576100ea565b80632462c8d6146100ef5780632decc4d51461010d5780634a79d50c1461012b575b600080fd5b6100f76102d3565b6040516101049190611669565b60405180910390f35b6101156103c5565b6040516101229190611669565b60405180910390f35b610133610461565b6040516101409190611684565b60405180910390f35b6101516104ef565b60405161015e9190611846565b60405180910390f35b61016f6104f5565b60405161017c9190611684565b60405180910390f35b61018d6107c1565b60405161019a919061164e565b60405180910390f35b6101bd60048036038101906101b89190611316565b6107e5565b005b6101d960048036038101906101d49190611284565b6108c2565b005b6101f560048036038101906101f09190611257565b610aea565b005b610211600480360381019061020c9190611316565b610cab565b60405161021e919061164e565b60405180910390f35b610241600480360381019061023c9190611316565b610cea565b60405161024e9190611684565b60405180910390f35b610271600480360381019061026c9190611284565b610d96565b60405161027e9190611669565b60405180910390f35b6102a1600480360381019061029c9190611284565b610e80565b6040516102ae9190611669565b60405180910390f35b6102d160048036038101906102cc91906112cd565b610eb0565b005b600080600090505b600d805490508110156103bc57600b6040516020016102fa9190611637565b60405160208183030381529060405280519060200120600d828154811061032457610323611b69565b5b9060005260206000200160405160200161033e9190611637565b60405160208183030381529060405280519060200120146103a957600a54600c600d838154811061037257610371611b69565b5b906000526020600020016040516103899190611637565b90815260200160405180910390205414156103a85760019150506103c2565b5b80806103b490611a93565b9150506102db565b50600090505b90565b6000806000905060005b600d8054905081101561043857600c600d82815481106103f2576103f1611b69565b5b906000526020600020016040516104099190611637565b90815260200160405180910390205482610423919061191f565b9150808061043090611a93565b9150506103cf565b5060026009546104489190611975565b811161045857600191505061045e565b60009150505b90565b6001805461046e90611a30565b80601f016020809104026020016040519081016040528092919081815260200182805461049a90611a30565b80156104e75780601f106104bc576101008083540402835291602001916104e7565b820191906000526020600020905b8154815290600101906020018083116104ca57829003601f168201915b505050505081565b60095481565b606060075442101561053c576040517f08c379a000000000000000000000000000000000000000000000000000000000815260040161053390611806565b60405180910390fd5b6008544211610580576040517f08c379a000000000000000000000000000000000000000000000000000000000815260040161057790611786565b60405180910390fd5b600d60008154811061059557610594611b69565b5b90600052602060002001600b9080546105ad90611a30565b6105b8929190611075565b506000600190505b600d805490508110156106a057600a54600c600d83815481106105e6576105e5611b69565b5b906000526020600020016040516105fd9190611637565b908152602001604051809103902054111561068d57600c600d828154811061062857610627611b69565b5b9060005260206000200160405161063f9190611637565b908152602001604051809103902054600a81905550600d818154811061066857610667611b69565b5b90600052602060002001600b90805461068090611a30565b61068b929190611075565b505b808061069890611a93565b9150506105c0565b506106a96103c5565b156106e9576040517f08c379a00000000000000000000000000000000000000000000000000000000081526004016106e0906117a6565b60405180910390fd5b6106f16102d3565b15610731576040517f08c379a0000000000000000000000000000000000000000000000000000000008152600401610728906117e6565b60405180910390fd5b600b805461073e90611a30565b80601f016020809104026020016040519081016040528092919081815260200182805461076a90611a30565b80156107b75780601f1061078c576101008083540402835291602001916107b7565b820191906000526020600020905b81548152906001019060200180831161079a57829003601f168201915b5050505050905090565b60008054906101000a900473ffffffffffffffffffffffffffffffffffffffff1681565b60008054906101000a900473ffffffffffffffffffffffffffffffffffffffff1673ffffffffffffffffffffffffffffffffffffffff163373ffffffffffffffffffffffffffffffffffffffff1614610873576040517f08c379a000000000000000000000000000000000000000000000000000000000815260040161086a90611706565b60405180910390fd5b6008544211156108b8576040517f08c379a00000000000000000000000000000000000000000000000000000000081526004016108af90611746565b60405180910390fd5b8060088190555050565b60008054906101000a900473ffffffffffffffffffffffffffffffffffffffff1673ffffffffffffffffffffffffffffffffffffffff163373ffffffffffffffffffffffffffffffffffffffff1614610950576040517f08c379a000000000000000000000000000000000000000000000000000000000815260040161094790611766565b60405180910390fd5b600854421115610995576040517f08c379a000000000000000000000000000000000000000000000000000000000815260040161098c90611746565b60405180910390fd5b61099e81610d96565b156109de576040517f08c379a00000000000000000000000000000000000000000000000000000000081526004016109d590611726565b60405180910390fd5b6109e781610e80565b15610a27576040517f08c379a0000000000000000000000000000000000000000000000000000000008152600401610a1e906116c6565b60405180910390fd5b60005b8151811015610ae6576003828281518110610a4857610a47611b69565b5b60200260200101519080600181540180825580915050600190039060005260206000200160009091909190916101000a81548173ffffffffffffffffffffffffffffffffffffffff021916908373ffffffffffffffffffffffffffffffffffffffff160217905550610ad3828281518110610ac657610ac5611b69565b5b6020026020010151610aea565b8080610ade90611a93565b915050610a2a565b5050565b60008054906101000a900473ffffffffffffffffffffffffffffffffffffffff1673ffffffffffffffffffffffffffffffffffffffff163373ffffffffffffffffffffffffffffffffffffffff1614610b78576040517f08c379a0000000000000000000000000000000000000000000000000000000008152600401610b6f90611826565b60405180910390fd5b600854421115610bbd576040517f08c379a0000000000000000000000000000000000000000000000000000000008152600401610bb490611746565b60405180910390fd5b600260008273ffffffffffffffffffffffffffffffffffffffff1673ffffffffffffffffffffffffffffffffffffffff16815260200190815260200160002060000160019054906101000a900460ff1615610c4d576040517f08c379a0000000000000000000000000000000000000000000000000000000008152600401610c44906117c6565b60405180910390fd5b6001600260008373ffffffffffffffffffffffffffffffffffffffff1673ffffffffffffffffffffffffffffffffffffffff16815260200190815260200160002060000160006101000a81548160ff02191690831515021790555050565b60038181548110610cbb57600080fd5b906000526020600020016000915054906101000a900473ffffffffffffffffffffffffffffffffffffffff1681565b600d8181548110610cfa57600080fd5b906000526020600020016000915090508054610d1590611a30565b80601f0160208091040260200160405190810160405280929190818152602001828054610d4190611a30565b8015610d8e5780601f10610d6357610100808354040283529160200191610d8e565b820191906000526020600020905b815481529060010190602001808311610d7157829003601f168201915b505050505081565b600080600090505b8251811015610e755760005b600380549050811015610e615760038181548110610dcb57610dca611b69565b5b9060005260206000200160009054906101000a900473ffffffffffffffffffffffffffffffffffffffff1673ffffffffffffffffffffffffffffffffffffffff16848381518110610e1f57610e1e611b69565b5b602002602001015173ffffffffffffffffffffffffffffffffffffffff161415610e4e57600192505050610e7b565b8080610e5990611a93565b915050610daa565b508080610e6d90611a93565b915050610d9e565b50600090505b919050565b60006009548251600380549050610e97919061191f565b1115610ea65760019050610eab565b600090505b919050565b600754421015610ef5576040517f08c379a0000000000000000000000000000000000000000000000000000000008152600401610eec90611806565b60405180910390fd5b600854421115610f3a576040517f08c379a0000000000000000000000000000000000000000000000000000000008152600401610f3190611746565b60405180910390fd5b6000600260003373ffffffffffffffffffffffffffffffffffffffff1673ffffffffffffffffffffffffffffffffffffffff16815260200190815260200160002090508060000160009054906101000a900460ff16610fce576040517f08c379a0000000000000000000000000000000000000000000000000000000008152600401610fc5906116a6565b60405180910390fd5b8060000160019054906101000a900460ff1615611020576040517f08c379a0000000000000000000000000000000000000000000000000000000008152600401611017906116e6565b60405180910390fd5b60018160000160016101000a81548160ff021916908315150217905550600c8260405161104d9190611620565b9081526020016040518091039020600081548092919061106c90611a93565b91905055505050565b82805461108190611a30565b90600052602060002090601f0160209004810192826110a357600085556110f1565b82601f106110b457805485556110f1565b828001600101855582156110f157600052602060002091601f016020900482015b828111156110f05782548255916001019190600101906110d5565b5b5090506110fe9190611102565b5090565b5b8082111561111b576000816000905550600101611103565b5090565b600061113261112d84611886565b611861565b9050808382526020820190508285602086028201111561115557611154611bcc565b5b60005b85811015611185578161116b88826111d1565b845260208401935060208301925050600181019050611158565b5050509392505050565b60006111a261119d846118b2565b611861565b9050828152602081018484840111156111be576111bd611bd1565b5b6111c98482856119ee565b509392505050565b6000813590506111e081611e78565b92915050565b600082601f8301126111fb576111fa611bc7565b5b813561120b84826020860161111f565b91505092915050565b600082601f83011261122957611228611bc7565b5b813561123984826020860161118f565b91505092915050565b60008135905061125181611e8f565b92915050565b60006020828403121561126d5761126c611bdb565b5b600061127b848285016111d1565b91505092915050565b60006020828403121561129a57611299611bdb565b5b600082013567ffffffffffffffff8111156112b8576112b7611bd6565b5b6112c4848285016111e6565b91505092915050565b6000602082840312156112e3576112e2611bdb565b5b600082013567ffffffffffffffff81111561130157611300611bd6565b5b61130d84828501611214565b91505092915050565b60006020828403121561132c5761132b611bdb565b5b600061133a84828501611242565b91505092915050565b61134c816119a6565b82525050565b61135b816119b8565b82525050565b600061136c826118f8565b6113768185611903565b93506113868185602086016119fd565b61138f81611be0565b840191505092915050565b60006113a5826118f8565b6113af8185611914565b93506113bf8185602086016119fd565b80840191505092915050565b600081546113d881611a30565b6113e28186611914565b945060018216600081146113fd576001811461140e57611441565b60ff19831686528186019350611441565b611417856118e3565b60005b838110156114395781548189015260018201915060208101905061141a565b838801955050505b50505092915050565b6000611457601b83611903565b915061146282611bf1565b602082019050919050565b600061147a601083611903565b915061148582611c1a565b602082019050919050565b600061149d600d83611903565b91506114a882611c43565b602082019050919050565b60006114c0602283611903565b91506114cb82611c6c565b604082019050919050565b60006114e3600c83611903565b91506114ee82611cbb565b602082019050919050565b6000611506601c83611903565b915061151182611ce4565b602082019050919050565b6000611529601f83611903565b915061153482611d0d565b602082019050919050565b600061154c602083611903565b915061155782611d36565b602082019050919050565b600061156f600d83611903565b915061157a82611d5f565b602082019050919050565b6000611592601783611903565b915061159d82611d88565b602082019050919050565b60006115b5600a83611903565b91506115c082611db1565b602082019050919050565b60006115d8602683611903565b91506115e382611dda565b604082019050919050565b60006115fb602483611903565b915061160682611e29565b604082019050919050565b61161a816119e4565b82525050565b600061162c828461139a565b915081905092915050565b600061164382846113cb565b915081905092915050565b60006020820190506116636000830184611343565b92915050565b600060208201905061167e6000830184611352565b92915050565b6000602082019050818103600083015261169e8184611361565b905092915050565b600060208201905081810360008301526116bf8161144a565b9050919050565b600060208201905081810360008301526116df8161146d565b9050919050565b600060208201905081810360008301526116ff81611490565b9050919050565b6000602082019050818103600083015261171f816114b3565b9050919050565b6000602082019050818103600083015261173f816114d6565b9050919050565b6000602082019050818103600083015261175f816114f9565b9050919050565b6000602082019050818103600083015261177f8161151c565b9050919050565b6000602082019050818103600083015261179f8161153f565b9050919050565b600060208201905081810360008301526117bf81611562565b9050919050565b600060208201905081810360008301526117df81611585565b9050919050565b600060208201905081810360008301526117ff816115a8565b9050919050565b6000602082019050818103600083015261181f816115cb565b9050919050565b6000602082019050818103600083015261183f816115ee565b9050919050565b600060208201905061185b6000830184611611565b92915050565b600061186b61187c565b90506118778282611a62565b919050565b6000604051905090565b600067ffffffffffffffff8211156118a1576118a0611b98565b5b602082029050602081019050919050565b600067ffffffffffffffff8211156118cd576118cc611b98565b5b6118d682611be0565b9050602081019050919050565b60008190508160005260206000209050919050565b600081519050919050565b600082825260208201905092915050565b600081905092915050565b600061192a826119e4565b9150611935836119e4565b9250827fffffffffffffffffffffffffffffffffffffffffffffffffffffffffffffffff0382111561196a57611969611adc565b5b828201905092915050565b6000611980826119e4565b915061198b836119e4565b92508261199b5761199a611b0b565b5b828204905092915050565b60006119b1826119c4565b9050919050565b60008115159050919050565b600073ffffffffffffffffffffffffffffffffffffffff82169050919050565b6000819050919050565b82818337600083830152505050565b60005b83811015611a1b578082015181840152602081019050611a00565b83811115611a2a576000848401525b50505050565b60006002820490506001821680611a4857607f821691505b60208210811415611a5c57611a5b611b3a565b5b50919050565b611a6b82611be0565b810181811067ffffffffffffffff82111715611a8a57611a89611b98565b5b80604052505050565b6000611a9e826119e4565b91507fffffffffffffffffffffffffffffffffffffffffffffffffffffffffffffffff821415611ad157611ad0611adc565b5b600182019050919050565b7f4e487b7100000000000000000000000000000000000000000000000000000000600052601160045260246000fd5b7f4e487b7100000000000000000000000000000000000000000000000000000000600052601260045260246000fd5b7f4e487b7100000000000000000000000000000000000000000000000000000000600052602260045260246000fd5b7f4e487b7100000000000000000000000000000000000000000000000000000000600052603260045260246000fd5b7f4e487b7100000000000000000000000000000000000000000000000000000000600052604160045260246000fd5b600080fd5b600080fd5b600080fd5b600080fd5b600080fd5b6000601f19601f8301169050919050565b7f48652f53686520686173206e6f20726967687420746f20766f74650000000000600082015250565b7f4c4152474552205448414e204d41582100000000000000000000000000000000600082015250565b7f416c726561647920766f74656400000000000000000000000000000000000000600082015250565b7f6f6e6c792063686169726d616e2063616e20657874656e64207468652074696d60008201527f6521000000000000000000000000000000000000000000000000000000000000602082015250565b7f4953205245504541544544210000000000000000000000000000000000000000600082015250565b7f54484520454c454354494f4e20484153204245454e20454e4445442100000000600082015250565b7f6f6e6c792063686169726d616e2063616e20656e74657220766f746572732100600082015250565b7f54484520454c454354494f4e20484153204e4f54204245454e20454e44454421600082015250565b7f69732063616e63656c6c65642100000000000000000000000000000000000000600082015250565b7f74686520766f74657220616c726561647920766f746564000000000000000000600082015250565b7f4e4f2057494e4e45522100000000000000000000000000000000000000000000600082015250565b7f54484520454c454354494f4e20484153204e4f54204245454e2053544152544560008201527f4420594554210000000000000000000000000000000000000000000000000000602082015250565b7f6f6e6c792063686169726d616e2063616e206769766520726967687420746f2060008201527f766f746500000000000000000000000000000000000000000000000000000000602082015250565b611e81816119a6565b8114611e8c57600080fd5b50565b611e98816119e4565b8114611ea357600080fd5b5056fea2646970667358221220b37f737056bbe6ee5478010d1df59948c2ce76e896919b36ed73ebb88bff6be164736f6c63430008070033",
					"opcodes": "PUSH1 0x80 PUSH1 0x40 MSTORE PUSH1 0x0 PUSH1 0xA SSTORE CALLVALUE DUP1 ISZERO PUSH3 0x16 JUMPI PUSH1 0x0 DUP1 REVERT JUMPDEST POP PUSH1 0x40 MLOAD PUSH3 0x26D9 CODESIZE SUB DUP1 PUSH3 0x26D9 DUP4 CODECOPY DUP2 DUP2 ADD PUSH1 0x40 MSTORE DUP2 ADD SWAP1 PUSH3 0x3C SWAP2 SWAP1 PUSH3 0x439 JUMP JUMPDEST PUSH1 0x0 JUMPDEST DUP2 MLOAD DUP2 LT ISZERO PUSH3 0xA2 JUMPI PUSH1 0x0 PUSH1 0xC DUP4 DUP4 DUP2 MLOAD DUP2 LT PUSH3 0x63 JUMPI PUSH3 0x62 PUSH3 0x74B JUMP JUMPDEST JUMPDEST PUSH1 0x20 MUL PUSH1 0x20 ADD ADD MLOAD PUSH1 0x40 MLOAD PUSH3 0x7A SWAP2 SWAP1 PUSH3 0x536 JUMP JUMPDEST SWAP1 DUP2 MSTORE PUSH1 0x20 ADD PUSH1 0x40 MLOAD DUP1 SWAP2 SUB SWAP1 KECCAK256 DUP2 SWAP1 SSTORE POP DUP1 DUP1 PUSH3 0x99 SWAP1 PUSH3 0x69F JUMP JUMPDEST SWAP2 POP POP PUSH3 0x3F JUMP JUMPDEST POP DUP4 PUSH1 0x7 DUP2 SWAP1 SSTORE POP DUP3 PUSH1 0x8 DUP2 SWAP1 SSTORE POP DUP2 PUSH1 0x9 DUP2 SWAP1 SSTORE POP DUP1 PUSH1 0xD SWAP1 DUP1 MLOAD SWAP1 PUSH1 0x20 ADD SWAP1 PUSH3 0xD0 SWAP3 SWAP2 SWAP1 PUSH3 0x150 JUMP JUMPDEST POP CALLER PUSH1 0x0 DUP1 PUSH2 0x100 EXP DUP2 SLOAD DUP2 PUSH20 0xFFFFFFFFFFFFFFFFFFFFFFFFFFFFFFFFFFFFFFFF MUL NOT AND SWAP1 DUP4 PUSH20 0xFFFFFFFFFFFFFFFFFFFFFFFFFFFFFFFFFFFFFFFF AND MUL OR SWAP1 SSTORE POP DUP5 PUSH1 0x1 SWAP1 DUP1 MLOAD SWAP1 PUSH1 0x20 ADD SWAP1 PUSH3 0x129 SWAP3 SWAP2 SWAP1 PUSH3 0x1B7 JUMP JUMPDEST POP PUSH1 0x0 PUSH1 0x4 PUSH1 0x0 PUSH2 0x100 EXP DUP2 SLOAD DUP2 PUSH1 0xFF MUL NOT AND SWAP1 DUP4 ISZERO ISZERO MUL OR SWAP1 SSTORE POP POP POP POP POP POP PUSH3 0x7ED JUMP JUMPDEST DUP3 DUP1 SLOAD DUP3 DUP3 SSTORE SWAP1 PUSH1 0x0 MSTORE PUSH1 0x20 PUSH1 0x0 KECCAK256 SWAP1 DUP2 ADD SWAP3 DUP3 ISZERO PUSH3 0x1A4 JUMPI SWAP2 PUSH1 0x20 MUL DUP3 ADD JUMPDEST DUP3 DUP2 GT ISZERO PUSH3 0x1A3 JUMPI DUP3 MLOAD DUP3 SWAP1 DUP1 MLOAD SWAP1 PUSH1 0x20 ADD SWAP1 PUSH3 0x192 SWAP3 SWAP2 SWAP1 PUSH3 0x1B7 JUMP JUMPDEST POP SWAP2 PUSH1 0x20 ADD SWAP2 SWAP1 PUSH1 0x1 ADD SWAP1 PUSH3 0x171 JUMP JUMPDEST JUMPDEST POP SWAP1 POP PUSH3 0x1B3 SWAP2 SWAP1 PUSH3 0x248 JUMP JUMPDEST POP SWAP1 JUMP JUMPDEST DUP3 DUP1 SLOAD PUSH3 0x1C5 SWAP1 PUSH3 0x633 JUMP JUMPDEST SWAP1 PUSH1 0x0 MSTORE PUSH1 0x20 PUSH1 0x0 KECCAK256 SWAP1 PUSH1 0x1F ADD PUSH1 0x20 SWAP1 DIV DUP2 ADD SWAP3 DUP3 PUSH3 0x1E9 JUMPI PUSH1 0x0 DUP6 SSTORE PUSH3 0x235 JUMP JUMPDEST DUP3 PUSH1 0x1F LT PUSH3 0x204 JUMPI DUP1 MLOAD PUSH1 0xFF NOT AND DUP4 DUP1 ADD OR DUP6 SSTORE PUSH3 0x235 JUMP JUMPDEST DUP3 DUP1 ADD PUSH1 0x1 ADD DUP6 SSTORE DUP3 ISZERO PUSH3 0x235 JUMPI SWAP2 DUP3 ADD JUMPDEST DUP3 DUP2 GT ISZERO PUSH3 0x234 JUMPI DUP3 MLOAD DUP3 SSTORE SWAP2 PUSH1 0x20 ADD SWAP2 SWAP1 PUSH1 0x1 ADD SWAP1 PUSH3 0x217 JUMP JUMPDEST JUMPDEST POP SWAP1 POP PUSH3 0x244 SWAP2 SWAP1 PUSH3 0x270 JUMP JUMPDEST POP SWAP1 JUMP JUMPDEST JUMPDEST DUP1 DUP3 GT ISZERO PUSH3 0x26C JUMPI PUSH1 0x0 DUP2 DUP2 PUSH3 0x262 SWAP2 SWAP1 PUSH3 0x28F JUMP JUMPDEST POP PUSH1 0x1 ADD PUSH3 0x249 JUMP JUMPDEST POP SWAP1 JUMP JUMPDEST JUMPDEST DUP1 DUP3 GT ISZERO PUSH3 0x28B JUMPI PUSH1 0x0 DUP2 PUSH1 0x0 SWAP1 SSTORE POP PUSH1 0x1 ADD PUSH3 0x271 JUMP JUMPDEST POP SWAP1 JUMP JUMPDEST POP DUP1 SLOAD PUSH3 0x29D SWAP1 PUSH3 0x633 JUMP JUMPDEST PUSH1 0x0 DUP3 SSTORE DUP1 PUSH1 0x1F LT PUSH3 0x2B1 JUMPI POP PUSH3 0x2D2 JUMP JUMPDEST PUSH1 0x1F ADD PUSH1 0x20 SWAP1 DIV SWAP1 PUSH1 0x0 MSTORE PUSH1 0x20 PUSH1 0x0 KECCAK256 SWAP1 DUP2 ADD SWAP1 PUSH3 0x2D1 SWAP2 SWAP1 PUSH3 0x270 JUMP JUMPDEST JUMPDEST POP JUMP JUMPDEST PUSH1 0x0 PUSH3 0x2EC PUSH3 0x2E6 DUP5 PUSH3 0x578 JUMP JUMPDEST PUSH3 0x54F JUMP JUMPDEST SWAP1 POP DUP1 DUP4 DUP3 MSTORE PUSH1 0x20 DUP3 ADD SWAP1 POP DUP3 DUP6 PUSH1 0x20 DUP7 MUL DUP3 ADD GT ISZERO PUSH3 0x312 JUMPI PUSH3 0x311 PUSH3 0x7AE JUMP JUMPDEST JUMPDEST PUSH1 0x0 JUMPDEST DUP6 DUP2 LT ISZERO PUSH3 0x367 JUMPI DUP2 MLOAD PUSH8 0xFFFFFFFFFFFFFFFF DUP2 GT ISZERO PUSH3 0x33C JUMPI PUSH3 0x33B PUSH3 0x7A9 JUMP JUMPDEST JUMPDEST DUP1 DUP7 ADD PUSH3 0x34B DUP10 DUP3 PUSH3 0x3EF JUMP JUMPDEST DUP6 MSTORE PUSH1 0x20 DUP6 ADD SWAP5 POP PUSH1 0x20 DUP5 ADD SWAP4 POP POP POP PUSH1 0x1 DUP2 ADD SWAP1 POP PUSH3 0x315 JUMP JUMPDEST POP POP POP SWAP4 SWAP3 POP POP POP JUMP JUMPDEST PUSH1 0x0 PUSH3 0x388 PUSH3 0x382 DUP5 PUSH3 0x5A7 JUMP JUMPDEST PUSH3 0x54F JUMP JUMPDEST SWAP1 POP DUP3 DUP2 MSTORE PUSH1 0x20 DUP2 ADD DUP5 DUP5 DUP5 ADD GT ISZERO PUSH3 0x3A7 JUMPI PUSH3 0x3A6 PUSH3 0x7B3 JUMP JUMPDEST JUMPDEST PUSH3 0x3B4 DUP5 DUP3 DUP6 PUSH3 0x5FD JUMP JUMPDEST POP SWAP4 SWAP3 POP POP POP JUMP JUMPDEST PUSH1 0x0 DUP3 PUSH1 0x1F DUP4 ADD SLT PUSH3 0x3D4 JUMPI PUSH3 0x3D3 PUSH3 0x7A9 JUMP JUMPDEST JUMPDEST DUP2 MLOAD PUSH3 0x3E6 DUP5 DUP3 PUSH1 0x20 DUP7 ADD PUSH3 0x2D5 JUMP JUMPDEST SWAP2 POP POP SWAP3 SWAP2 POP POP JUMP JUMPDEST PUSH1 0x0 DUP3 PUSH1 0x1F DUP4 ADD SLT PUSH3 0x407 JUMPI PUSH3 0x406 PUSH3 0x7A9 JUMP JUMPDEST JUMPDEST DUP2 MLOAD PUSH3 0x419 DUP5 DUP3 PUSH1 0x20 DUP7 ADD PUSH3 0x371 JUMP JUMPDEST SWAP2 POP POP SWAP3 SWAP2 POP POP JUMP JUMPDEST PUSH1 0x0 DUP2 MLOAD SWAP1 POP PUSH3 0x433 DUP2 PUSH3 0x7D3 JUMP JUMPDEST SWAP3 SWAP2 POP POP JUMP JUMPDEST PUSH1 0x0 DUP1 PUSH1 0x0 DUP1 PUSH1 0x0 PUSH1 0xA0 DUP7 DUP9 SUB SLT ISZERO PUSH3 0x458 JUMPI PUSH3 0x457 PUSH3 0x7BD JUMP JUMPDEST JUMPDEST PUSH1 0x0 DUP7 ADD MLOAD PUSH8 0xFFFFFFFFFFFFFFFF DUP2 GT ISZERO PUSH3 0x479 JUMPI PUSH3 0x478 PUSH3 0x7B8 JUMP JUMPDEST JUMPDEST PUSH3 0x487 DUP9 DUP3 DUP10 ADD PUSH3 0x3EF JUMP JUMPDEST SWAP6 POP POP PUSH1 0x20 PUSH3 0x49A DUP9 DUP3 DUP10 ADD PUSH3 0x422 JUMP JUMPDEST SWAP5 POP POP PUSH1 0x40 PUSH3 0x4AD DUP9 DUP3 DUP10 ADD PUSH3 0x422 JUMP JUMPDEST SWAP4 POP POP PUSH1 0x60 PUSH3 0x4C0 DUP9 DUP3 DUP10 ADD PUSH3 0x422 JUMP JUMPDEST SWAP3 POP POP PUSH1 0x80 DUP7 ADD MLOAD PUSH8 0xFFFFFFFFFFFFFFFF DUP2 GT ISZERO PUSH3 0x4E4 JUMPI PUSH3 0x4E3 PUSH3 0x7B8 JUMP JUMPDEST JUMPDEST PUSH3 0x4F2 DUP9 DUP3 DUP10 ADD PUSH3 0x3BC JUMP JUMPDEST SWAP2 POP POP SWAP3 SWAP6 POP SWAP3 SWAP6 SWAP1 SWAP4 POP JUMP JUMPDEST PUSH1 0x0 PUSH3 0x50C DUP3 PUSH3 0x5DD JUMP JUMPDEST PUSH3 0x518 DUP2 DUP6 PUSH3 0x5E8 JUMP JUMPDEST SWAP4 POP PUSH3 0x52A DUP2 DUP6 PUSH1 0x20 DUP7 ADD PUSH3 0x5FD JUMP JUMPDEST DUP1 DUP5 ADD SWAP2 POP POP SWAP3 SWAP2 POP POP JUMP JUMPDEST PUSH1 0x0 PUSH3 0x544 DUP3 DUP5 PUSH3 0x4FF JUMP JUMPDEST SWAP2 POP DUP2 SWAP1 POP SWAP3 SWAP2 POP POP JUMP JUMPDEST PUSH1 0x0 PUSH3 0x55B PUSH3 0x56E JUMP JUMPDEST SWAP1 POP PUSH3 0x569 DUP3 DUP3 PUSH3 0x669 JUMP JUMPDEST SWAP2 SWAP1 POP JUMP JUMPDEST PUSH1 0x0 PUSH1 0x40 MLOAD SWAP1 POP SWAP1 JUMP JUMPDEST PUSH1 0x0 PUSH8 0xFFFFFFFFFFFFFFFF DUP3 GT ISZERO PUSH3 0x596 JUMPI PUSH3 0x595 PUSH3 0x77A JUMP JUMPDEST JUMPDEST PUSH1 0x20 DUP3 MUL SWAP1 POP PUSH1 0x20 DUP2 ADD SWAP1 POP SWAP2 SWAP1 POP JUMP JUMPDEST PUSH1 0x0 PUSH8 0xFFFFFFFFFFFFFFFF DUP3 GT ISZERO PUSH3 0x5C5 JUMPI PUSH3 0x5C4 PUSH3 0x77A JUMP JUMPDEST JUMPDEST PUSH3 0x5D0 DUP3 PUSH3 0x7C2 JUMP JUMPDEST SWAP1 POP PUSH1 0x20 DUP2 ADD SWAP1 POP SWAP2 SWAP1 POP JUMP JUMPDEST PUSH1 0x0 DUP2 MLOAD SWAP1 POP SWAP2 SWAP1 POP JUMP JUMPDEST PUSH1 0x0 DUP2 SWAP1 POP SWAP3 SWAP2 POP POP JUMP JUMPDEST PUSH1 0x0 DUP2 SWAP1 POP SWAP2 SWAP1 POP JUMP JUMPDEST PUSH1 0x0 JUMPDEST DUP4 DUP2 LT ISZERO PUSH3 0x61D JUMPI DUP1 DUP3 ADD MLOAD DUP2 DUP5 ADD MSTORE PUSH1 0x20 DUP2 ADD SWAP1 POP PUSH3 0x600 JUMP JUMPDEST DUP4 DUP2 GT ISZERO PUSH3 0x62D JUMPI PUSH1 0x0 DUP5 DUP5 ADD MSTORE JUMPDEST POP POP POP POP JUMP JUMPDEST PUSH1 0x0 PUSH1 0x2 DUP3 DIV SWAP1 POP PUSH1 0x1 DUP3 AND DUP1 PUSH3 0x64C JUMPI PUSH1 0x7F DUP3 AND SWAP2 POP JUMPDEST PUSH1 0x20 DUP3 LT DUP2 EQ ISZERO PUSH3 0x663 JUMPI PUSH3 0x662 PUSH3 0x71C JUMP JUMPDEST JUMPDEST POP SWAP2 SWAP1 POP JUMP JUMPDEST PUSH3 0x674 DUP3 PUSH3 0x7C2 JUMP JUMPDEST DUP2 ADD DUP2 DUP2 LT PUSH8 0xFFFFFFFFFFFFFFFF DUP3 GT OR ISZERO PUSH3 0x696 JUMPI PUSH3 0x695 PUSH3 0x77A JUMP JUMPDEST JUMPDEST DUP1 PUSH1 0x40 MSTORE POP POP POP JUMP JUMPDEST PUSH1 0x0 PUSH3 0x6AC DUP3 PUSH3 0x5F3 JUMP JUMPDEST SWAP2 POP PUSH32 0xFFFFFFFFFFFFFFFFFFFFFFFFFFFFFFFFFFFFFFFFFFFFFFFFFFFFFFFFFFFFFFFF DUP3 EQ ISZERO PUSH3 0x6E2 JUMPI PUSH3 0x6E1 PUSH3 0x6ED JUMP JUMPDEST JUMPDEST PUSH1 0x1 DUP3 ADD SWAP1 POP SWAP2 SWAP1 POP JUMP JUMPDEST PUSH32 0x4E487B7100000000000000000000000000000000000000000000000000000000 PUSH1 0x0 MSTORE PUSH1 0x11 PUSH1 0x4 MSTORE PUSH1 0x24 PUSH1 0x0 REVERT JUMPDEST PUSH32 0x4E487B7100000000000000000000000000000000000000000000000000000000 PUSH1 0x0 MSTORE PUSH1 0x22 PUSH1 0x4 MSTORE PUSH1 0x24 PUSH1 0x0 REVERT JUMPDEST PUSH32 0x4E487B7100000000000000000000000000000000000000000000000000000000 PUSH1 0x0 MSTORE PUSH1 0x32 PUSH1 0x4 MSTORE PUSH1 0x24 PUSH1 0x0 REVERT JUMPDEST PUSH32 0x4E487B7100000000000000000000000000000000000000000000000000000000 PUSH1 0x0 MSTORE PUSH1 0x41 PUSH1 0x4 MSTORE PUSH1 0x24 PUSH1 0x0 REVERT JUMPDEST PUSH1 0x0 DUP1 REVERT JUMPDEST PUSH1 0x0 DUP1 REVERT JUMPDEST PUSH1 0x0 DUP1 REVERT JUMPDEST PUSH1 0x0 DUP1 REVERT JUMPDEST PUSH1 0x0 DUP1 REVERT JUMPDEST PUSH1 0x0 PUSH1 0x1F NOT PUSH1 0x1F DUP4 ADD AND SWAP1 POP SWAP2 SWAP1 POP JUMP JUMPDEST PUSH3 0x7DE DUP2 PUSH3 0x5F3 JUMP JUMPDEST DUP2 EQ PUSH3 0x7EA JUMPI PUSH1 0x0 DUP1 REVERT JUMPDEST POP JUMP JUMPDEST PUSH2 0x1EDC DUP1 PUSH3 0x7FD PUSH1 0x0 CODECOPY PUSH1 0x0 RETURN INVALID PUSH1 0x80 PUSH1 0x40 MSTORE CALLVALUE DUP1 ISZERO PUSH2 0x10 JUMPI PUSH1 0x0 DUP1 REVERT JUMPDEST POP PUSH1 0x4 CALLDATASIZE LT PUSH2 0xEA JUMPI PUSH1 0x0 CALLDATALOAD PUSH1 0xE0 SHR DUP1 PUSH4 0x982EB6A9 GT PUSH2 0x8C JUMPI DUP1 PUSH4 0xBBE4524E GT PUSH2 0x66 JUMPI DUP1 PUSH4 0xBBE4524E EQ PUSH2 0x227 JUMPI DUP1 PUSH4 0xCFDD26EA EQ PUSH2 0x257 JUMPI DUP1 PUSH4 0xF2FB7263 EQ PUSH2 0x287 JUMPI DUP1 PUSH4 0xFC36E15B EQ PUSH2 0x2B7 JUMPI PUSH2 0xEA JUMP JUMPDEST DUP1 PUSH4 0x982EB6A9 EQ PUSH2 0x1BF JUMPI DUP1 PUSH4 0xA8FDCD0F EQ PUSH2 0x1DB JUMPI DUP1 PUSH4 0xB64FAA94 EQ PUSH2 0x1F7 JUMPI PUSH2 0xEA JUMP JUMPDEST DUP1 PUSH4 0x4D80A044 GT PUSH2 0xC8 JUMPI DUP1 PUSH4 0x4D80A044 EQ PUSH2 0x149 JUMPI DUP1 PUSH4 0x65372147 EQ PUSH2 0x167 JUMPI DUP1 PUSH4 0x87F7B975 EQ PUSH2 0x185 JUMPI DUP1 PUSH4 0x9714378C EQ PUSH2 0x1A3 JUMPI PUSH2 0xEA JUMP JUMPDEST DUP1 PUSH4 0x2462C8D6 EQ PUSH2 0xEF JUMPI DUP1 PUSH4 0x2DECC4D5 EQ PUSH2 0x10D JUMPI DUP1 PUSH4 0x4A79D50C EQ PUSH2 0x12B JUMPI JUMPDEST PUSH1 0x0 DUP1 REVERT JUMPDEST PUSH2 0xF7 PUSH2 0x2D3 JUMP JUMPDEST PUSH1 0x40 MLOAD PUSH2 0x104 SWAP2 SWAP1 PUSH2 0x1669 JUMP JUMPDEST PUSH1 0x40 MLOAD DUP1 SWAP2 SUB SWAP1 RETURN JUMPDEST PUSH2 0x115 PUSH2 0x3C5 JUMP JUMPDEST PUSH1 0x40 MLOAD PUSH2 0x122 SWAP2 SWAP1 PUSH2 0x1669 JUMP JUMPDEST PUSH1 0x40 MLOAD DUP1 SWAP2 SUB SWAP1 RETURN JUMPDEST PUSH2 0x133 PUSH2 0x461 JUMP JUMPDEST PUSH1 0x40 MLOAD PUSH2 0x140 SWAP2 SWAP1 PUSH2 0x1684 JUMP JUMPDEST PUSH1 0x40 MLOAD DUP1 SWAP2 SUB SWAP1 RETURN JUMPDEST PUSH2 0x151 PUSH2 0x4EF JUMP JUMPDEST PUSH1 0x40 MLOAD PUSH2 0x15E SWAP2 SWAP1 PUSH2 0x1846 JUMP JUMPDEST PUSH1 0x40 MLOAD DUP1 SWAP2 SUB SWAP1 RETURN JUMPDEST PUSH2 0x16F PUSH2 0x4F5 JUMP JUMPDEST PUSH1 0x40 MLOAD PUSH2 0x17C SWAP2 SWAP1 PUSH2 0x1684 JUMP JUMPDEST PUSH1 0x40 MLOAD DUP1 SWAP2 SUB SWAP1 RETURN JUMPDEST PUSH2 0x18D PUSH2 0x7C1 JUMP JUMPDEST PUSH1 0x40 MLOAD PUSH2 0x19A SWAP2 SWAP1 PUSH2 0x164E JUMP JUMPDEST PUSH1 0x40 MLOAD DUP1 SWAP2 SUB SWAP1 RETURN JUMPDEST PUSH2 0x1BD PUSH1 0x4 DUP1 CALLDATASIZE SUB DUP2 ADD SWAP1 PUSH2 0x1B8 SWAP2 SWAP1 PUSH2 0x1316 JUMP JUMPDEST PUSH2 0x7E5 JUMP JUMPDEST STOP JUMPDEST PUSH2 0x1D9 PUSH1 0x4 DUP1 CALLDATASIZE SUB DUP2 ADD SWAP1 PUSH2 0x1D4 SWAP2 SWAP1 PUSH2 0x1284 JUMP JUMPDEST PUSH2 0x8C2 JUMP JUMPDEST STOP JUMPDEST PUSH2 0x1F5 PUSH1 0x4 DUP1 CALLDATASIZE SUB DUP2 ADD SWAP1 PUSH2 0x1F0 SWAP2 SWAP1 PUSH2 0x1257 JUMP JUMPDEST PUSH2 0xAEA JUMP JUMPDEST STOP JUMPDEST PUSH2 0x211 PUSH1 0x4 DUP1 CALLDATASIZE SUB DUP2 ADD SWAP1 PUSH2 0x20C SWAP2 SWAP1 PUSH2 0x1316 JUMP JUMPDEST PUSH2 0xCAB JUMP JUMPDEST PUSH1 0x40 MLOAD PUSH2 0x21E SWAP2 SWAP1 PUSH2 0x164E JUMP JUMPDEST PUSH1 0x40 MLOAD DUP1 SWAP2 SUB SWAP1 RETURN JUMPDEST PUSH2 0x241 PUSH1 0x4 DUP1 CALLDATASIZE SUB DUP2 ADD SWAP1 PUSH2 0x23C SWAP2 SWAP1 PUSH2 0x1316 JUMP JUMPDEST PUSH2 0xCEA JUMP JUMPDEST PUSH1 0x40 MLOAD PUSH2 0x24E SWAP2 SWAP1 PUSH2 0x1684 JUMP JUMPDEST PUSH1 0x40 MLOAD DUP1 SWAP2 SUB SWAP1 RETURN JUMPDEST PUSH2 0x271 PUSH1 0x4 DUP1 CALLDATASIZE SUB DUP2 ADD SWAP1 PUSH2 0x26C SWAP2 SWAP1 PUSH2 0x1284 JUMP JUMPDEST PUSH2 0xD96 JUMP JUMPDEST PUSH1 0x40 MLOAD PUSH2 0x27E SWAP2 SWAP1 PUSH2 0x1669 JUMP JUMPDEST PUSH1 0x40 MLOAD DUP1 SWAP2 SUB SWAP1 RETURN JUMPDEST PUSH2 0x2A1 PUSH1 0x4 DUP1 CALLDATASIZE SUB DUP2 ADD SWAP1 PUSH2 0x29C SWAP2 SWAP1 PUSH2 0x1284 JUMP JUMPDEST PUSH2 0xE80 JUMP JUMPDEST PUSH1 0x40 MLOAD PUSH2 0x2AE SWAP2 SWAP1 PUSH2 0x1669 JUMP JUMPDEST PUSH1 0x40 MLOAD DUP1 SWAP2 SUB SWAP1 RETURN JUMPDEST PUSH2 0x2D1 PUSH1 0x4 DUP1 CALLDATASIZE SUB DUP2 ADD SWAP1 PUSH2 0x2CC SWAP2 SWAP1 PUSH2 0x12CD JUMP JUMPDEST PUSH2 0xEB0 JUMP JUMPDEST STOP JUMPDEST PUSH1 0x0 DUP1 PUSH1 0x0 SWAP1 POP JUMPDEST PUSH1 0xD DUP1 SLOAD SWAP1 POP DUP2 LT ISZERO PUSH2 0x3BC JUMPI PUSH1 0xB PUSH1 0x40 MLOAD PUSH1 0x20 ADD PUSH2 0x2FA SWAP2 SWAP1 PUSH2 0x1637 JUMP JUMPDEST PUSH1 0x40 MLOAD PUSH1 0x20 DUP2 DUP4 SUB SUB DUP2 MSTORE SWAP1 PUSH1 0x40 MSTORE DUP1 MLOAD SWAP1 PUSH1 0x20 ADD KECCAK256 PUSH1 0xD DUP3 DUP2 SLOAD DUP2 LT PUSH2 0x324 JUMPI PUSH2 0x323 PUSH2 0x1B69 JUMP JUMPDEST JUMPDEST SWAP1 PUSH1 0x0 MSTORE PUSH1 0x20 PUSH1 0x0 KECCAK256 ADD PUSH1 0x40 MLOAD PUSH1 0x20 ADD PUSH2 0x33E SWAP2 SWAP1 PUSH2 0x1637 JUMP JUMPDEST PUSH1 0x40 MLOAD PUSH1 0x20 DUP2 DUP4 SUB SUB DUP2 MSTORE SWAP1 PUSH1 0x40 MSTORE DUP1 MLOAD SWAP1 PUSH1 0x20 ADD KECCAK256 EQ PUSH2 0x3A9 JUMPI PUSH1 0xA SLOAD PUSH1 0xC PUSH1 0xD DUP4 DUP2 SLOAD DUP2 LT PUSH2 0x372 JUMPI PUSH2 0x371 PUSH2 0x1B69 JUMP JUMPDEST JUMPDEST SWAP1 PUSH1 0x0 MSTORE PUSH1 0x20 PUSH1 0x0 KECCAK256 ADD PUSH1 0x40 MLOAD PUSH2 0x389 SWAP2 SWAP1 PUSH2 0x1637 JUMP JUMPDEST SWAP1 DUP2 MSTORE PUSH1 0x20 ADD PUSH1 0x40 MLOAD DUP1 SWAP2 SUB SWAP1 KECCAK256 SLOAD EQ ISZERO PUSH2 0x3A8 JUMPI PUSH1 0x1 SWAP2 POP POP PUSH2 0x3C2 JUMP JUMPDEST JUMPDEST DUP1 DUP1 PUSH2 0x3B4 SWAP1 PUSH2 0x1A93 JUMP JUMPDEST SWAP2 POP POP PUSH2 0x2DB JUMP JUMPDEST POP PUSH1 0x0 SWAP1 POP JUMPDEST SWAP1 JUMP JUMPDEST PUSH1 0x0 DUP1 PUSH1 0x0 SWAP1 POP PUSH1 0x0 JUMPDEST PUSH1 0xD DUP1 SLOAD SWAP1 POP DUP2 LT ISZERO PUSH2 0x438 JUMPI PUSH1 0xC PUSH1 0xD DUP3 DUP2 SLOAD DUP2 LT PUSH2 0x3F2 JUMPI PUSH2 0x3F1 PUSH2 0x1B69 JUMP JUMPDEST JUMPDEST SWAP1 PUSH1 0x0 MSTORE PUSH1 0x20 PUSH1 0x0 KECCAK256 ADD PUSH1 0x40 MLOAD PUSH2 0x409 SWAP2 SWAP1 PUSH2 0x1637 JUMP JUMPDEST SWAP1 DUP2 MSTORE PUSH1 0x20 ADD PUSH1 0x40 MLOAD DUP1 SWAP2 SUB SWAP1 KECCAK256 SLOAD DUP3 PUSH2 0x423 SWAP2 SWAP1 PUSH2 0x191F JUMP JUMPDEST SWAP2 POP DUP1 DUP1 PUSH2 0x430 SWAP1 PUSH2 0x1A93 JUMP JUMPDEST SWAP2 POP POP PUSH2 0x3CF JUMP JUMPDEST POP PUSH1 0x2 PUSH1 0x9 SLOAD PUSH2 0x448 SWAP2 SWAP1 PUSH2 0x1975 JUMP JUMPDEST DUP2 GT PUSH2 0x458 JUMPI PUSH1 0x1 SWAP2 POP POP PUSH2 0x45E JUMP JUMPDEST PUSH1 0x0 SWAP2 POP POP JUMPDEST SWAP1 JUMP JUMPDEST PUSH1 0x1 DUP1 SLOAD PUSH2 0x46E SWAP1 PUSH2 0x1A30 JUMP JUMPDEST DUP1 PUSH1 0x1F ADD PUSH1 0x20 DUP1 SWAP2 DIV MUL PUSH1 0x20 ADD PUSH1 0x40 MLOAD SWAP1 DUP2 ADD PUSH1 0x40 MSTORE DUP1 SWAP3 SWAP2 SWAP1 DUP2 DUP2 MSTORE PUSH1 0x20 ADD DUP3 DUP1 SLOAD PUSH2 0x49A SWAP1 PUSH2 0x1A30 JUMP JUMPDEST DUP1 ISZERO PUSH2 0x4E7 JUMPI DUP1 PUSH1 0x1F LT PUSH2 0x4BC JUMPI PUSH2 0x100 DUP1 DUP4 SLOAD DIV MUL DUP4 MSTORE SWAP2 PUSH1 0x20 ADD SWAP2 PUSH2 0x4E7 JUMP JUMPDEST DUP3 ADD SWAP2 SWAP1 PUSH1 0x0 MSTORE PUSH1 0x20 PUSH1 0x0 KECCAK256 SWAP1 JUMPDEST DUP2 SLOAD DUP2 MSTORE SWAP1 PUSH1 0x1 ADD SWAP1 PUSH1 0x20 ADD DUP1 DUP4 GT PUSH2 0x4CA JUMPI DUP3 SWAP1 SUB PUSH1 0x1F AND DUP3 ADD SWAP2 JUMPDEST POP POP POP POP POP DUP2 JUMP JUMPDEST PUSH1 0x9 SLOAD DUP2 JUMP JUMPDEST PUSH1 0x60 PUSH1 0x7 SLOAD TIMESTAMP LT ISZERO PUSH2 0x53C JUMPI PUSH1 0x40 MLOAD PUSH32 0x8C379A000000000000000000000000000000000000000000000000000000000 DUP2 MSTORE PUSH1 0x4 ADD PUSH2 0x533 SWAP1 PUSH2 0x1806 JUMP JUMPDEST PUSH1 0x40 MLOAD DUP1 SWAP2 SUB SWAP1 REVERT JUMPDEST PUSH1 0x8 SLOAD TIMESTAMP GT PUSH2 0x580 JUMPI PUSH1 0x40 MLOAD PUSH32 0x8C379A000000000000000000000000000000000000000000000000000000000 DUP2 MSTORE PUSH1 0x4 ADD PUSH2 0x577 SWAP1 PUSH2 0x1786 JUMP JUMPDEST PUSH1 0x40 MLOAD DUP1 SWAP2 SUB SWAP1 REVERT JUMPDEST PUSH1 0xD PUSH1 0x0 DUP2 SLOAD DUP2 LT PUSH2 0x595 JUMPI PUSH2 0x594 PUSH2 0x1B69 JUMP JUMPDEST JUMPDEST SWAP1 PUSH1 0x0 MSTORE PUSH1 0x20 PUSH1 0x0 KECCAK256 ADD PUSH1 0xB SWAP1 DUP1 SLOAD PUSH2 0x5AD SWAP1 PUSH2 0x1A30 JUMP JUMPDEST PUSH2 0x5B8 SWAP3 SWAP2 SWAP1 PUSH2 0x1075 JUMP JUMPDEST POP PUSH1 0x0 PUSH1 0x1 SWAP1 POP JUMPDEST PUSH1 0xD DUP1 SLOAD SWAP1 POP DUP2 LT ISZERO PUSH2 0x6A0 JUMPI PUSH1 0xA SLOAD PUSH1 0xC PUSH1 0xD DUP4 DUP2 SLOAD DUP2 LT PUSH2 0x5E6 JUMPI PUSH2 0x5E5 PUSH2 0x1B69 JUMP JUMPDEST JUMPDEST SWAP1 PUSH1 0x0 MSTORE PUSH1 0x20 PUSH1 0x0 KECCAK256 ADD PUSH1 0x40 MLOAD PUSH2 0x5FD SWAP2 SWAP1 PUSH2 0x1637 JUMP JUMPDEST SWAP1 DUP2 MSTORE PUSH1 0x20 ADD PUSH1 0x40 MLOAD DUP1 SWAP2 SUB SWAP1 KECCAK256 SLOAD GT ISZERO PUSH2 0x68D JUMPI PUSH1 0xC PUSH1 0xD DUP3 DUP2 SLOAD DUP2 LT PUSH2 0x628 JUMPI PUSH2 0x627 PUSH2 0x1B69 JUMP JUMPDEST JUMPDEST SWAP1 PUSH1 0x0 MSTORE PUSH1 0x20 PUSH1 0x0 KECCAK256 ADD PUSH1 0x40 MLOAD PUSH2 0x63F SWAP2 SWAP1 PUSH2 0x1637 JUMP JUMPDEST SWAP1 DUP2 MSTORE PUSH1 0x20 ADD PUSH1 0x40 MLOAD DUP1 SWAP2 SUB SWAP1 KECCAK256 SLOAD PUSH1 0xA DUP2 SWAP1 SSTORE POP PUSH1 0xD DUP2 DUP2 SLOAD DUP2 LT PUSH2 0x668 JUMPI PUSH2 0x667 PUSH2 0x1B69 JUMP JUMPDEST JUMPDEST SWAP1 PUSH1 0x0 MSTORE PUSH1 0x20 PUSH1 0x0 KECCAK256 ADD PUSH1 0xB SWAP1 DUP1 SLOAD PUSH2 0x680 SWAP1 PUSH2 0x1A30 JUMP JUMPDEST PUSH2 0x68B SWAP3 SWAP2 SWAP1 PUSH2 0x1075 JUMP JUMPDEST POP JUMPDEST DUP1 DUP1 PUSH2 0x698 SWAP1 PUSH2 0x1A93 JUMP JUMPDEST SWAP2 POP POP PUSH2 0x5C0 JUMP JUMPDEST POP PUSH2 0x6A9 PUSH2 0x3C5 JUMP JUMPDEST ISZERO PUSH2 0x6E9 JUMPI PUSH1 0x40 MLOAD PUSH32 0x8C379A000000000000000000000000000000000000000000000000000000000 DUP2 MSTORE PUSH1 0x4 ADD PUSH2 0x6E0 SWAP1 PUSH2 0x17A6 JUMP JUMPDEST PUSH1 0x40 MLOAD DUP1 SWAP2 SUB SWAP1 REVERT JUMPDEST PUSH2 0x6F1 PUSH2 0x2D3 JUMP JUMPDEST ISZERO PUSH2 0x731 JUMPI PUSH1 0x40 MLOAD PUSH32 0x8C379A000000000000000000000000000000000000000000000000000000000 DUP2 MSTORE PUSH1 0x4 ADD PUSH2 0x728 SWAP1 PUSH2 0x17E6 JUMP JUMPDEST PUSH1 0x40 MLOAD DUP1 SWAP2 SUB SWAP1 REVERT JUMPDEST PUSH1 0xB DUP1 SLOAD PUSH2 0x73E SWAP1 PUSH2 0x1A30 JUMP JUMPDEST DUP1 PUSH1 0x1F ADD PUSH1 0x20 DUP1 SWAP2 DIV MUL PUSH1 0x20 ADD PUSH1 0x40 MLOAD SWAP1 DUP2 ADD PUSH1 0x40 MSTORE DUP1 SWAP3 SWAP2 SWAP1 DUP2 DUP2 MSTORE PUSH1 0x20 ADD DUP3 DUP1 SLOAD PUSH2 0x76A SWAP1 PUSH2 0x1A30 JUMP JUMPDEST DUP1 ISZERO PUSH2 0x7B7 JUMPI DUP1 PUSH1 0x1F LT PUSH2 0x78C JUMPI PUSH2 0x100 DUP1 DUP4 SLOAD DIV MUL DUP4 MSTORE SWAP2 PUSH1 0x20 ADD SWAP2 PUSH2 0x7B7 JUMP JUMPDEST DUP3 ADD SWAP2 SWAP1 PUSH1 0x0 MSTORE PUSH1 0x20 PUSH1 0x0 KECCAK256 SWAP1 JUMPDEST DUP2 SLOAD DUP2 MSTORE SWAP1 PUSH1 0x1 ADD SWAP1 PUSH1 0x20 ADD DUP1 DUP4 GT PUSH2 0x79A JUMPI DUP3 SWAP1 SUB PUSH1 0x1F AND DUP3 ADD SWAP2 JUMPDEST POP POP POP POP POP SWAP1 POP SWAP1 JUMP JUMPDEST PUSH1 0x0 DUP1 SLOAD SWAP1 PUSH2 0x100 EXP SWAP1 DIV PUSH20 0xFFFFFFFFFFFFFFFFFFFFFFFFFFFFFFFFFFFFFFFF AND DUP2 JUMP JUMPDEST PUSH1 0x0 DUP1 SLOAD SWAP1 PUSH2 0x100 EXP SWAP1 DIV PUSH20 0xFFFFFFFFFFFFFFFFFFFFFFFFFFFFFFFFFFFFFFFF AND PUSH20 0xFFFFFFFFFFFFFFFFFFFFFFFFFFFFFFFFFFFFFFFF AND CALLER PUSH20 0xFFFFFFFFFFFFFFFFFFFFFFFFFFFFFFFFFFFFFFFF AND EQ PUSH2 0x873 JUMPI PUSH1 0x40 MLOAD PUSH32 0x8C379A000000000000000000000000000000000000000000000000000000000 DUP2 MSTORE PUSH1 0x4 ADD PUSH2 0x86A SWAP1 PUSH2 0x1706 JUMP JUMPDEST PUSH1 0x40 MLOAD DUP1 SWAP2 SUB SWAP1 REVERT JUMPDEST PUSH1 0x8 SLOAD TIMESTAMP GT ISZERO PUSH2 0x8B8 JUMPI PUSH1 0x40 MLOAD PUSH32 0x8C379A000000000000000000000000000000000000000000000000000000000 DUP2 MSTORE PUSH1 0x4 ADD PUSH2 0x8AF SWAP1 PUSH2 0x1746 JUMP JUMPDEST PUSH1 0x40 MLOAD DUP1 SWAP2 SUB SWAP1 REVERT JUMPDEST DUP1 PUSH1 0x8 DUP2 SWAP1 SSTORE POP POP JUMP JUMPDEST PUSH1 0x0 DUP1 SLOAD SWAP1 PUSH2 0x100 EXP SWAP1 DIV PUSH20 0xFFFFFFFFFFFFFFFFFFFFFFFFFFFFFFFFFFFFFFFF AND PUSH20 0xFFFFFFFFFFFFFFFFFFFFFFFFFFFFFFFFFFFFFFFF AND CALLER PUSH20 0xFFFFFFFFFFFFFFFFFFFFFFFFFFFFFFFFFFFFFFFF AND EQ PUSH2 0x950 JUMPI PUSH1 0x40 MLOAD PUSH32 0x8C379A000000000000000000000000000000000000000000000000000000000 DUP2 MSTORE PUSH1 0x4 ADD PUSH2 0x947 SWAP1 PUSH2 0x1766 JUMP JUMPDEST PUSH1 0x40 MLOAD DUP1 SWAP2 SUB SWAP1 REVERT JUMPDEST PUSH1 0x8 SLOAD TIMESTAMP GT ISZERO PUSH2 0x995 JUMPI PUSH1 0x40 MLOAD PUSH32 0x8C379A000000000000000000000000000000000000000000000000000000000 DUP2 MSTORE PUSH1 0x4 ADD PUSH2 0x98C SWAP1 PUSH2 0x1746 JUMP JUMPDEST PUSH1 0x40 MLOAD DUP1 SWAP2 SUB SWAP1 REVERT JUMPDEST PUSH2 0x99E DUP2 PUSH2 0xD96 JUMP JUMPDEST ISZERO PUSH2 0x9DE JUMPI PUSH1 0x40 MLOAD PUSH32 0x8C379A000000000000000000000000000000000000000000000000000000000 DUP2 MSTORE PUSH1 0x4 ADD PUSH2 0x9D5 SWAP1 PUSH2 0x1726 JUMP JUMPDEST PUSH1 0x40 MLOAD DUP1 SWAP2 SUB SWAP1 REVERT JUMPDEST PUSH2 0x9E7 DUP2 PUSH2 0xE80 JUMP JUMPDEST ISZERO PUSH2 0xA27 JUMPI PUSH1 0x40 MLOAD PUSH32 0x8C379A000000000000000000000000000000000000000000000000000000000 DUP2 MSTORE PUSH1 0x4 ADD PUSH2 0xA1E SWAP1 PUSH2 0x16C6 JUMP JUMPDEST PUSH1 0x40 MLOAD DUP1 SWAP2 SUB SWAP1 REVERT JUMPDEST PUSH1 0x0 JUMPDEST DUP2 MLOAD DUP2 LT ISZERO PUSH2 0xAE6 JUMPI PUSH1 0x3 DUP3 DUP3 DUP2 MLOAD DUP2 LT PUSH2 0xA48 JUMPI PUSH2 0xA47 PUSH2 0x1B69 JUMP JUMPDEST JUMPDEST PUSH1 0x20 MUL PUSH1 0x20 ADD ADD MLOAD SWAP1 DUP1 PUSH1 0x1 DUP2 SLOAD ADD DUP1 DUP3 SSTORE DUP1 SWAP2 POP POP PUSH1 0x1 SWAP1 SUB SWAP1 PUSH1 0x0 MSTORE PUSH1 0x20 PUSH1 0x0 KECCAK256 ADD PUSH1 0x0 SWAP1 SWAP2 SWAP1 SWAP2 SWAP1 SWAP2 PUSH2 0x100 EXP DUP2 SLOAD DUP2 PUSH20 0xFFFFFFFFFFFFFFFFFFFFFFFFFFFFFFFFFFFFFFFF MUL NOT AND SWAP1 DUP4 PUSH20 0xFFFFFFFFFFFFFFFFFFFFFFFFFFFFFFFFFFFFFFFF AND MUL OR SWAP1 SSTORE POP PUSH2 0xAD3 DUP3 DUP3 DUP2 MLOAD DUP2 LT PUSH2 0xAC6 JUMPI PUSH2 0xAC5 PUSH2 0x1B69 JUMP JUMPDEST JUMPDEST PUSH1 0x20 MUL PUSH1 0x20 ADD ADD MLOAD PUSH2 0xAEA JUMP JUMPDEST DUP1 DUP1 PUSH2 0xADE SWAP1 PUSH2 0x1A93 JUMP JUMPDEST SWAP2 POP POP PUSH2 0xA2A JUMP JUMPDEST POP POP JUMP JUMPDEST PUSH1 0x0 DUP1 SLOAD SWAP1 PUSH2 0x100 EXP SWAP1 DIV PUSH20 0xFFFFFFFFFFFFFFFFFFFFFFFFFFFFFFFFFFFFFFFF AND PUSH20 0xFFFFFFFFFFFFFFFFFFFFFFFFFFFFFFFFFFFFFFFF AND CALLER PUSH20 0xFFFFFFFFFFFFFFFFFFFFFFFFFFFFFFFFFFFFFFFF AND EQ PUSH2 0xB78 JUMPI PUSH1 0x40 MLOAD PUSH32 0x8C379A000000000000000000000000000000000000000000000000000000000 DUP2 MSTORE PUSH1 0x4 ADD PUSH2 0xB6F SWAP1 PUSH2 0x1826 JUMP JUMPDEST PUSH1 0x40 MLOAD DUP1 SWAP2 SUB SWAP1 REVERT JUMPDEST PUSH1 0x8 SLOAD TIMESTAMP GT ISZERO PUSH2 0xBBD JUMPI PUSH1 0x40 MLOAD PUSH32 0x8C379A000000000000000000000000000000000000000000000000000000000 DUP2 MSTORE PUSH1 0x4 ADD PUSH2 0xBB4 SWAP1 PUSH2 0x1746 JUMP JUMPDEST PUSH1 0x40 MLOAD DUP1 SWAP2 SUB SWAP1 REVERT JUMPDEST PUSH1 0x2 PUSH1 0x0 DUP3 PUSH20 0xFFFFFFFFFFFFFFFFFFFFFFFFFFFFFFFFFFFFFFFF AND PUSH20 0xFFFFFFFFFFFFFFFFFFFFFFFFFFFFFFFFFFFFFFFF AND DUP2 MSTORE PUSH1 0x20 ADD SWAP1 DUP2 MSTORE PUSH1 0x20 ADD PUSH1 0x0 KECCAK256 PUSH1 0x0 ADD PUSH1 0x1 SWAP1 SLOAD SWAP1 PUSH2 0x100 EXP SWAP1 DIV PUSH1 0xFF AND ISZERO PUSH2 0xC4D JUMPI PUSH1 0x40 MLOAD PUSH32 0x8C379A000000000000000000000000000000000000000000000000000000000 DUP2 MSTORE PUSH1 0x4 ADD PUSH2 0xC44 SWAP1 PUSH2 0x17C6 JUMP JUMPDEST PUSH1 0x40 MLOAD DUP1 SWAP2 SUB SWAP1 REVERT JUMPDEST PUSH1 0x1 PUSH1 0x2 PUSH1 0x0 DUP4 PUSH20 0xFFFFFFFFFFFFFFFFFFFFFFFFFFFFFFFFFFFFFFFF AND PUSH20 0xFFFFFFFFFFFFFFFFFFFFFFFFFFFFFFFFFFFFFFFF AND DUP2 MSTORE PUSH1 0x20 ADD SWAP1 DUP2 MSTORE PUSH1 0x20 ADD PUSH1 0x0 KECCAK256 PUSH1 0x0 ADD PUSH1 0x0 PUSH2 0x100 EXP DUP2 SLOAD DUP2 PUSH1 0xFF MUL NOT AND SWAP1 DUP4 ISZERO ISZERO MUL OR SWAP1 SSTORE POP POP JUMP JUMPDEST PUSH1 0x3 DUP2 DUP2 SLOAD DUP2 LT PUSH2 0xCBB JUMPI PUSH1 0x0 DUP1 REVERT JUMPDEST SWAP1 PUSH1 0x0 MSTORE PUSH1 0x20 PUSH1 0x0 KECCAK256 ADD PUSH1 0x0 SWAP2 POP SLOAD SWAP1 PUSH2 0x100 EXP SWAP1 DIV PUSH20 0xFFFFFFFFFFFFFFFFFFFFFFFFFFFFFFFFFFFFFFFF AND DUP2 JUMP JUMPDEST PUSH1 0xD DUP2 DUP2 SLOAD DUP2 LT PUSH2 0xCFA JUMPI PUSH1 0x0 DUP1 REVERT JUMPDEST SWAP1 PUSH1 0x0 MSTORE PUSH1 0x20 PUSH1 0x0 KECCAK256 ADD PUSH1 0x0 SWAP2 POP SWAP1 POP DUP1 SLOAD PUSH2 0xD15 SWAP1 PUSH2 0x1A30 JUMP JUMPDEST DUP1 PUSH1 0x1F ADD PUSH1 0x20 DUP1 SWAP2 DIV MUL PUSH1 0x20 ADD PUSH1 0x40 MLOAD SWAP1 DUP2 ADD PUSH1 0x40 MSTORE DUP1 SWAP3 SWAP2 SWAP1 DUP2 DUP2 MSTORE PUSH1 0x20 ADD DUP3 DUP1 SLOAD PUSH2 0xD41 SWAP1 PUSH2 0x1A30 JUMP JUMPDEST DUP1 ISZERO PUSH2 0xD8E JUMPI DUP1 PUSH1 0x1F LT PUSH2 0xD63 JUMPI PUSH2 0x100 DUP1 DUP4 SLOAD DIV MUL DUP4 MSTORE SWAP2 PUSH1 0x20 ADD SWAP2 PUSH2 0xD8E JUMP JUMPDEST DUP3 ADD SWAP2 SWAP1 PUSH1 0x0 MSTORE PUSH1 0x20 PUSH1 0x0 KECCAK256 SWAP1 JUMPDEST DUP2 SLOAD DUP2 MSTORE SWAP1 PUSH1 0x1 ADD SWAP1 PUSH1 0x20 ADD DUP1 DUP4 GT PUSH2 0xD71 JUMPI DUP3 SWAP1 SUB PUSH1 0x1F AND DUP3 ADD SWAP2 JUMPDEST POP POP POP POP POP DUP2 JUMP JUMPDEST PUSH1 0x0 DUP1 PUSH1 0x0 SWAP1 POP JUMPDEST DUP3 MLOAD DUP2 LT ISZERO PUSH2 0xE75 JUMPI PUSH1 0x0 JUMPDEST PUSH1 0x3 DUP1 SLOAD SWAP1 POP DUP2 LT ISZERO PUSH2 0xE61 JUMPI PUSH1 0x3 DUP2 DUP2 SLOAD DUP2 LT PUSH2 0xDCB JUMPI PUSH2 0xDCA PUSH2 0x1B69 JUMP JUMPDEST JUMPDEST SWAP1 PUSH1 0x0 MSTORE PUSH1 0x20 PUSH1 0x0 KECCAK256 ADD PUSH1 0x0 SWAP1 SLOAD SWAP1 PUSH2 0x100 EXP SWAP1 DIV PUSH20 0xFFFFFFFFFFFFFFFFFFFFFFFFFFFFFFFFFFFFFFFF AND PUSH20 0xFFFFFFFFFFFFFFFFFFFFFFFFFFFFFFFFFFFFFFFF AND DUP5 DUP4 DUP2 MLOAD DUP2 LT PUSH2 0xE1F JUMPI PUSH2 0xE1E PUSH2 0x1B69 JUMP JUMPDEST JUMPDEST PUSH1 0x20 MUL PUSH1 0x20 ADD ADD MLOAD PUSH20 0xFFFFFFFFFFFFFFFFFFFFFFFFFFFFFFFFFFFFFFFF AND EQ ISZERO PUSH2 0xE4E JUMPI PUSH1 0x1 SWAP3 POP POP POP PUSH2 0xE7B JUMP JUMPDEST DUP1 DUP1 PUSH2 0xE59 SWAP1 PUSH2 0x1A93 JUMP JUMPDEST SWAP2 POP POP PUSH2 0xDAA JUMP JUMPDEST POP DUP1 DUP1 PUSH2 0xE6D SWAP1 PUSH2 0x1A93 JUMP JUMPDEST SWAP2 POP POP PUSH2 0xD9E JUMP JUMPDEST POP PUSH1 0x0 SWAP1 POP JUMPDEST SWAP2 SWAP1 POP JUMP JUMPDEST PUSH1 0x0 PUSH1 0x9 SLOAD DUP3 MLOAD PUSH1 0x3 DUP1 SLOAD SWAP1 POP PUSH2 0xE97 SWAP2 SWAP1 PUSH2 0x191F JUMP JUMPDEST GT ISZERO PUSH2 0xEA6 JUMPI PUSH1 0x1 SWAP1 POP PUSH2 0xEAB JUMP JUMPDEST PUSH1 0x0 SWAP1 POP JUMPDEST SWAP2 SWAP1 POP JUMP JUMPDEST PUSH1 0x7 SLOAD TIMESTAMP LT ISZERO PUSH2 0xEF5 JUMPI PUSH1 0x40 MLOAD PUSH32 0x8C379A000000000000000000000000000000000000000000000000000000000 DUP2 MSTORE PUSH1 0x4 ADD PUSH2 0xEEC SWAP1 PUSH2 0x1806 JUMP JUMPDEST PUSH1 0x40 MLOAD DUP1 SWAP2 SUB SWAP1 REVERT JUMPDEST PUSH1 0x8 SLOAD TIMESTAMP GT ISZERO PUSH2 0xF3A JUMPI PUSH1 0x40 MLOAD PUSH32 0x8C379A000000000000000000000000000000000000000000000000000000000 DUP2 MSTORE PUSH1 0x4 ADD PUSH2 0xF31 SWAP1 PUSH2 0x1746 JUMP JUMPDEST PUSH1 0x40 MLOAD DUP1 SWAP2 SUB SWAP1 REVERT JUMPDEST PUSH1 0x0 PUSH1 0x2 PUSH1 0x0 CALLER PUSH20 0xFFFFFFFFFFFFFFFFFFFFFFFFFFFFFFFFFFFFFFFF AND PUSH20 0xFFFFFFFFFFFFFFFFFFFFFFFFFFFFFFFFFFFFFFFF AND DUP2 MSTORE PUSH1 0x20 ADD SWAP1 DUP2 MSTORE PUSH1 0x20 ADD PUSH1 0x0 KECCAK256 SWAP1 POP DUP1 PUSH1 0x0 ADD PUSH1 0x0 SWAP1 SLOAD SWAP1 PUSH2 0x100 EXP SWAP1 DIV PUSH1 0xFF AND PUSH2 0xFCE JUMPI PUSH1 0x40 MLOAD PUSH32 0x8C379A000000000000000000000000000000000000000000000000000000000 DUP2 MSTORE PUSH1 0x4 ADD PUSH2 0xFC5 SWAP1 PUSH2 0x16A6 JUMP JUMPDEST PUSH1 0x40 MLOAD DUP1 SWAP2 SUB SWAP1 REVERT JUMPDEST DUP1 PUSH1 0x0 ADD PUSH1 0x1 SWAP1 SLOAD SWAP1 PUSH2 0x100 EXP SWAP1 DIV PUSH1 0xFF AND ISZERO PUSH2 0x1020 JUMPI PUSH1 0x40 MLOAD PUSH32 0x8C379A000000000000000000000000000000000000000000000000000000000 DUP2 MSTORE PUSH1 0x4 ADD PUSH2 0x1017 SWAP1 PUSH2 0x16E6 JUMP JUMPDEST PUSH1 0x40 MLOAD DUP1 SWAP2 SUB SWAP1 REVERT JUMPDEST PUSH1 0x1 DUP2 PUSH1 0x0 ADD PUSH1 0x1 PUSH2 0x100 EXP DUP2 SLOAD DUP2 PUSH1 0xFF MUL NOT AND SWAP1 DUP4 ISZERO ISZERO MUL OR SWAP1 SSTORE POP PUSH1 0xC DUP3 PUSH1 0x40 MLOAD PUSH2 0x104D SWAP2 SWAP1 PUSH2 0x1620 JUMP JUMPDEST SWAP1 DUP2 MSTORE PUSH1 0x20 ADD PUSH1 0x40 MLOAD DUP1 SWAP2 SUB SWAP1 KECCAK256 PUSH1 0x0 DUP2 SLOAD DUP1 SWAP3 SWAP2 SWAP1 PUSH2 0x106C SWAP1 PUSH2 0x1A93 JUMP JUMPDEST SWAP2 SWAP1 POP SSTORE POP POP POP JUMP JUMPDEST DUP3 DUP1 SLOAD PUSH2 0x1081 SWAP1 PUSH2 0x1A30 JUMP JUMPDEST SWAP1 PUSH1 0x0 MSTORE PUSH1 0x20 PUSH1 0x0 KECCAK256 SWAP1 PUSH1 0x1F ADD PUSH1 0x20 SWAP1 DIV DUP2 ADD SWAP3 DUP3 PUSH2 0x10A3 JUMPI PUSH1 0x0 DUP6 SSTORE PUSH2 0x10F1 JUMP JUMPDEST DUP3 PUSH1 0x1F LT PUSH2 0x10B4 JUMPI DUP1 SLOAD DUP6 SSTORE PUSH2 0x10F1 JUMP JUMPDEST DUP3 DUP1 ADD PUSH1 0x1 ADD DUP6 SSTORE DUP3 ISZERO PUSH2 0x10F1 JUMPI PUSH1 0x0 MSTORE PUSH1 0x20 PUSH1 0x0 KECCAK256 SWAP2 PUSH1 0x1F ADD PUSH1 0x20 SWAP1 DIV DUP3 ADD JUMPDEST DUP3 DUP2 GT ISZERO PUSH2 0x10F0 JUMPI DUP3 SLOAD DUP3 SSTORE SWAP2 PUSH1 0x1 ADD SWAP2 SWAP1 PUSH1 0x1 ADD SWAP1 PUSH2 0x10D5 JUMP JUMPDEST JUMPDEST POP SWAP1 POP PUSH2 0x10FE SWAP2 SWAP1 PUSH2 0x1102 JUMP JUMPDEST POP SWAP1 JUMP JUMPDEST JUMPDEST DUP1 DUP3 GT ISZERO PUSH2 0x111B JUMPI PUSH1 0x0 DUP2 PUSH1 0x0 SWAP1 SSTORE POP PUSH1 0x1 ADD PUSH2 0x1103 JUMP JUMPDEST POP SWAP1 JUMP JUMPDEST PUSH1 0x0 PUSH2 0x1132 PUSH2 0x112D DUP5 PUSH2 0x1886 JUMP JUMPDEST PUSH2 0x1861 JUMP JUMPDEST SWAP1 POP DUP1 DUP4 DUP3 MSTORE PUSH1 0x20 DUP3 ADD SWAP1 POP DUP3 DUP6 PUSH1 0x20 DUP7 MUL DUP3 ADD GT ISZERO PUSH2 0x1155 JUMPI PUSH2 0x1154 PUSH2 0x1BCC JUMP JUMPDEST JUMPDEST PUSH1 0x0 JUMPDEST DUP6 DUP2 LT ISZERO PUSH2 0x1185 JUMPI DUP2 PUSH2 0x116B DUP9 DUP3 PUSH2 0x11D1 JUMP JUMPDEST DUP5 MSTORE PUSH1 0x20 DUP5 ADD SWAP4 POP PUSH1 0x20 DUP4 ADD SWAP3 POP POP PUSH1 0x1 DUP2 ADD SWAP1 POP PUSH2 0x1158 JUMP JUMPDEST POP POP POP SWAP4 SWAP3 POP POP POP JUMP JUMPDEST PUSH1 0x0 PUSH2 0x11A2 PUSH2 0x119D DUP5 PUSH2 0x18B2 JUMP JUMPDEST PUSH2 0x1861 JUMP JUMPDEST SWAP1 POP DUP3 DUP2 MSTORE PUSH1 0x20 DUP2 ADD DUP5 DUP5 DUP5 ADD GT ISZERO PUSH2 0x11BE JUMPI PUSH2 0x11BD PUSH2 0x1BD1 JUMP JUMPDEST JUMPDEST PUSH2 0x11C9 DUP5 DUP3 DUP6 PUSH2 0x19EE JUMP JUMPDEST POP SWAP4 SWAP3 POP POP POP JUMP JUMPDEST PUSH1 0x0 DUP2 CALLDATALOAD SWAP1 POP PUSH2 0x11E0 DUP2 PUSH2 0x1E78 JUMP JUMPDEST SWAP3 SWAP2 POP POP JUMP JUMPDEST PUSH1 0x0 DUP3 PUSH1 0x1F DUP4 ADD SLT PUSH2 0x11FB JUMPI PUSH2 0x11FA PUSH2 0x1BC7 JUMP JUMPDEST JUMPDEST DUP2 CALLDATALOAD PUSH2 0x120B DUP5 DUP3 PUSH1 0x20 DUP7 ADD PUSH2 0x111F JUMP JUMPDEST SWAP2 POP POP SWAP3 SWAP2 POP POP JUMP JUMPDEST PUSH1 0x0 DUP3 PUSH1 0x1F DUP4 ADD SLT PUSH2 0x1229 JUMPI PUSH2 0x1228 PUSH2 0x1BC7 JUMP JUMPDEST JUMPDEST DUP2 CALLDATALOAD PUSH2 0x1239 DUP5 DUP3 PUSH1 0x20 DUP7 ADD PUSH2 0x118F JUMP JUMPDEST SWAP2 POP POP SWAP3 SWAP2 POP POP JUMP JUMPDEST PUSH1 0x0 DUP2 CALLDATALOAD SWAP1 POP PUSH2 0x1251 DUP2 PUSH2 0x1E8F JUMP JUMPDEST SWAP3 SWAP2 POP POP JUMP JUMPDEST PUSH1 0x0 PUSH1 0x20 DUP3 DUP5 SUB SLT ISZERO PUSH2 0x126D JUMPI PUSH2 0x126C PUSH2 0x1BDB JUMP JUMPDEST JUMPDEST PUSH1 0x0 PUSH2 0x127B DUP5 DUP3 DUP6 ADD PUSH2 0x11D1 JUMP JUMPDEST SWAP2 POP POP SWAP3 SWAP2 POP POP JUMP JUMPDEST PUSH1 0x0 PUSH1 0x20 DUP3 DUP5 SUB SLT ISZERO PUSH2 0x129A JUMPI PUSH2 0x1299 PUSH2 0x1BDB JUMP JUMPDEST JUMPDEST PUSH1 0x0 DUP3 ADD CALLDATALOAD PUSH8 0xFFFFFFFFFFFFFFFF DUP2 GT ISZERO PUSH2 0x12B8 JUMPI PUSH2 0x12B7 PUSH2 0x1BD6 JUMP JUMPDEST JUMPDEST PUSH2 0x12C4 DUP5 DUP3 DUP6 ADD PUSH2 0x11E6 JUMP JUMPDEST SWAP2 POP POP SWAP3 SWAP2 POP POP JUMP JUMPDEST PUSH1 0x0 PUSH1 0x20 DUP3 DUP5 SUB SLT ISZERO PUSH2 0x12E3 JUMPI PUSH2 0x12E2 PUSH2 0x1BDB JUMP JUMPDEST JUMPDEST PUSH1 0x0 DUP3 ADD CALLDATALOAD PUSH8 0xFFFFFFFFFFFFFFFF DUP2 GT ISZERO PUSH2 0x1301 JUMPI PUSH2 0x1300 PUSH2 0x1BD6 JUMP JUMPDEST JUMPDEST PUSH2 0x130D DUP5 DUP3 DUP6 ADD PUSH2 0x1214 JUMP JUMPDEST SWAP2 POP POP SWAP3 SWAP2 POP POP JUMP JUMPDEST PUSH1 0x0 PUSH1 0x20 DUP3 DUP5 SUB SLT ISZERO PUSH2 0x132C JUMPI PUSH2 0x132B PUSH2 0x1BDB JUMP JUMPDEST JUMPDEST PUSH1 0x0 PUSH2 0x133A DUP5 DUP3 DUP6 ADD PUSH2 0x1242 JUMP JUMPDEST SWAP2 POP POP SWAP3 SWAP2 POP POP JUMP JUMPDEST PUSH2 0x134C DUP2 PUSH2 0x19A6 JUMP JUMPDEST DUP3 MSTORE POP POP JUMP JUMPDEST PUSH2 0x135B DUP2 PUSH2 0x19B8 JUMP JUMPDEST DUP3 MSTORE POP POP JUMP JUMPDEST PUSH1 0x0 PUSH2 0x136C DUP3 PUSH2 0x18F8 JUMP JUMPDEST PUSH2 0x1376 DUP2 DUP6 PUSH2 0x1903 JUMP JUMPDEST SWAP4 POP PUSH2 0x1386 DUP2 DUP6 PUSH1 0x20 DUP7 ADD PUSH2 0x19FD JUMP JUMPDEST PUSH2 0x138F DUP2 PUSH2 0x1BE0 JUMP JUMPDEST DUP5 ADD SWAP2 POP POP SWAP3 SWAP2 POP POP JUMP JUMPDEST PUSH1 0x0 PUSH2 0x13A5 DUP3 PUSH2 0x18F8 JUMP JUMPDEST PUSH2 0x13AF DUP2 DUP6 PUSH2 0x1914 JUMP JUMPDEST SWAP4 POP PUSH2 0x13BF DUP2 DUP6 PUSH1 0x20 DUP7 ADD PUSH2 0x19FD JUMP JUMPDEST DUP1 DUP5 ADD SWAP2 POP POP SWAP3 SWAP2 POP POP JUMP JUMPDEST PUSH1 0x0 DUP2 SLOAD PUSH2 0x13D8 DUP2 PUSH2 0x1A30 JUMP JUMPDEST PUSH2 0x13E2 DUP2 DUP7 PUSH2 0x1914 JUMP JUMPDEST SWAP5 POP PUSH1 0x1 DUP3 AND PUSH1 0x0 DUP2 EQ PUSH2 0x13FD JUMPI PUSH1 0x1 DUP2 EQ PUSH2 0x140E JUMPI PUSH2 0x1441 JUMP JUMPDEST PUSH1 0xFF NOT DUP4 AND DUP7 MSTORE DUP2 DUP7 ADD SWAP4 POP PUSH2 0x1441 JUMP JUMPDEST PUSH2 0x1417 DUP6 PUSH2 0x18E3 JUMP JUMPDEST PUSH1 0x0 JUMPDEST DUP4 DUP2 LT ISZERO PUSH2 0x1439 JUMPI DUP2 SLOAD DUP2 DUP10 ADD MSTORE PUSH1 0x1 DUP3 ADD SWAP2 POP PUSH1 0x20 DUP2 ADD SWAP1 POP PUSH2 0x141A JUMP JUMPDEST DUP4 DUP9 ADD SWAP6 POP POP POP JUMPDEST POP POP POP SWAP3 SWAP2 POP POP JUMP JUMPDEST PUSH1 0x0 PUSH2 0x1457 PUSH1 0x1B DUP4 PUSH2 0x1903 JUMP JUMPDEST SWAP2 POP PUSH2 0x1462 DUP3 PUSH2 0x1BF1 JUMP JUMPDEST PUSH1 0x20 DUP3 ADD SWAP1 POP SWAP2 SWAP1 POP JUMP JUMPDEST PUSH1 0x0 PUSH2 0x147A PUSH1 0x10 DUP4 PUSH2 0x1903 JUMP JUMPDEST SWAP2 POP PUSH2 0x1485 DUP3 PUSH2 0x1C1A JUMP JUMPDEST PUSH1 0x20 DUP3 ADD SWAP1 POP SWAP2 SWAP1 POP JUMP JUMPDEST PUSH1 0x0 PUSH2 0x149D PUSH1 0xD DUP4 PUSH2 0x1903 JUMP JUMPDEST SWAP2 POP PUSH2 0x14A8 DUP3 PUSH2 0x1C43 JUMP JUMPDEST PUSH1 0x20 DUP3 ADD SWAP1 POP SWAP2 SWAP1 POP JUMP JUMPDEST PUSH1 0x0 PUSH2 0x14C0 PUSH1 0x22 DUP4 PUSH2 0x1903 JUMP JUMPDEST SWAP2 POP PUSH2 0x14CB DUP3 PUSH2 0x1C6C JUMP JUMPDEST PUSH1 0x40 DUP3 ADD SWAP1 POP SWAP2 SWAP1 POP JUMP JUMPDEST PUSH1 0x0 PUSH2 0x14E3 PUSH1 0xC DUP4 PUSH2 0x1903 JUMP JUMPDEST SWAP2 POP PUSH2 0x14EE DUP3 PUSH2 0x1CBB JUMP JUMPDEST PUSH1 0x20 DUP3 ADD SWAP1 POP SWAP2 SWAP1 POP JUMP JUMPDEST PUSH1 0x0 PUSH2 0x1506 PUSH1 0x1C DUP4 PUSH2 0x1903 JUMP JUMPDEST SWAP2 POP PUSH2 0x1511 DUP3 PUSH2 0x1CE4 JUMP JUMPDEST PUSH1 0x20 DUP3 ADD SWAP1 POP SWAP2 SWAP1 POP JUMP JUMPDEST PUSH1 0x0 PUSH2 0x1529 PUSH1 0x1F DUP4 PUSH2 0x1903 JUMP JUMPDEST SWAP2 POP PUSH2 0x1534 DUP3 PUSH2 0x1D0D JUMP JUMPDEST PUSH1 0x20 DUP3 ADD SWAP1 POP SWAP2 SWAP1 POP JUMP JUMPDEST PUSH1 0x0 PUSH2 0x154C PUSH1 0x20 DUP4 PUSH2 0x1903 JUMP JUMPDEST SWAP2 POP PUSH2 0x1557 DUP3 PUSH2 0x1D36 JUMP JUMPDEST PUSH1 0x20 DUP3 ADD SWAP1 POP SWAP2 SWAP1 POP JUMP JUMPDEST PUSH1 0x0 PUSH2 0x156F PUSH1 0xD DUP4 PUSH2 0x1903 JUMP JUMPDEST SWAP2 POP PUSH2 0x157A DUP3 PUSH2 0x1D5F JUMP JUMPDEST PUSH1 0x20 DUP3 ADD SWAP1 POP SWAP2 SWAP1 POP JUMP JUMPDEST PUSH1 0x0 PUSH2 0x1592 PUSH1 0x17 DUP4 PUSH2 0x1903 JUMP JUMPDEST SWAP2 POP PUSH2 0x159D DUP3 PUSH2 0x1D88 JUMP JUMPDEST PUSH1 0x20 DUP3 ADD SWAP1 POP SWAP2 SWAP1 POP JUMP JUMPDEST PUSH1 0x0 PUSH2 0x15B5 PUSH1 0xA DUP4 PUSH2 0x1903 JUMP JUMPDEST SWAP2 POP PUSH2 0x15C0 DUP3 PUSH2 0x1DB1 JUMP JUMPDEST PUSH1 0x20 DUP3 ADD SWAP1 POP SWAP2 SWAP1 POP JUMP JUMPDEST PUSH1 0x0 PUSH2 0x15D8 PUSH1 0x26 DUP4 PUSH2 0x1903 JUMP JUMPDEST SWAP2 POP PUSH2 0x15E3 DUP3 PUSH2 0x1DDA JUMP JUMPDEST PUSH1 0x40 DUP3 ADD SWAP1 POP SWAP2 SWAP1 POP JUMP JUMPDEST PUSH1 0x0 PUSH2 0x15FB PUSH1 0x24 DUP4 PUSH2 0x1903 JUMP JUMPDEST SWAP2 POP PUSH2 0x1606 DUP3 PUSH2 0x1E29 JUMP JUMPDEST PUSH1 0x40 DUP3 ADD SWAP1 POP SWAP2 SWAP1 POP JUMP JUMPDEST PUSH2 0x161A DUP2 PUSH2 0x19E4 JUMP JUMPDEST DUP3 MSTORE POP POP JUMP JUMPDEST PUSH1 0x0 PUSH2 0x162C DUP3 DUP5 PUSH2 0x139A JUMP JUMPDEST SWAP2 POP DUP2 SWAP1 POP SWAP3 SWAP2 POP POP JUMP JUMPDEST PUSH1 0x0 PUSH2 0x1643 DUP3 DUP5 PUSH2 0x13CB JUMP JUMPDEST SWAP2 POP DUP2 SWAP1 POP SWAP3 SWAP2 POP POP JUMP JUMPDEST PUSH1 0x0 PUSH1 0x20 DUP3 ADD SWAP1 POP PUSH2 0x1663 PUSH1 0x0 DUP4 ADD DUP5 PUSH2 0x1343 JUMP JUMPDEST SWAP3 SWAP2 POP POP JUMP JUMPDEST PUSH1 0x0 PUSH1 0x20 DUP3 ADD SWAP1 POP PUSH2 0x167E PUSH1 0x0 DUP4 ADD DUP5 PUSH2 0x1352 JUMP JUMPDEST SWAP3 SWAP2 POP POP JUMP JUMPDEST PUSH1 0x0 PUSH1 0x20 DUP3 ADD SWAP1 POP DUP2 DUP2 SUB PUSH1 0x0 DUP4 ADD MSTORE PUSH2 0x169E DUP2 DUP5 PUSH2 0x1361 JUMP JUMPDEST SWAP1 POP SWAP3 SWAP2 POP POP JUMP JUMPDEST PUSH1 0x0 PUSH1 0x20 DUP3 ADD SWAP1 POP DUP2 DUP2 SUB PUSH1 0x0 DUP4 ADD MSTORE PUSH2 0x16BF DUP2 PUSH2 0x144A JUMP JUMPDEST SWAP1 POP SWAP2 SWAP1 POP JUMP JUMPDEST PUSH1 0x0 PUSH1 0x20 DUP3 ADD SWAP1 POP DUP2 DUP2 SUB PUSH1 0x0 DUP4 ADD MSTORE PUSH2 0x16DF DUP2 PUSH2 0x146D JUMP JUMPDEST SWAP1 POP SWAP2 SWAP1 POP JUMP JUMPDEST PUSH1 0x0 PUSH1 0x20 DUP3 ADD SWAP1 POP DUP2 DUP2 SUB PUSH1 0x0 DUP4 ADD MSTORE PUSH2 0x16FF DUP2 PUSH2 0x1490 JUMP JUMPDEST SWAP1 POP SWAP2 SWAP1 POP JUMP JUMPDEST PUSH1 0x0 PUSH1 0x20 DUP3 ADD SWAP1 POP DUP2 DUP2 SUB PUSH1 0x0 DUP4 ADD MSTORE PUSH2 0x171F DUP2 PUSH2 0x14B3 JUMP JUMPDEST SWAP1 POP SWAP2 SWAP1 POP JUMP JUMPDEST PUSH1 0x0 PUSH1 0x20 DUP3 ADD SWAP1 POP DUP2 DUP2 SUB PUSH1 0x0 DUP4 ADD MSTORE PUSH2 0x173F DUP2 PUSH2 0x14D6 JUMP JUMPDEST SWAP1 POP SWAP2 SWAP1 POP JUMP JUMPDEST PUSH1 0x0 PUSH1 0x20 DUP3 ADD SWAP1 POP DUP2 DUP2 SUB PUSH1 0x0 DUP4 ADD MSTORE PUSH2 0x175F DUP2 PUSH2 0x14F9 JUMP JUMPDEST SWAP1 POP SWAP2 SWAP1 POP JUMP JUMPDEST PUSH1 0x0 PUSH1 0x20 DUP3 ADD SWAP1 POP DUP2 DUP2 SUB PUSH1 0x0 DUP4 ADD MSTORE PUSH2 0x177F DUP2 PUSH2 0x151C JUMP JUMPDEST SWAP1 POP SWAP2 SWAP1 POP JUMP JUMPDEST PUSH1 0x0 PUSH1 0x20 DUP3 ADD SWAP1 POP DUP2 DUP2 SUB PUSH1 0x0 DUP4 ADD MSTORE PUSH2 0x179F DUP2 PUSH2 0x153F JUMP JUMPDEST SWAP1 POP SWAP2 SWAP1 POP JUMP JUMPDEST PUSH1 0x0 PUSH1 0x20 DUP3 ADD SWAP1 POP DUP2 DUP2 SUB PUSH1 0x0 DUP4 ADD MSTORE PUSH2 0x17BF DUP2 PUSH2 0x1562 JUMP JUMPDEST SWAP1 POP SWAP2 SWAP1 POP JUMP JUMPDEST PUSH1 0x0 PUSH1 0x20 DUP3 ADD SWAP1 POP DUP2 DUP2 SUB PUSH1 0x0 DUP4 ADD MSTORE PUSH2 0x17DF DUP2 PUSH2 0x1585 JUMP JUMPDEST SWAP1 POP SWAP2 SWAP1 POP JUMP JUMPDEST PUSH1 0x0 PUSH1 0x20 DUP3 ADD SWAP1 POP DUP2 DUP2 SUB PUSH1 0x0 DUP4 ADD MSTORE PUSH2 0x17FF DUP2 PUSH2 0x15A8 JUMP JUMPDEST SWAP1 POP SWAP2 SWAP1 POP JUMP JUMPDEST PUSH1 0x0 PUSH1 0x20 DUP3 ADD SWAP1 POP DUP2 DUP2 SUB PUSH1 0x0 DUP4 ADD MSTORE PUSH2 0x181F DUP2 PUSH2 0x15CB JUMP JUMPDEST SWAP1 POP SWAP2 SWAP1 POP JUMP JUMPDEST PUSH1 0x0 PUSH1 0x20 DUP3 ADD SWAP1 POP DUP2 DUP2 SUB PUSH1 0x0 DUP4 ADD MSTORE PUSH2 0x183F DUP2 PUSH2 0x15EE JUMP JUMPDEST SWAP1 POP SWAP2 SWAP1 POP JUMP JUMPDEST PUSH1 0x0 PUSH1 0x20 DUP3 ADD SWAP1 POP PUSH2 0x185B PUSH1 0x0 DUP4 ADD DUP5 PUSH2 0x1611 JUMP JUMPDEST SWAP3 SWAP2 POP POP JUMP JUMPDEST PUSH1 0x0 PUSH2 0x186B PUSH2 0x187C JUMP JUMPDEST SWAP1 POP PUSH2 0x1877 DUP3 DUP3 PUSH2 0x1A62 JUMP JUMPDEST SWAP2 SWAP1 POP JUMP JUMPDEST PUSH1 0x0 PUSH1 0x40 MLOAD SWAP1 POP SWAP1 JUMP JUMPDEST PUSH1 0x0 PUSH8 0xFFFFFFFFFFFFFFFF DUP3 GT ISZERO PUSH2 0x18A1 JUMPI PUSH2 0x18A0 PUSH2 0x1B98 JUMP JUMPDEST JUMPDEST PUSH1 0x20 DUP3 MUL SWAP1 POP PUSH1 0x20 DUP2 ADD SWAP1 POP SWAP2 SWAP1 POP JUMP JUMPDEST PUSH1 0x0 PUSH8 0xFFFFFFFFFFFFFFFF DUP3 GT ISZERO PUSH2 0x18CD JUMPI PUSH2 0x18CC PUSH2 0x1B98 JUMP JUMPDEST JUMPDEST PUSH2 0x18D6 DUP3 PUSH2 0x1BE0 JUMP JUMPDEST SWAP1 POP PUSH1 0x20 DUP2 ADD SWAP1 POP SWAP2 SWAP1 POP JUMP JUMPDEST PUSH1 0x0 DUP2 SWAP1 POP DUP2 PUSH1 0x0 MSTORE PUSH1 0x20 PUSH1 0x0 KECCAK256 SWAP1 POP SWAP2 SWAP1 POP JUMP JUMPDEST PUSH1 0x0 DUP2 MLOAD SWAP1 POP SWAP2 SWAP1 POP JUMP JUMPDEST PUSH1 0x0 DUP3 DUP3 MSTORE PUSH1 0x20 DUP3 ADD SWAP1 POP SWAP3 SWAP2 POP POP JUMP JUMPDEST PUSH1 0x0 DUP2 SWAP1 POP SWAP3 SWAP2 POP POP JUMP JUMPDEST PUSH1 0x0 PUSH2 0x192A DUP3 PUSH2 0x19E4 JUMP JUMPDEST SWAP2 POP PUSH2 0x1935 DUP4 PUSH2 0x19E4 JUMP JUMPDEST SWAP3 POP DUP3 PUSH32 0xFFFFFFFFFFFFFFFFFFFFFFFFFFFFFFFFFFFFFFFFFFFFFFFFFFFFFFFFFFFFFFFF SUB DUP3 GT ISZERO PUSH2 0x196A JUMPI PUSH2 0x1969 PUSH2 0x1ADC JUMP JUMPDEST JUMPDEST DUP3 DUP3 ADD SWAP1 POP SWAP3 SWAP2 POP POP JUMP JUMPDEST PUSH1 0x0 PUSH2 0x1980 DUP3 PUSH2 0x19E4 JUMP JUMPDEST SWAP2 POP PUSH2 0x198B DUP4 PUSH2 0x19E4 JUMP JUMPDEST SWAP3 POP DUP3 PUSH2 0x199B JUMPI PUSH2 0x199A PUSH2 0x1B0B JUMP JUMPDEST JUMPDEST DUP3 DUP3 DIV SWAP1 POP SWAP3 SWAP2 POP POP JUMP JUMPDEST PUSH1 0x0 PUSH2 0x19B1 DUP3 PUSH2 0x19C4 JUMP JUMPDEST SWAP1 POP SWAP2 SWAP1 POP JUMP JUMPDEST PUSH1 0x0 DUP2 ISZERO ISZERO SWAP1 POP SWAP2 SWAP1 POP JUMP JUMPDEST PUSH1 0x0 PUSH20 0xFFFFFFFFFFFFFFFFFFFFFFFFFFFFFFFFFFFFFFFF DUP3 AND SWAP1 POP SWAP2 SWAP1 POP JUMP JUMPDEST PUSH1 0x0 DUP2 SWAP1 POP SWAP2 SWAP1 POP JUMP JUMPDEST DUP3 DUP2 DUP4 CALLDATACOPY PUSH1 0x0 DUP4 DUP4 ADD MSTORE POP POP POP JUMP JUMPDEST PUSH1 0x0 JUMPDEST DUP4 DUP2 LT ISZERO PUSH2 0x1A1B JUMPI DUP1 DUP3 ADD MLOAD DUP2 DUP5 ADD MSTORE PUSH1 0x20 DUP2 ADD SWAP1 POP PUSH2 0x1A00 JUMP JUMPDEST DUP4 DUP2 GT ISZERO PUSH2 0x1A2A JUMPI PUSH1 0x0 DUP5 DUP5 ADD MSTORE JUMPDEST POP POP POP POP JUMP JUMPDEST PUSH1 0x0 PUSH1 0x2 DUP3 DIV SWAP1 POP PUSH1 0x1 DUP3 AND DUP1 PUSH2 0x1A48 JUMPI PUSH1 0x7F DUP3 AND SWAP2 POP JUMPDEST PUSH1 0x20 DUP3 LT DUP2 EQ ISZERO PUSH2 0x1A5C JUMPI PUSH2 0x1A5B PUSH2 0x1B3A JUMP JUMPDEST JUMPDEST POP SWAP2 SWAP1 POP JUMP JUMPDEST PUSH2 0x1A6B DUP3 PUSH2 0x1BE0 JUMP JUMPDEST DUP2 ADD DUP2 DUP2 LT PUSH8 0xFFFFFFFFFFFFFFFF DUP3 GT OR ISZERO PUSH2 0x1A8A JUMPI PUSH2 0x1A89 PUSH2 0x1B98 JUMP JUMPDEST JUMPDEST DUP1 PUSH1 0x40 MSTORE POP POP POP JUMP JUMPDEST PUSH1 0x0 PUSH2 0x1A9E DUP3 PUSH2 0x19E4 JUMP JUMPDEST SWAP2 POP PUSH32 0xFFFFFFFFFFFFFFFFFFFFFFFFFFFFFFFFFFFFFFFFFFFFFFFFFFFFFFFFFFFFFFFF DUP3 EQ ISZERO PUSH2 0x1AD1 JUMPI PUSH2 0x1AD0 PUSH2 0x1ADC JUMP JUMPDEST JUMPDEST PUSH1 0x1 DUP3 ADD SWAP1 POP SWAP2 SWAP1 POP JUMP JUMPDEST PUSH32 0x4E487B7100000000000000000000000000000000000000000000000000000000 PUSH1 0x0 MSTORE PUSH1 0x11 PUSH1 0x4 MSTORE PUSH1 0x24 PUSH1 0x0 REVERT JUMPDEST PUSH32 0x4E487B7100000000000000000000000000000000000000000000000000000000 PUSH1 0x0 MSTORE PUSH1 0x12 PUSH1 0x4 MSTORE PUSH1 0x24 PUSH1 0x0 REVERT JUMPDEST PUSH32 0x4E487B7100000000000000000000000000000000000000000000000000000000 PUSH1 0x0 MSTORE PUSH1 0x22 PUSH1 0x4 MSTORE PUSH1 0x24 PUSH1 0x0 REVERT JUMPDEST PUSH32 0x4E487B7100000000000000000000000000000000000000000000000000000000 PUSH1 0x0 MSTORE PUSH1 0x32 PUSH1 0x4 MSTORE PUSH1 0x24 PUSH1 0x0 REVERT JUMPDEST PUSH32 0x4E487B7100000000000000000000000000000000000000000000000000000000 PUSH1 0x0 MSTORE PUSH1 0x41 PUSH1 0x4 MSTORE PUSH1 0x24 PUSH1 0x0 REVERT JUMPDEST PUSH1 0x0 DUP1 REVERT JUMPDEST PUSH1 0x0 DUP1 REVERT JUMPDEST PUSH1 0x0 DUP1 REVERT JUMPDEST PUSH1 0x0 DUP1 REVERT JUMPDEST PUSH1 0x0 DUP1 REVERT JUMPDEST PUSH1 0x0 PUSH1 0x1F NOT PUSH1 0x1F DUP4 ADD AND SWAP1 POP SWAP2 SWAP1 POP JUMP JUMPDEST PUSH32 0x48652F53686520686173206E6F20726967687420746F20766F74650000000000 PUSH1 0x0 DUP3 ADD MSTORE POP JUMP JUMPDEST PUSH32 0x4C4152474552205448414E204D41582100000000000000000000000000000000 PUSH1 0x0 DUP3 ADD MSTORE POP JUMP JUMPDEST PUSH32 0x416C726561647920766F74656400000000000000000000000000000000000000 PUSH1 0x0 DUP3 ADD MSTORE POP JUMP JUMPDEST PUSH32 0x6F6E6C792063686169726D616E2063616E20657874656E64207468652074696D PUSH1 0x0 DUP3 ADD MSTORE PUSH32 0x6521000000000000000000000000000000000000000000000000000000000000 PUSH1 0x20 DUP3 ADD MSTORE POP JUMP JUMPDEST PUSH32 0x4953205245504541544544210000000000000000000000000000000000000000 PUSH1 0x0 DUP3 ADD MSTORE POP JUMP JUMPDEST PUSH32 0x54484520454C454354494F4E20484153204245454E20454E4445442100000000 PUSH1 0x0 DUP3 ADD MSTORE POP JUMP JUMPDEST PUSH32 0x6F6E6C792063686169726D616E2063616E20656E74657220766F746572732100 PUSH1 0x0 DUP3 ADD MSTORE POP JUMP JUMPDEST PUSH32 0x54484520454C454354494F4E20484153204E4F54204245454E20454E44454421 PUSH1 0x0 DUP3 ADD MSTORE POP JUMP JUMPDEST PUSH32 0x69732063616E63656C6C65642100000000000000000000000000000000000000 PUSH1 0x0 DUP3 ADD MSTORE POP JUMP JUMPDEST PUSH32 0x74686520766F74657220616C726561647920766F746564000000000000000000 PUSH1 0x0 DUP3 ADD MSTORE POP JUMP JUMPDEST PUSH32 0x4E4F2057494E4E45522100000000000000000000000000000000000000000000 PUSH1 0x0 DUP3 ADD MSTORE POP JUMP JUMPDEST PUSH32 0x54484520454C454354494F4E20484153204E4F54204245454E20535441525445 PUSH1 0x0 DUP3 ADD MSTORE PUSH32 0x4420594554210000000000000000000000000000000000000000000000000000 PUSH1 0x20 DUP3 ADD MSTORE POP JUMP JUMPDEST PUSH32 0x6F6E6C792063686169726D616E2063616E206769766520726967687420746F20 PUSH1 0x0 DUP3 ADD MSTORE PUSH32 0x766F746500000000000000000000000000000000000000000000000000000000 PUSH1 0x20 DUP3 ADD MSTORE POP JUMP JUMPDEST PUSH2 0x1E81 DUP2 PUSH2 0x19A6 JUMP JUMPDEST DUP2 EQ PUSH2 0x1E8C JUMPI PUSH1 0x0 DUP1 REVERT JUMPDEST POP JUMP JUMPDEST PUSH2 0x1E98 DUP2 PUSH2 0x19E4 JUMP JUMPDEST DUP2 EQ PUSH2 0x1EA3 JUMPI PUSH1 0x0 DUP1 REVERT JUMPDEST POP JUMP INVALID LOG2 PUSH5 0x6970667358 0x22 SLT KECCAK256 0xB3 PUSH32 0x737056BBE6EE5478010D1DF59948C2CE76E896919B36ED73EBB88BFF6BE16473 PUSH16 0x6C634300080700330000000000000000 "
				},
				"gasEstimates": {
					"creation": {
						"codeDepositCost": "1580000",
						"executionCost": "infinite",
						"totalCost": "infinite"
					},
					"external": {
						"candids(uint256)": "infinite",
						"chairman()": "2578",
						"enter_voters(address[])": "infinite",
						"extend(uint256)": "26901",
						"give_voter_right(address)": "31457",
						"is_cancelled()": "infinite",
						"is_repeated(address[])": "infinite",
						"larger_than_max(address[])": "infinite",
						"max_voters()": "2452",
						"no_winner()": "infinite",
						"result()": "infinite",
						"title()": "infinite",
						"vote(string)": "infinite",
						"voters_array(uint256)": "5023"
					}
				},
				"methodIdentifiers": {
					"candids(uint256)": "bbe4524e",
					"chairman()": "87f7b975",
					"enter_voters(address[])": "982eb6a9",
					"extend(uint256)": "9714378c",
					"give_voter_right(address)": "a8fdcd0f",
					"is_cancelled()": "2decc4d5",
					"is_repeated(address[])": "cfdd26ea",
					"larger_than_max(address[])": "f2fb7263",
					"max_voters()": "4d80a044",
					"no_winner()": "2462c8d6",
					"result()": "65372147",
					"title()": "4a79d50c",
					"vote(string)": "fc36e15b",
					"voters_array(uint256)": "b64faa94"
				}
			},
			"storageLayout": {
				"storage": [
					{
						"astId": 3,
						"contract": "contracts/4_Voting.sol:Voting",
						"label": "chairman",
						"offset": 0,
						"slot": "0",
						"type": "t_address"
					},
					{
						"astId": 5,
						"contract": "contracts/4_Voting.sol:Voting",
						"label": "title",
						"offset": 0,
						"slot": "1",
						"type": "t_string_storage"
					},
					{
						"astId": 10,
						"contract": "contracts/4_Voting.sol:Voting",
						"label": "voters",
						"offset": 0,
						"slot": "2",
						"type": "t_mapping(t_address,t_struct(Voter)44_storage)"
					},
					{
						"astId": 13,
						"contract": "contracts/4_Voting.sol:Voting",
						"label": "voters_array",
						"offset": 0,
						"slot": "3",
						"type": "t_array(t_address)dyn_storage"
					},
					{
						"astId": 15,
						"contract": "contracts/4_Voting.sol:Voting",
						"label": "is_ended",
						"offset": 0,
						"slot": "4",
						"type": "t_bool"
					},
					{
						"astId": 17,
						"contract": "contracts/4_Voting.sol:Voting",
						"label": "agree_counters",
						"offset": 0,
						"slot": "5",
						"type": "t_uint256"
					},
					{
						"astId": 19,
						"contract": "contracts/4_Voting.sol:Voting",
						"label": "disagree_counters",
						"offset": 0,
						"slot": "6",
						"type": "t_uint256"
					},
					{
						"astId": 21,
						"contract": "contracts/4_Voting.sol:Voting",
						"label": "start_time",
						"offset": 0,
						"slot": "7",
						"type": "t_uint256"
					},
					{
						"astId": 23,
						"contract": "contracts/4_Voting.sol:Voting",
						"label": "end_time",
						"offset": 0,
						"slot": "8",
						"type": "t_uint256"
					},
					{
						"astId": 25,
						"contract": "contracts/4_Voting.sol:Voting",
						"label": "max_voters",
						"offset": 0,
						"slot": "9",
						"type": "t_uint256"
					},
					{
						"astId": 28,
						"contract": "contracts/4_Voting.sol:Voting",
						"label": "max_candid_vote",
						"offset": 0,
						"slot": "10",
						"type": "t_uint256"
					},
					{
						"astId": 30,
						"contract": "contracts/4_Voting.sol:Voting",
						"label": "max_candid",
						"offset": 0,
						"slot": "11",
						"type": "t_string_storage"
					},
					{
						"astId": 34,
						"contract": "contracts/4_Voting.sol:Voting",
						"label": "votes_num_of_candids",
						"offset": 0,
						"slot": "12",
						"type": "t_mapping(t_string_memory_ptr,t_uint256)"
					},
					{
						"astId": 37,
						"contract": "contracts/4_Voting.sol:Voting",
						"label": "candids",
						"offset": 0,
						"slot": "13",
						"type": "t_array(t_string_storage)dyn_storage"
					}
				],
				"types": {
					"t_address": {
						"encoding": "inplace",
						"label": "address",
						"numberOfBytes": "20"
					},
					"t_array(t_address)dyn_storage": {
						"base": "t_address",
						"encoding": "dynamic_array",
						"label": "address[]",
						"numberOfBytes": "32"
					},
					"t_array(t_string_storage)dyn_storage": {
						"base": "t_string_storage",
						"encoding": "dynamic_array",
						"label": "string[]",
						"numberOfBytes": "32"
					},
					"t_bool": {
						"encoding": "inplace",
						"label": "bool",
						"numberOfBytes": "1"
					},
					"t_mapping(t_address,t_struct(Voter)44_storage)": {
						"encoding": "mapping",
						"key": "t_address",
						"label": "mapping(address => struct Voting.Voter)",
						"numberOfBytes": "32",
						"value": "t_struct(Voter)44_storage"
					},
					"t_mapping(t_string_memory_ptr,t_uint256)": {
						"encoding": "mapping",
						"key": "t_string_memory_ptr",
						"label": "mapping(string => uint256)",
						"numberOfBytes": "32",
						"value": "t_uint256"
					},
					"t_string_memory_ptr": {
						"encoding": "bytes",
						"label": "string",
						"numberOfBytes": "32"
					},
					"t_string_storage": {
						"encoding": "bytes",
						"label": "string",
						"numberOfBytes": "32"
					},
					"t_struct(Voter)44_storage": {
						"encoding": "inplace",
						"label": "struct Voting.Voter",
						"members": [
							{
								"astId": 39,
								"contract": "contracts/4_Voting.sol:Voting",
								"label": "can_vote",
								"offset": 0,
								"slot": "0",
								"type": "t_bool"
							},
							{
								"astId": 41,
								"contract": "contracts/4_Voting.sol:Voting",
								"label": "voted",
								"offset": 1,
								"slot": "0",
								"type": "t_bool"
							},
							{
								"astId": 43,
								"contract": "contracts/4_Voting.sol:Voting",
								"label": "vote",
								"offset": 2,
								"slot": "0",
								"type": "t_bool"
							}
						],
						"numberOfBytes": "32"
					},
					"t_uint256": {
						"encoding": "inplace",
						"label": "uint256",
						"numberOfBytes": "32"
					}
				}
			},
			"userdoc": {
				"kind": "user",
				"methods": {},
				"version": 1
			}
		}
	}
}